:1041000000900020B54D03003DFF02003DFF02007E
:104110003DFF02003DFF02003DFF02003DFF0200A7
:104120003DFF02003DFF02003DFF0200EB9B02004D
:104130003DFF02003DFF020041FF0200612E03002F
:104140003DFF02003DFF02003DFF02003DFF020077
:104150003DFF02003DFF02003DFF02003DFF020067
:104160003DFF02003DFF02003DFF02003DFF020057
:104170003DFF02003DFF02003DFF02003DFF020047
:0C4180003DFF02003DFF02003DFF020079
:10419000F0B5FFB086B00646202124F0C1FD0446EC
:1041A000471C1BA801250570207818901596701ED5
:1041B000F64BD42119915958C0B2A42216925043FB
:1041C0001A90081830F0BBFEE075607AA17A0902F7
:1041D0000E18EF48185CC00737D02EF0EDF8002815
:1041E0001BD0607DC007C00D2FD11F2E28D9E948F4
:1041F0003018112804D829468140E748014224D1CB
:1042000030463138092804D829468140E348014224
:104210001BD11BA80021017036E031F099F80AD0BB
:1042200030462138142810D829468140F7480142E9
:104230000BD08D214BE3607DC007C00D05D1EFE7AA
:104240002846B040F9490842D1D030B200281BD4EA
:1042500001235120C000CD4D1490295A002049055A
:1042600000D419E132463C3A91B20B291C4619465A
:1042700000D913E1EE480240EE48D0400123184037
:104280000E24D4401C4009E1EB483018322800D9F4
:104290007DE2800001A108588746C04631490000F0
:1042A000676A0000676A0000676A0000676A0000CA
:1042B000676A0000676A0000676A0000676A0000BA
:1042C000676A0000676A00009549000069430000C2
:1042D00069430000676A0000676A0000676A0000BF
:1042E000676A0000676A0000676A0000676A00008A
:1042F000676A000069430000676A0000676A00009F
:10430000676A0000676A0000676A0000AB49000046
:1043100069430000D948000069430000676A000053
:1043200069430000676A000021480000214800003E
:10433000676A0000676A000069430000676A00005E
:10434000676A0000676A0000694300006943000073
:1043500069430000E34900000B4A00006943000084
:1043600069430000694300008848199940581A9928
:10437000411830F0F7FF012901D802F074FBAF4A71
:10438000B218272A00D935E2920001A39A5897461D
:10439000554A0000554A0000554A0000676A00006F
:1043A000676A0000676A0000676A0000676A0000C9
:1043B000676A0000676A0000676A0000554A0000EB
:1043C000676A0000676A0000676A0000676A0000A9
:1043D000676A0000554A0000554A0000554A00002F
:1043E000554A0000676A0000554A0000676A0000ED
:1043F000676A0000554A0000676A0000676A0000AB
:1044000031440000676A0000676A0000676A0000C4
:104410005756000071560000554A0000554A0000EA
:10442000554A0000554A0000554A0000DF5600007A
:104430002024159D284631F03AFC014653A831F05E
:1044400003FD7DA8002606805048199940581A9906
:10445000401830F01DFF0A7B18924F7B002F0ED1C1
:104460000C310079801E8D1CC4B22846214625F0EF
:10447000BDFA8F27002801D102F0C2F8159D3E2118
:1044800031F022FC044618993E2E01D102F007FCBF
:104490000020A055761CF7E71C461946CA4AAB5CBB
:1044A00002252B405A425A410028084600D11046A6
:1044B000002803D0002C0ED18420FEE1062E01D866
:1044C0007B2000E07220C043062E00D9F5E10122D6
:1044D000544000D0F1E184203246203A272A179137
:1044E00000D98BE0930001A2D2589746A145000065
:1044F000FB4A0000F94A0000BB480000BB4800002E
:10450000BB480000BB480000BB480000BB4800009F
:10451000BB480000BB480000054B0000BB48000042
:10452000BB480000BB480000BB480000BB4800007F
:10453000994B0000F14B00008D4C0000AD4D000088
:10454000BB480000BB480000BB480000BD4E000057
:10455000EB4E0000BB480000BB480000534F00007A
:10456000BB480000BB480000BB480000BB4800003F
:10457000BB480000EF4F0000715000008351000065
:10458000D351000013520000855200002C2E002051
:10459000FC0800000080FFFF7F0003008303000091
:1045A0008A4D1998285830F0D1FC102801D201F01A
:1045B00014FC8A79CB791B029A188F183C460C346C
:1045C000A17B4A0011461031814201D901F005FC5E
:1045D00026460F36B25C52005118814201D901F0D3
:1045E000FCFBE07A002803D0F12801D201F0D9FFCA
:1045F000822115982AF0AEFD02F031FA062E00D97C
:1046000022E1B00002A108588746C0460304180002
:10461000A3520000475300004146000041460000FD
:10462000DD53000095540000435500007F002BE04F
:10463000FF0F0000F10F0000EB7FFFFFE07FFFFFA7
:10464000624D199C28591A9BC01830F009FE01D8F8
:1046500001F0C3FB30F032FD139031460D312AA832
:1046600031F078FC0F362021159C2046169124F05D
:1046700057FB0746401C1890199828581A9940185B
:104680000079C01EC1B2304625F0B0F91A9000285A
:104690000BD1189930F0D1FF53A925F01BFC00284D
:1046A00001D101F09DFB159C484D3E78042131F06D
:1046B00097FC074613983870B9208300E85A2AA956
:1046C0000988884201D000F07AFF00200246787005
:1046D0001899087A497A09020818032801D101F0CB
:1046E000FBFA0228154601D001F002FB129317983D
:1046F000800217900D21159824F0EEFD05463448F0
:1047000032490C1802221392284621461994314B43
:104710009847A078A870E81C2F492C4A5118139C80
:1047200022462C4B98472B4B199840796871A81D4D
:104730002A4A264989182246984728460830284997
:10474000224A51182246234B9847224B28460A30CA
:1047500024491E4A5118224698471998007B28730D
:104760001A4A1498105A179908420DD11B4B1E482B
:10477000105C800602D51A981C3005D01298115A88
:10478000D25A15982EF09CF9184D01F0B1FA18483C
:104790003018062801D902F066F9800001A10858F6
:1047A0008746C046C1470000C1470000414A00009B
:1047B000454A0000614A00004148000041480000AD
:1047C00015982BF055FD41E1140700002C2E002018
:1047D000E407000041410300E7070000EA0700008A
:1047E000EC070000EE070000160500000280000044
:1047F0000080FFFFFC4AB218152A01D902F033F9F4
:10480000012393406F24234200D023E1042AF74D73
:104810001A9B00D132E1152A00D194E002F023F96D
:10482000F24830F02DF90B2901D202F01CF930F0DA
:10483000E7FC927D0B328A4200D8A0E502F013F922
:1048400015982DF013FC01E1152E36D1E749199882
:10485000085830F05FFB46182021159C20461A911D
:1048600024F05EFA054600781990307B18900D36DA
:1048700053AF0222384631F04DFCFD48FB49085A3F
:1048800039880140398001D100F008FD042131F060
:10489000A7FB1899017000214170801C53A931F0C9
:1048A00059FB6878A97809020A181A9819990140E1
:1048B0004B09F048214601F0DBFFB978FA78120283
:1048C0005118ED4A914201D902F0CDF8C1B21598C4
:1048D0002BF011FD02F0C3F8E44830F0D1F80529BF
:1048E00001D202F0C0F830F08BFC137C002B00D119
:1048F000B0E00C3200270524002B01D101F06FFB42
:1049000027460C378F4201D902F0ADF81719FF7A0C
:10491000032F05D0012F01D002F0A5F80E3400E0DE
:1049200015348C4201D902F09EF85B1E2F46E3E756
:10493000CE48199940581A99401830F0E7FE0328DC
:1049400001D802F090F831F029F9C84930F086F822
:10495000042A01D202F087F830F004FC8A7852066B
:10496000C24B05D54278807800028018C34A98521D
:104970000878F921C900595C884201D002F073F827
:10498000BF48BA490858002801D102F06CF81599BF
:1049900001F035FFB548199940581A99401830F080
:1049A000B5FE012856D802F05EF8B0481999405873
:1049B0001A9930F0D0FB427B842A4BD0002A01D0D8
:1049C00002F051F830F0CEFC052901D202F04BF88C
:1049D0000C30007916224243501D88423AD902F029
:1049E00042F8A248199940581A99401830F08EFEA2
:1049F00002282FD0032801D202F035F801D102F0AD
:104A000032F8C00726D102F02EF89848199940587C
:104A10001A99401830F024FC1CD0032901D202F06E
:104A200022F88279C3791B029A1880180C30801CF6
:104A3000891EC9B224F0DAFF00280BD002F013F867
:104A4000112100E00221159827F0FAF8002801D181
:104A500002F009F81BA915980FF05EFC01F0FFFFAA
:104A600015982DF003FB002801D101F0FCFF7F4DCC
:104A7000199828581A9BC11830F074FCC01830F0EF
:104A8000ABFC8418207C491F0023814201D001F037
:104A9000E8FF0028159E1CD0082801D201F0E1FF94
:104AA0000C34E17A4A0016460836864201D901F0F4
:104AB000D8FF21460C318D5C6F00F6198642159E99
:104AC00001D001F0CEFF20460D302BF0E3FA257324
:104AD000664D892000012A58002A06D069493046CF
:104AE0009047002801D101F05AFD304621F014FA18
:104AF0004342434101F0B5FF0021159811F0C2FA7D
:104B000001F0ADFF2024159E304631F0D0F8054667
:104B1000C0782979090208185749884201D901F05B
:104B20009BFF28780007800F01D001F095FF68787F
:104B3000A9780902081818904C48199940581A99F0
:104B400030F009FB027B1A920A79497909028A1826
:104B50008027022A01D201F080FE0C30411C501E39
:104B6000C2B2032029F01AF9002801D101F075FE24
:104B700053A929F011FF002801D001F06EFE53A8BF
:104B80000678471C002E01D101F065FE38462AF058
:104B90004DFD761E0837F5E73448199940581A99A3
:104BA000401830F09FFD012901D801F016F930F0CE
:104BB00063FB20211598189124F0B2F80178169122
:104BC00045788678207B1A9030F058FF617B1991E8
:104BD000884201D800F091FD30F050FF1999401A39
:104BE000C4B200F08BFDC0460080FFFF2C2E0020D9
:104BF0002024159D284631F05AF81C492FF02EFF2D
:104C0000012A01D802F05BF8421C30F061FD1A4B1A
:104C10009A4201D901F0E1F806780C22324001D025
:104C200001F0DBF84278807800028018189030F0AC
:104C300054FD09180F7B0D3153A831F0F7F9052108
:104C4000159D31F041F8077084214170074819998A
:104C500040581A99401830F045FDC91E30F022FE28
:104C600026407309084801F095FCC0462C2E002010
:104C7000EC07000015800000F7FF0000760200003E
:104C8000C40700000480000032800000ED4819993C
:104C900040581A99441830F0E4FC012801D801F07A
:104CA0009CF8A579E67920211598129124F038F81E
:104CB00030F097FBE44A914201D901F08EF8027876
:104CC0000C21114001D001F088F8119231024919EC
:104CD00061184F7BDD4BDB4AD25CD41B0025BA4206
:104CE00000D22C460E7B032C00D30324401C1090D2
:104CF0001520139060430F90411D31F0FFF80670AE
:104D00002A464570CF49D14BC95C8170C770047188
:104D1000451DE01914901346F8B21499814201D848
:104D200000F06CFD169317921897A721C900C54A89
:104D30005718F968C6008819C4795D20C000111899
:104D4000082231F0D7F9B86803216143405C28722A
:104D5000B868401841788078A8726972F86880193C
:104D60008079E87203280DD00128189F169B18D16E
:104D7000B448B7494058801901794079687329735C
:104D80000E230EE028460C30AE4CB14FE159891984
:104D9000097925F061F8E059801940792875139B4D
:104DA000189FED18179AD2187F1CB5E7A54C199FCC
:104DB000E0591A9E80198179C2791202511845185A
:104DC00020211598169123F0ABFF0246007814902D
:104DD0001895294615460D3153A809222FF0B0F930
:104DE000E059801930F092FC0A2801D200F0F5FF5A
:104DF0006F1CB878F978090208189649884201D3DF
:104E000000F0EBFFA87BE97B090208182FF0C6FE33
:104E1000002801D000F0E1FF5D20C000201853A958
:104E200031F02CF80028179905D08B4953A831F0A0
:104E300025F8414241411A91A87BE97B09020C18EF
:104E4000687D1990844953A8082216462EF0B8FBB5
:104E5000139020462DF0DAF80446454245410028DB
:104E6000189A01D101F02FFC7B4953A831F006F8C4
:104E7000002811D0794953A831F000F800280BD050
:104E800053A87DA930F084F9002805D17DA80078C9
:104E900000212AAA21F040FE611E2046884161427D
:104EA00061411A9E3140002C01D07B22D443189AD4
:104EB000012901D100F091FF01F00FFC002553956D
:104EC00060481999405830F025F8471830F066FED0
:104ED0001890387B1690787CFE2800D173E3FF2869
:104EE000179E00D073E309226FE30620C4435548A0
:104EF0001999405830F00EF8451830F04FFE024630
:104F00002B7B687BA61D002802D00B2800D866E307
:104F10001598002801D101F0A2FD501C8178C278BB
:104F200012025118484A914201D900F056FF017807
:104F30004078000244182A2115981D4623F0F0FEFF
:104F40002B4600212A2901D100F099FD30F0CEFC3A
:104F5000F8E72027159E304630F0DEFE0346394D37
:104F6000199828582FF0F2FF0122022810461893B2
:104F70001A9201D201F048F9081D30F08AF8384B36
:104F8000EA540D310078401EC4B21E20224628F09B
:104F900005FF002801D100F07EFD41788A1C002128
:104FA000A2420B4601D301F01EF982782D4D25490E
:104FB0004A5551000B1D641E0021A3420B4601D32C
:104FC00001F011F9169728491E4B5C18C71C0026E2
:104FD000D0B2864201D301F000F90422204631F01C
:104FE00095F83F1D761C1748425D241DF0E72021EF
:104FF000159E31F081F830F0F4F9134A914201D94D
:1050000001F02AFD0178890601D401F025FD4178DF
:105010008078000244180B48199940581A99401892
:105020008179C279120251184018057B30F092FD47
:1050300005708D2141700D4831462246179B01F0C5
:1050400017FCC0462C2E0020F7FF00003905000099
:1050500044050000F8FF0000489703004097030054
:1050600004090000090900000C090000428000004A
:105070002021159E3046169123F052FE04464178B9
:105080008278FB48FB4B1B580127F80218400AD1D5
:10509000631C9E78DB781B029B19F74EB342159E6A
:1050A00001D301F0D9FC120251181891F149199A53
:1050B00089581A9A89188A79CB791B029A188A1802
:1050C000137B002806D1189800287ED1607DC00788
:1050D000C00D7AD0139414930C32541C0879401EDE
:1050E000C6B22AAA204631462EF098F8D6211A9048
:1050F0000028129114D12AA81990018839404842F9
:10510000484128F075FE199F38882840400828F04B
:10511000C9F9388804210140880826F0F5FC0021EF
:10512000119153AA204631462EF089F81990002893
:1051300004D1539823F0A6FA002012907DAA2046AD
:1051400031462DF053FF0746002801D100F028FD1D
:1051500078427841199A514251411A9A002A179B74
:105160001A46139C00D00A46002A194600D101466F
:10517000D6201090012901D100F019FD802600F001
:1051800019FD2024159E304630F091FD30F029F9AC
:10519000B94A914201D301F05FFC41788278120252
:1051A00051181891B34F199979581A9A8A1830F0F2
:1051B0003FF80D7BB14BFB5C1B0701D500F01BFFDB
:1051C000189B002B01D100F010FF8D213046FFF716
:1051D0007FFB30F0E3FC30F004F9A94A914201D999
:1051E00001F03DFC00781890A24C199EA0591A9924
:1051F0002FF0B1FF0D300979491EC9B200252A46AA
:1052000022F0A2F8002801D100F048FC802301F030
:105210009BFA2021159C30F069FF30F0E2F8964AA5
:1052200091423BD2411C0A78497809028918914A77
:1052300034D19249515C090703D4407DC007C00DA9
:105240002CD0199810581A994018017942791202F5
:1052500052188024022A11D330F017FA41180D3168
:10526000501EC2B2042028F099FD002806D053A990
:1052700029F092FB002801D101F01CFB1598214672
:10528000FFF726FB2021159C30F030FF4178807815
:10529000000245187A48854200D87AE1204601F09C
:1052A000DCFB78493EA801807249199808581A9980
:1052B000401830F017FA0A2901D800F08EFD2FF0BF
:1052C0005AFE16900D31704C2AAF0A223846A0477C
:1052D0007DA808221A923946A0472024159E304600
:1052E00030F0E5FC014653AD284619942246664B42
:1052F0009847287817900C213046149122F09EFC94
:1053000005465D20C0005B490C46081839461A9ACC
:105310002EF056F9002801D100F018FC2AA846A961
:105320002DF05AFF002801D000F019FC46980078B3
:1053300006210140042901D000F011FC2AA82DF01B
:10534000C5FD00F006FC4B4D199EA8591A9FC019C7
:1053500030F0DCF9042801D800F03FFD4B494A4CFD
:105360002AA80822A047A859C0192FF004FE1790B8
:105370000D3146AD04222846A0472024159E304614
:1053800030F095FC014653AF38461A9422463E4C05
:10539000A047387819903EAF022238462946A047E8
:1053A0000C21304622F04AFC0546B92080003149E4
:1053B000085A3F88B84200D035E246A88678022EC7
:1053C00001D200F0AEFC199F5D20C00029490918E8
:1053D0002AA830F035FD8021159E39E2254919981B
:1053E00008581A9940180179427912025118032974
:1053F00001D800F0F2FC2FF05AFE0D3053902AAD88
:1054000053A928462FF0B0FB539804782021159F0C
:105410003846199123F084FC017817912FF0D2FFC0
:1054200018900521384622F009FC07460670002630
:105430000671B92080000F49085A2988884200D097
:105440001CE2002C01D100F073FE1148094A105CE7
:10545000412149015118002801D100F057FC04C92D
:1054600013789C4200D03246401E1646F3E7C046F1
:10547000140500002C2E0020F8FF00001505000088
:10548000F7FF0000FFFF00004141030040970300C9
:1054900034080000FB49199808581A9940182FF051
:1054A000DFFE01D800F099FC2FF065FD18900D315A
:1054B000F54B2AAD022628463246984720241598F7
:1054C00030F0F5FB014653AF38461A942246FC4CA7
:1054D000A047387819907DAF384629463246A04714
:1054E000B9208000F5490E5A38882D88864200D0B0
:1054F000CCE18127AE4200D0C9E1F24DEF4C605DB6
:10550000002801D101F048F8401DC1B230F0F6FC8E
:105510001899017000274770801C31462FF00AFA55
:10552000615D0170412149016118401C1A9CE34AE8
:10553000525D974200D3B7E104C91278C2557F1C6F
:10554000F5E72021159E30460E9123F0E9FB411C22
:10555000189100780D900020D84B052803D02AA977
:1055600030F06CF9F9E7199818582FF0EFFC07287C
:1055700001D201F071FA8A79CB791B029A188F183F
:10558000797C831F4A00511C8B4200D2A6E1002186
:10559000A5E1CA48199940581A9940182FF06CFE95
:1055A0000079401E277B0D3430F0D0F90028189583
:1055B00000D18EE21C3000D189E3282088E38020CE
:1055C0007870002594E30722179E354623E30628CA
:1055D00000D20125062800D21CE306221BE3169206
:1055E00018938200931CB549199C09591A9C0919F2
:1055F0000C79497909020C19A34200D9EDE3294637
:105600000E318F5CFF2F00D1131DFE2F01D103231C
:105610001343A34200D9E0E38A18541CFE2F01D0A3
:1056200000F0CDFF0128189B169A00D070E4257871
:1056300053A830F057FB539E304628F0B7FE0028A1
:1056400000D1CAE3700100D1C7E33046294623F0F8
:10565000EFFB01F0E2F90622D7431A9A80182FF0E7
:10566000BBFE8218537B922B00D171E3B81D70E30F
:105670002021159E30F040FD0178890604D52FF0D9
:10568000A1FE01D100F0BCFE9120C0008B4908189A
:1056900030F054FC04468C48844201D101F0DCF91E
:1056A00020462EF0C1F9014653AD2C2230F022FDE8
:1056B000288DC00501D401F0CFF953AD284618302C
:1056C0002AA930F087FB5D980821C943F8390140C9
:1056D00029852846214621F02FF801F0BDF91A9AB4
:1056E00080182FF079FE851800244F941C946A7B53
:1056F000002A00D066E3104665E300243002032C44
:1057000000D303244019149016206043411D30F04B
:10571000F5FB07461A98387000257D7030F0AEF919
:105720002B46B870199AFA703C717E1D1799C807FC
:1057300059D0200657D0E3208500604840590078B2
:105740000021C007F3D0D8B2904249D317938920E3
:1057500080005A490918082230F0DCFA3046083037
:10576000564949598A7953A926F092FC534B5398CC
:105770003074000A7074B07CFC210140B174595936
:1057800009784907890F8C2202408818B07459594A
:1057900049784907490E0918B17458590278F3201D
:1057A0000840510707D404210843B0745859417B7D
:1057B0000120084007E0B0745959497BC907490FD7
:1057C0000143B1740020F074585900784006000F6E
:1057D00030755859C0787075641E1636199A179B23
:1057E0005B1C0021A3E71A9838701898169901409D
:1057F0004B0936481599149A01F03AF8D0B20F992E
:10580000814207D9401A2D492FF028F91018087144
:10581000000A487110992FF0CFFE1298119901409B
:105820004B092B486FE27DA938462DF0E6FC002895
:1058300006D17D98007806210140042900D1BCE5FD
:1058400018980007800F01D001F006F9199F8121F7
:105850001A9C179828706970A81C2AA930F0F0FAD1
:105860000A353EA9022230F045FC53A841788078E1
:105870000002421827407B0916488EE1802078708C
:1058800000F09DFC2C2E00204141030080271A9C33
:10589000052130F033FB189901704770801C2946B0
:1058A0002FF048F80021017053A841788078000259
:1058B0004218199820404309074824E22C2E002062
:1058C0004141030034080000FFFF00003180000068
:1058D00033800000018000000580000001213C466B
:1058E0001234A35C0625ED43AA1A10185A00904200
:1058F000179800D30846012801D101F0ADF80C3704
:1059000038780990791C53ADA81C022630F028FA8B
:10591000F91C281D30F024FA7F79AF717E00A05D5C
:10592000E8710546189908780890487807908878B3
:105930000B90C8780A90E8194006010E159823F0DC
:10594000EFF93A46002F1697139004D021462DF018
:10595000A5F9169A0446002D2F46FA4D06D0611C73
:10596000139880193A462DF099F9169A1897B9208C
:1059700080000590285A53A949880C91884205D087
:10598000F1480C99814201D800F0AFFCEF482C5C43
:1059900053A8808811901398801912900020064611
:1059A00006901A9015980F94A64201D100F0A2FC1F
:1059B000B1006B18412149015D586B78A978090243
:1059C000C918119B994202D0FA498B4254D11096C2
:1059D000A87919900023184619998B4221D2C10742
:1059E0001FD1149359006E1808360024139F944257
:1059F00014D2C10712D1317873781B0259183B8831
:105A0000994208D12A781A98C1B22AA82BF0A8FE88
:105A1000169A1A901798641CBF1CE8E7149B5B1C2D
:105A2000DAE7E9791491002614998E4221D2C10750
:105A30001FD10027129C18998F4218D2C10716D186
:105A400019997118490069180B7A497A0902C9181D
:105A50002388994208D12A781A98C1B22AA82BF033
:105A60007FFE169A1A9017987F1CA41CE3E7761CF9
:105A7000DAE715980F9C109E761CCD4D94E7711EA9
:105A80008E41F10141700370C484282101224254E7
:105A9000159800F0F6FF00210B46A4E3C6482058F5
:105AA000817A8623022901D900F04EFEC34AA25C06
:105AB000CA40D10701D100F047FEC149BC4A515A42
:105AC0000022490701D500F038FE179D134600F06B
:105AD0003BFE21202146324628F060F90646002090
:105AE0001790002E00D1F5E3B11C7DAC08252046AF
:105AF00030F03AF90A3646A8314630F035F902213D
:105B0000204625F0CDFF002801D100F098FC064684
:105B100005462835687800020024000513D40120CA
:105B2000C00217907DA830F009FA01462820325CA7
:105B30006B781B029A18179B1A433254100A68702C
:105B4000304620F0F9FD159D00F07CFCB920800066
:105B5000205A3EA908809749884200D05FE11898F2
:105B60000007800F01D000F077FF179F812416985F
:105B700028706C70A81C7DA930F062F90A353EA926
:105B8000022230F0B7FA53A8417880780002421818
:105B9000199807407B090120C003314600F068FED8
:105BA0007DA8008829F086FE00201090139C30F01C
:105BB000DFF900261A98454245412478022130F049
:105BC0009DF91499017046701998002800D16D1C38
:105BD000002F159E00D16D1C002D01D100F00BFC93
:105BE000022130F06DFA002101706900417001213D
:105BF00030F066FA002800D1FDE305701A980028FD
:105C000000D169E31998002800D1E2E3002F00D009
:105C1000F1E3EBE307226648199940581A994018B6
:105C2000017940790002431800209A42314600D899
:105C300001469A4200D906461A913C460C340D376B
:105C40002E40012E1392129307D1A01D149053A839
:105C5000042230F05BFA539800E0149718994F1C17
:105C60000621CD43199028F0A1FBAD1D002E2AD0AE
:105C70006279FE2A1799159E00D1014601291998CB
:105C800001D000F0D0FE1F21CC060646A6431AD054
:105C90001897B9218B004649CB18197C59188F7B6E
:105CA000C10E8F4201D000F0C5FDFF2A01D100F0E6
:105CB000ADFDFE2A01D000F0C1FD1499097823F052
:105CC000B7F800F0B6FD1A9A159E00F0ADFE292037
:105CD000C443159D0026B5E32C4602251598294698
:105CE00023F0FAFAE549611830F03EF8E448451C23
:105CF000B81C2AA930F02EF918992FF05DFC1698DF
:105D000006407309A8B2159900F0B2FD002E00D02C
:105D100011E2002C03D0FF2C01D000F0B5FD822051
:105D2000ADE52AA9384624F0D5F8002800D143E390
:105D30000020159E082800D182E52AA92FF056FEE2
:105D4000F8E7C0462C2E0020F7FF000034080000C2
:105D5000F81C002B72D00025011D00D1FEE20028A6
:105D600000D09EE0002D01D100F085FD28462830AE
:105D70002826A95D407800024018C10501D500F031
:105D800086FD2946183153AC102230F04DF9A85D3C
:105D90008006400F0022032100AB17C3049220A805
:105DA0001CA9012316F088FF159C014D00F0F6FE9A
:105DB0002C2E0020FFFF00003C09000034090000E9
:105DC00004050000E0438E1E0E35002A03D1F1B217
:105DD000284623F00BFE002872D0159800F03DFEF7
:105DE00053A82FF075FF002801D1FEF75CFC024696
:105DF00028322823C15C567836027618310501D541
:105E0000FEF751FC0121CC029E499F4D695C26435F
:105E1000C654330A537020F08FFCFEF744FC2AA8C6
:105E2000007A022800D2B1E2189814990840082894
:105E300001D100F011FE179F802498E60C32951CCA
:105E4000881E2FF08FFD00282BD190498E48445892
:105E500001201A902946324627F0A0FF05464078D7
:105E6000401CC0B228281CD3002D1AD04C34A91CC9
:105E700020A8199008262FF073FF0A35202220460B
:105E8000294617922EF05CF99120C4007E48001933
:105E90001890199932462DF093FB002801D100F09B
:105EA00086FE7A4C784D295900221598E02A02D0B6
:105EB0002FF000FDFAE72A59FF21517000F0CDFDC7
:105EC000F2B2222029461A9227F068FF002884D0D7
:105ED0000746811C7DA819900826324618966C4BFF
:105EE000984739460A3146A83246694B98473946A1
:105EF00012314FA804263246654B98473946163171
:105F00001CA83246624EB0471A373EA83946189A46
:105F1000B04702261998314625F0C2FD002800D16D
:105F20005BE707462C942B942A942AA8199017967D
:105F300006460836222029461A9A27F02FFF189085
:105F40007DA908221A92199D2846514B98471CA9F1
:105F50000422169230464E4B98471798287322AE6B
:105F60004FA93046169A4A4B9847083753AD10222E
:105F700028463946464B984722982DF0D1F922AE53
:105F80000096162328461999189A29F097FB3EA9DE
:105F900030461A9A2DF014FB002800D01DE77DA88A
:105FA0002FF0CCFF4F993B4A374EB35800011B18D6
:105FB0000D0EDD710D0C9D710D0A5D711971B158D9
:105FC0000818C17A0906344A521C0A43110EC172DC
:105FD000324834543248214630F094F8FDE6FA074E
:105FE00001D0FEF7CCF900F03EFD437DDB07DB0D71
:105FF00001D1FFF7EAF80C314F78402F01D900F0BA
:106000002BFD2FF0BEF9921EBA4201D200F024FD02
:106010001A94891C0078199053AC204630F068F827
:106020002FF098FD0570002646702046002F00D105
:1060300049E104460578282029462EF005F929383B
:1060400009286BD8800001A10858874675600000B8
:10605000A5600000B5600000C56000001D61000083
:106060001D610000D76000001D6100001D6100007F
:10607000EB60000015982CF0AFFD4FE0F107000039
:106080000280FFFFB50400002C2E00203C09000018
:1060900041410300E4040000FFFFFF072A05000060
:1060A000AD4903002A212FF087FF002836D01721A1
:1060B000490104E02B212FF07FFF8D218900ED4A5B
:1060C000511828E02C212FF077FF23210901E94AFC
:1060D0005118042220E0B9208000E64A115AE6480F
:1060E000125A15982CF0ECFC18E0E248E349415CA8
:1060F00001200840490700D5801C2AA90880DD49F5
:10610000149A895CC90702D0001D2AA9088032218F
:106110002FF052FF2AA902222EF012F82A2DD5497B
:1061200002D1172040010E522046601C7F1E7DE7E1
:10613000D348D0490E18B079F179081840000830DA
:1061400000257D7016973871C1B2159823F0C4F8F8
:10615000074608222FF0DEFFB079B871F079FC1DF8
:106160001A97F87153A9087037460837B0798542F5
:1061700007D2022220462FF0C9FF6D1CBF1CA41CB1
:10618000F4E70446169FE1B2C0B2F27910188842D3
:106190000DD9E8B240001A9A101808304900711859
:1061A00008312FF0D7FE6D1C641CB079EBE71A990B
:1061B000887940000818C01D53A92FF037FF159C9F
:1061C000199D189EB81C2AA92FF0C4FE17982840C4
:1061D0004309AC48214632464AE338780121014060
:1061E000179B159E169FA848A24A105C4242424146
:1061F00013424DD1002B4BD0002901D0042000E0E8
:1062000001209C4D1A9A189B16979C496C18A272F3
:1062100059789A7812025118E18019788906C90FC5
:106220006172E07200202073062730462FF074FD63
:10623000217B964AAA182EF075FD1F22D2060B4626
:10624000934301700A0C8270090A4170190EC170E3
:10625000E17A41718E482C5C1A9804405F20C0009E
:10626000285C45424541002C00D1179D159E3046C3
:106270002FF052FD002C169F0AD0002D08D0407937
:10628000012805D18348002231462CF069F8E6E365
:10629000189A5078917809020D1814782FF05AFC4A
:1062A0007D49744A525C521CD3B2FF2B00D10022AC
:1062B000704B5A540270802141703C40630977480A
:1062C00031462A46D4E21A98199901404B0974487C
:1062D0001599CCE2D624B3E032213046119A2CF045
:1062E00017FC002800D086E08CE480200690002077
:1062F0001A9015981A99002907D10A9909020B9A40
:106300008918684A914200D9A7E307990902089AB7
:106310008D181A99491D21F091FC064661480C9A86
:10632000824205D953480599405A7DA9088001E069
:106330007DA90A80B01C2FF00DFE099830701A9AC2
:106340003271701D2AA92DF0FBFE069870700E9810
:106350000D9901404B0954481599B2E70421159C49
:106360002FF0C4FE002101805049424B59588978D2
:1063700001220A40827003D04D49595C2BF056FD32
:106380004C48A5214A002FF0B9FE68E3179F00246E
:10639000012801D0FFF7EBFB01212FF091FEE32153
:1063A0008900344A5158097807220A40511F4A424D
:1063B0004A410270FFF7DBFB199F012E1A9C00D0A7
:1063C00020E20121159E2FF07BFE00210170FFF7D6
:1063D00040FA781E87412C213046129A2CF098FB07
:1063E0000028179800D13846002804D12B213046C8
:1063F000109A2CF08DFB1698044063092E4835E264
:106400001C48199940581A9940182EF035FF0E343F
:106410000079801EC5B22046294623F0E7FA0028FD
:1064200000D019E32D2021462FF0B8FD002800D11F
:1064300012E3811C2AA82FF0CDFCFFF725F9862452
:10644000159D179E02212FF03FFC07704470200617
:1064500000D09DE017967DA8022631462CF048FD1D
:1064600013900020034B0D2828D02AA92FF0E6F91D
:10647000F9E7C0462C2E0020EA070000FC080000C7
:10648000F307000004800000090900000C09000067
:106490000C05000005D60200440700003C80000007
:1064A00044800000F7FF0000068000003C09000067
:1064B000FA0200003D3B0200438000005D20C00066
:1064C00019181691F94C1F462AAD08221492284635
:1064D000A047F74978580C463B4613990F01C0195D
:1064E000817BC27B1202511812912C912E73491C90
:1064F0008173090AC1731859C1193EAE042213925F
:106500003046EA4CA0471799083153AD102228466F
:10651000A0473E982CF004FFFB48FA494058C119A7
:10652000C05D2EF00DF93E90129822902221159D0B
:1065300028462AF0DBFE04461699149F3A46F04E90
:10654000B0472046083046A93A46B04720461030AA
:106550003EA9139F3A46B0472046143022A93A4636
:10656000B04718340020082802D02FF043F9FAE78A
:10657000E54E199830582EF0CDFC42180E3200949A
:1065800053A82AA9162329F099F8E520C00035540C
:10659000DE48002329466AE13546FFF778F90123F2
:1065A0005FE2DB4829462D5C002D00D111E2D9487D
:1065B000085C002800D16BE28521FEF71AF8FF2F56
:1065C00000D112E2052F189B169A01D9FEF7A0FC04
:1065D000012801D0FEF79CFC267853A82FF082FBFF
:1065E00053991798009015983A4633461FF002F9D0
:1065F000169A189B0646002801D0FEF789FC2EE269
:106600007DAA284621462CF047FA1F20294622461B
:1066100027F0C4FB002801D1FDF730FF41780329A2
:1066200001D2FDF72BFF81782AAA1170C178517031
:10663000017991704079D0703821159826F05AFB75
:106640001790B148199940581A9940182EF020FE19
:1066500046312020224627F0A1FB002801D1FDF77A
:106660000DFF16904078032801D2FDF707FF179819
:10667000801C169DA91C2FF06DFC287917990871B4
:10668000687948716978C91E032242439142159D79
:1066900001D0FDF7F4FE16998E1D179D09350027D0
:1066A000092F00D9D6E2C0B2874200D3D2E2E81E59
:1066B00002222FF02FFDB07828707F1C17984079A8
:1066C0006D1DF61CECE790489349405C000700D52F
:1066D00038E100200446179D1A9E0C32002E17D078
:1066E0008E49894D695C890701D4FFF776FB164610
:1066F000002800D05BE153A8007AC00988496A5C91
:10670000FE231340181868548648159929544EE101
:10671000164617957720C1007B4B5A5C7520C00048
:1067200018180023042B00D122E101259D401542B9
:1067300000D11FE15B1C001DF4E7C07AFF28179D04
:10674000134601D18B2300256F4880591A994018B0
:106750002EF08CFD077B0221159C20461A911E46C7
:1067600021F06CFA07702F464670002D0ED06E484F
:1067700065490858867AC77A002120462AF0B6FD76
:10678000067047702F46801C2DF012FA1D212FF045
:10679000ADFC054600201D2802D02FF057F8FAE77F
:1067A0000020687028701A98E8736048433080268B
:1067B000EE72A872287C042101432974189880067F
:1067C0000DD45B485049095C53A82BF02FFB287C63
:1067D0003043287453986875000AA87508E0524839
:1067E000494908582EF0F7FE287C012101432974FD
:1067F0001599002F02D04F48434A11544E4827F0B4
:106800003DFF2CE10021159EFFF723F82AAD284615
:106810002DF018F92A98204080192A901498411CCC
:106820007DAE2FF068F9781C3288C0B2294623F07B
:106830005DF905461A9A159E189FF5E0052A159EE2
:10684000189F00D9EEE000201399129B994200D9BD
:106850006BE104466AE10027159E2D782FF07AF946
:106860001A990170477025406B0934483146189ACF
:1068700026F0A0F8F3E02C48234D2858C07AFF28D2
:1068800000D101E1032000E18320FEF7F8FF80063C
:10689000400F25491C4D69588A7A002A00D141E1F0
:1068A000C97AFF2900D16CE103216BE1414103006A
:1068B000E404000053A80678002E01D1FEF7DEFCA8
:1068C00053A8451C0620C043801D1A903746002F50
:1068D00000D13CE15D20C0000B4908182FF02EF9D3
:1068E000002801D1FEF7CAFC0822284614492CF0E2
:1068F00067FE002801D000201A907F1E0835E6E7C9
:1069000041410300E40400002C2E002047800000D9
:10691000380800005E080000FC080000D5070000F1
:10692000B9030000250700003C0900000280FFFFBA
:10693000FA02000026070000E15001002B80000051
:10694000409703001998C007C10D53A8002900D033
:10695000BFE61399002900D1BBE68057002800D577
:10696000B7E601201A99484001D1FEF77DFAB0E65A
:106970008A241CE0179B002B19D02A43F04B5A5451
:106980003178C17039787A78120251180180159ED9
:10699000867009212FF0B0FB044653AD08222FF07A
:1069A00084F9287AC0092072E648314627E7022197
:1069B000159D2FF089F93178017044703878797815
:1069C00009020A181698149901404B09DE48294615
:1069D0004EE7159C0C54DD48085C42224243DC48DB
:1069E0002FF08CFB2FF04CFA39E026460C352AA804
:1069F0002FF078F900246878844205D253A82AA998
:106A00002FF070F9641CF6E7711C7DAE2FF073F85F
:106A10006878328853A923F069F80646189B169ABD
:106A2000FEF776FA00251A9AB878F978090208185C
:106A3000C84988420ED8002A0CD1387879780902E2
:106A40000C182A212FF058FB00212A2911D02EF0F2
:106A50004DFFFAE7002E02D0304620F013FD1BA8B0
:106A60000378002B02D1159820F00CFD7FB006B002
:106A7000F0BD691E8D41E901417016990170C48411
:106A8000304626F01DFAEAE70220159C00217BE043
:106A9000AF48FE2100221A9219F0ACFE681E199927
:106AA000A74A5158C0B2169A42432EF046FB287EA0
:106AB000697E09020818217B627B12025118884204
:106AC00004D0A54A904201D0914229D114950C35A9
:106AD0002A460F32A87B4100501816901992A37BCA
:106AE00058001890301817901698401C1690525C59
:106AF000009300201699334622F038FD1695AA7BA4
:106B00001798431C1898305C00900120199922F0C6
:106B10002DFD92488A4A105C9149515C01435CD139
:106B2000862479E00021159C2EE0012414990B782D
:106B30000090304619991EF05DFE0546002800D0F1
:106B40001794002D179A00D06EE72E466CE71A981E
:106B5000002801D0FEF792FB53A8441C814D002E63
:106B600075D00822204629462CF02AFD002805D0A1
:106B700020462AF081FF204628F058FD761E083472
:106B8000EDE70221159CF74D0123002200AE07C658
:106B90000392049320A81CA916F08EF8F3482858F5
:106BA00002214170FD482C54FD48214627E6ED485E
:106BB000EE494658B078C0073DD120A8FF212CF0FF
:106BC00097F9E949884201D1FFF76BF92CF02CFFC6
:106BD0000546E448E54946582EE00D3714990D3135
:106BE000F248E04E301802252FF0BEF81698C07A11
:106BF000EF49705443204001301839462FF0B4F863
:106C0000EC483018E17A817715998176EA482EF0C0
:106C10006FFB002855D08A241598214628F09AFA4F
:106C2000D04DE04EA85D214628F094FA1A99A95556
:106C3000DD48295413E700257078012801D0FFF7BB
:106C400030F9CB48017E002946D1199147E0002454
:106C5000FEF714FBC34D199EA8591A9FC0192EF0B8
:106C600041FD091B891E2EF01DFE0621159822F0FC
:106C700033FBA859C0198179C279120251184518FD
:106C80002C460C34284644302AA92FF02BF87D9846
:106C9000482168544835000A6870002718996770C1
:106CA00021702024159D28462FF001F853A92FF0BC
:106CB0001BFA28461FF030F9002800D1CFE62846FD
:106CC000CBE600241598214628F044FAA548B5499A
:106CD000405C2146FDF78EFCA64850301990B81D47
:106CE000012901D0FFF738F8B17A00270229169759
:106CF00007D0012901D0FFF72FF8102017901A981C
:106D0000169032464C3231468C313EA81A920AF027
:106D10006FFB0C36984899493A46083224D0914A7C
:106D2000D3191A5C5B5C7F1E9A42F5D09A421BD243
:106D30005D20C0008B49091814961A9E1CE0C046BD
:106D40002C2E0020A9160200348000003508000017
:106D50007D300300F7FF0000FFFF00005C0800002B
:106D600082080000409703005D20C0007D4908189C
:106D7000189009191A981490814B2AAF08243846A4
:106D8000224698473846083020221A9214997C4BA4
:106D900098473846283018992246794CA0473846FB
:106DA000303031461A9E3246A047234653AC3EA9A6
:106DB000204632461E46984720462030502239460B
:106DC000B0477034204619991A9AB047169800288F
:106DD0001CD053A8902122AC224622F0C7FE4EA818
:106DE000012101704FA810222EF070FF0020102802
:106DF00000D1A2E04FA9095C5C224A407DAB1A5445
:106E000036224A4053A90A54401CF0E753A8902167
:106E100022AA199225F07EFC4EA81A90012707702D
:106E200059497DA8024658C958C20421417000241E
:106E30007E9427F071FE064654481A992FF058F9AF
:106E40002CF0C2F81A96366853AF40212FF0DCF8C8
:106E500038461999179A2EF0E5FD4A4802683746D8
:106E60002037384621469047002856D153AC484930
:106E700020462DF055FE1A980068402221462AF03F
:106E800055FC002849D131462831202230462EF0C9
:106E9000C9FD53A83F492DF043FE3A48026800213E
:106EA00038469047002838D11A98006853A94022E4
:106EB0002AF03CFC002830D11A980068334901229E
:106EC0002AF034FC002828D11A98066853A93046C5
:106ED00029F0F0FC002820D12A48026830462030F2
:106EE00000219047002818D1304628302024314610
:106EF0002EF0AAFFA5204000B63030621A98006834
:106F000053A922462AF012FC002806D11A980068DC
:106F10001C498A682030204990472BF0A5FA1E4969
:106F200046AC20222FF080F81A9800682CF0E2FC82
:106F30001CA810222EF0CAFE11E053AC20461030DF
:106F40004EA92FF073F87DAE324610321121204643
:106F500022F00CFE20211CAA304622F007FE002061
:106F6000FEF7FAFE2C2E0020FFFF00003C09000077
:106F70002C680020F46A0020EF0200008F0400005B
:106F8000414103007800000FF896030010490020EB
:106F90005C5C5C5C6A6A6A6A9049002027070000B2
:106FA000ADD50200380800005E0800003A08000075
:106FB0003C0800004408000095C80200F0B5FFB08E
:106FC000DCB0B4A82A90B4AEB4AB9DAFB4AC38A8D2
:106FD000DB4DDC496A5CDC49695C520702D40A0774
:106FE00000D5ACE0490701D401F081FD2A991531A3
:106FF0002A91314690312291263619461531289131
:10700000591D27910E33249339464E310E9139463E
:107010004D310D913C3721464E311E9121464D3167
:1070200019913C341A9403213491C90140183390CA
:1070300000202C2805D02918332292012EF0FAFBCB
:10704000F7E74720C14363202B90800037903091B1
:107050004731332080011F90369129500020379905
:10706000814203D038A92EF0E9FBF8E70F97049688
:10707000339836990160B5482F180F2035900026B7
:1070800032963146022E3CD0F4B20025B4AA0C232D
:107090002046294627F0A2FA411C22D0002823D1FD
:1070A000B4A99DAA204627F071FA0146483101D0C3
:1070B00000280FD19DA800880E2810D879880122B9
:1070C0000A437A8038803599884215D2294632960B
:1070D000359012E00F2038803098253004E00F20E2
:1070E00038802DF0A5FB36987A88054601218A4321
:1070F0007A8020462AF02AFF2946761C3F1D904DB3
:10710000C0E7359E0F2E38D090482C180025329FAE
:10711000022D2ED020880F280ED0AF420CD0B042C6
:107120000AD00F2020806088012188436080E8B267
:107130002AF00CFF309947316D1C241DE8E73320FD
:107140008001012129500024E0B2012803D81BF05E
:107150001BFC641CF8E7F04818212950CD200001E1
:1071600000212954774AA85C06210143A95401F063
:10717000B9FC0E2E00D03099714D269173482E180F
:1071800000273697022F30D030880F2802D17F1C7D
:10719000361DF7E7FCB238A9204613F06BFF014615
:1071A00038310FD0411C13D0002814D1339B03CBAE
:1071B0002B9A5201AA1810661878CD231B01E854A7
:1071C000D166E4E70120B840369901433691DEE705
:1071D0002DF02EFBDBE770880121884370800F20A3
:1071E000308020462AF0B2FED1E70020102420286B
:1071F00000D198E00C22424338A989184968C74B4E
:10720000194204D038AB9A181289002A02D1401CC6
:107210000C34ECE7461C880F38A93246BF4F1F2AB2
:1072200008D80B593B4202D09B0F984204D1521C04
:107230000C31F4E7014602E002282FD10221339EEF
:10724000369AD4B22246C240D00715D0C8B202281E
:1072500010D232682B9B5B01EB181A66CD22140109
:107260002955800018186421405A0E2846D118F07C
:1072700035F845E03698C4B2CD2000012A5C0121E2
:1072800008469043C440E2074DD08200AA18A44BA0
:10729000D45A8C43D4522AF059FE44E001461F2EA2
:1072A0001AD838A800599D4A104212D0870FC8B288
:1072B000B8420ED081006918244A8A1853880125E3
:1072C000AB431F4D53800F22204BCA522AF03EFE83
:1072D0003946761C0C34E2E73698C4B2C8B222466E
:1072E000C240D207339EB1D10021379A8A4201D1E0
:1072F00001F000FC38AA2EF0D9FAF6E716F0C8FA29
:1073000000203799814203D038A92EF097FAF8E788
:10731000309847303060285D38A913F0ABFE002864
:1073200001D02DF085FA0749685C022225921043AE
:10733000685400207B4C08280AD02EF05BFAFAE74C
:107340002C2E0020D10C000079040000C40C000099
:10735000B4A8401C2D90B4A8093021909DA85B30A2
:107360000C90B4A801460831179101460C311691D2
:1073700001461431159101462431149101462C31F6
:10738000139101463D3112914F3018909DA801464E
:1073900008310A9101460C310991014614310891D6
:1073A00001462431079101462C31069101463D31B9
:1073B00005914F300B90B4A8801C039000215A48CF
:1073C00028181D90594828181C90594828181B90B7
:1073D00058482818239058482818209057482818AB
:1073E00011905748281810903591202901D101F0AB
:1073F00053FB0C203691484338A90D1869680B4699
:10740000464A1340379301D101F070FA38AA121896
:1074100012893392002A01D101F068FA8A0F329260
:107420009200484B9A18484BD75A0E2F01D901F0B9
:107430005DFA01223192BA404F231B021A4201D158
:1074400001F054FA38AA101840892F903D483F4A5D
:10745000815086183398B0807F20359C2E90044050
:107460001C2C00D914E13198A0403949084200D1C0
:107470000EE1344837494158002906D0369880B289
:107480008847002801D101F031FA601E1E2800D97A
:107490009EE1800001A108588746C046597500004A
:1074A0009F7600007D770000D1770000D177000043
:1074B00001780000BF780000D1770000D778000085
:1074C000E1780000E7780000FD780000D177000047
:1074D0000D790000DD790000D1770000D177000040
:1074E000D1770000817A0000D1770000977A000000
:1074F000D1770000D1770000D1770000D17700006C
:10750000D1770000B37A0000B97A0000D17700008B
:10751000D1770000D37A0000CC0C0000FFFFFF3FC2
:10752000C60C0000544F00207C040000370200000D
:1075300092040000E40C00002A0C0000F40B000090
:107540000A0C00002C2E0020C40C0000DC0C0000F3
:1075500001460018BC0C00002F98042801D100F04F
:107560009AFF0328329D01D100F09BFF022801D031
:1075700001F0BCF99DAC5C26204631462DF094FE0E
:10758000284637992246334626F060FB002801D072
:1075900001F0ACF99DA832900078012137910840A4
:1075A000F74FF84EB95DFE220A401018B8559BAC53
:1075B000042220460A99F44EB0471D9821462BF02C
:1075C00067F90920C0013818082509992A46B047EB
:1075D000329C207802210140EA4BF85CFD220240F7
:1075E0005018F854892080003818319008992A469C
:1075F000B04733469E981026F041B92189007A1889
:1076000033922F917850FF20E04978546078E04918
:1076100078546088DF4978529120C0003818079963
:107620002A461C4698470F980078DB4978541C9DE1
:10763000284606993246A047D748385C2874D74870
:10764000379939541B9805993246A0472DF052FDC1
:107650000D9800783399C8730E98007888730D469A
:107660002B20000138180C220B99A0476D88CC49BB
:107670008D4201D101F025F92F98385A884201D165
:1076800001F01FF9C749785C379A104301F01DF9E2
:10769000BB4AC54BD05CFD210140D154E9E6B4AAF8
:1076A00018232EF014FA002801D001F01FF905204C
:1076B00005020121284624F0F1FB00284AD00446A7
:1076C0000126102329463246B84FB8472CF00FFE4A
:1076D000B4A908222F46339525460C4637912CF045
:1076E0002FFD0023284639463246B04FB847617A0D
:1076F0002C468279C3791B029A18037A407A0002D9
:10770000C01800048018017011232846339F3946A1
:1077100035463246A54EB047B7992CF059F8A44BE0
:10772000B047B6992CF054F8A24BB047379E7189F8
:107730002CF08EFC07204303204639462A469B4DF9
:10774000A847F17D2CF060FCF07D002802D0204697
:1077500020F09CFB2EF01CFA002801D101F0C6F8A5
:1077600020210122944B2DF0A5FB2CF0C0FDB4A9E3
:10777000CA890280497B817001F0B8F80020804DF1
:107780008E4969580A78904200D3B4E14A788B78E0
:107790001B029A18CB7809792DF0B3FF82008A5822
:1077A000917ED37E1B025918137F547F2402E31865
:1077B0001B0459180AD0537E309A18325A43002AB3
:1077C00004D000230B70491C521CF8E7401CD7E77B
:1077D000C92000016A490C180025694878494058B9
:1077E000854201D301F082F82168369886B230468E
:1077F0008847002801D000F029FC6D1C1434ECE708
:10780000B4AA18232EF063F9002801D001F06EF815
:107810002DF046FE0023064621462A46634FB84710
:10782000B4992CF0D9FB2EF065F82B46B847B599E2
:107830002CF0D2FBB598FA213791484328F0A6F8EE
:1078400002233046339621462A46B847B6992CF093
:10785000FFFBB4AF38895B4948435B4940182EF0C1
:10786000A0F945214901464A50502AF029FE032338
:107870002EF040F84D4EB04779892CF0E9FB78891D
:107880003799484328F0B8FF0423339E2EF032F88E
:10789000464FB847B7992CF09FFB05233046214649
:1078A0002A46B847B8992CF097FB06233046214664
:1078B0002A46B847B9992CF0CBFB01F017F8286895
:1078C0002E900020414C2F9E042800D1C8E19DA994
:1078D0002DF0B4FFF8E72B98400129490B58EEE052
:1078E00027483B49EAE0002332983799042B00D11E
:1078F00039E29DAC0022E2545B1CF7E7002004282B
:1079000000D152E29DA92DF099FFF8E72F980128A8
:1079100000D067E3B4AA08232EF0D9F8002801D0DC
:1079200000F0E4FFB4982B4940189B218900144AC9
:1079300050509D208100002050523399C908090100
:10794000814201D100F0D2FFB59A224BD2180C4DE2
:10795000214EAB591C181A54130EE370130CA3706C
:10796000120A6270AA591218002353731373AA598A
:107970001218D37A10241C43D4721030E0E7C046AA
:107980002C2E00207904000041410300FA0200007F
:1079900036020000760200006B0200006A0200005E
:1079A000FFFF000014070000D10C0000B54E0300DB
:1079B00001E0000002E00000FEEF0000AC09000062
:1079C000B80C000090D00300FF3B0000544F002093
:1079D000640C0000FF030000E40400000822239868
:1079E0002EF098FB2F9C022CF54D01D100F0D3FD19
:1079F000012C01D100F07EFD002C01D000F076FFBB
:107A0000B4A898212DF050FC3398982801D000F0AC
:107A10006FFDB4AA98232EF05AF8002801D000F088
:107A200065FF22980378082B01D900F05FFF2298A8
:107A30004078102801D900F059FFA721C900F64A63
:107A400053545118487000200121039A049F984212
:107A500001D300F0B2FF531E1B781524A401EE4E93
:107A600035596D186D1E2B7053781578345966187A
:107A700065547370401C229B1B78C91C121DE6E7DD
:107A800000233298379C042B00D19BE1B4A900223B
:107A9000CA545B1CF7E7B4AA24233298379C2146CA
:107AA00026F09CFD002800D1DBE224F0B2FC00F0BF
:107AB0001DFFD948D94901E0D748D9494358002B7F
:107AC00001D100F013FF32983799339A984700F0AC
:107AD0000DFF2F98002801D000F008FF0023CE4CA6
:107AE00032983799102B01D100F000FCB4AD002280
:107AF000EA545B1CF6E71821339828F05DFC2F90C0
:107B000000212E912F98814201D100F0EFFE31919A
:107B1000B4AA18232DF0DBFF002800D09AE0C1485A
:107B200028580178401CB4AA5278339200252A467E
:107B300091421CD0077844782402E4198778C678EB
:107B40003602F619360434196759BC7EFE7E3602B9
:107B500034193E7F7B7F1B029B191B041B1903D02A
:107B60003B78339CA34204D0521C2D1DE0E70B460A
:107B700000E013468A42A84D64D20178427812028E
:107B800051188278C0782DF0CBFD99004058817E45
:107B9000C27E12025118027F437F1B029A18120400
:107BA0005318417E3020484318180022914206D0D5
:107BB0001C7AE40702D0521C3033F7E718468A4299
:107BC00040D2017A01220A430272B4AA11780170EC
:107BD0005378437053884380B59B0371279E337855
:107BE00074782402E318C380B378F4782402E3188D
:107BF000C385537A03725289028200290BD1B79947
:107C00004182249B19785A78120251189A78DB78AD
:107C10002DF090FD4161B4A9498A024628320185C0
:107C2000B9999170289A2DF0FAFB81851C2124299D
:107C300003D0FF224254491CF9E726F057F92E9849
:107C4000401C2E902E98002802D01DF021FA01E051
:107C500000202E903199379818303790491C51E701
:107C60009DAA042332983799299325F0EFFF074600
:107C7000002803D19D9868496B4A885429F054F82C
:107C800065486A4946521C21002E319100D03021AE
:107C90003398001F002E01D02C223192379A161DE6
:107CA00028F08AFB05462E9860600024204629466D
:107CB00029F069FC5E490870339529461FF0BEFF24
:107CC000224631462E90544C329D3398824201D345
:107CD00000F001FC002F00D0FDE33792B4AA284643
:107CE0000E461CF0C1F90746002837D12C97B4A8DE
:107CF0002BF0DAF84F496258299B3499084001016A
:107D000051180D7A4F7A3F027D198F7ACC7A24026E
:107D1000E419240467193D46474C2540002B04D044
:107D2000002D05D0401C5B1EE7E7002D00D0CEE300
:107D300008313246404B1A401F23DB061F40BB1858
:107D40000A70140C8C70120A4A701A0ECA702E999E
:107D50000870491C2E91304C329D2C9F319831185F
:107D6000379A521CB1E79DAA042325F06FFF002823
:107D7000294C00D1D8E29120C000241808222046C6
:107D80002E492BF01DFC002801D100F0AFFD2BF097
:107D9000A7FB002801D000F0A9FD00210122B4AB0F
:107DA000204611F089FD00F0A1FD00233298379D97
:107DB000082B45D0B4A90022CA545B1CF8E7C04682
:107DC0002C2E0020B4AA0423214626F007FC00280C
:107DD00001D000F08BFD241DB4A801781920860184
:107DE0000D4A91550B20C001151800200746C9B255
:107DF0008F4201D300F07AFD002801D000F076FD1B
:107E00000C23329821462A4626F0E8FB7F1C0C34CE
:107E10000149895D0C35EAE72C2E0020680C000032
:107E20006C0C0000AC090000B2040000B6040000B5
:107E3000544F0020E4040000FFFFFF0748970300B1
:107E40009DAA04242946234625F000FF002801D0DE
:107E500000F04CFD01279DA840780228259800D30A
:107E60002046349909022F9139022991441900269C
:107E7000334635462C979DA80078854201D300F003
:107E800035FD002B01D000F031FDB4AA0823329853
:107E9000214625F0DBFE03462D9800780106490FA8
:107EA000052900D19AE0012909D12D9949780902C3
:107EB00008182F9908402999884200D18EE0319303
:107EC00033963794E3208600FC4A905911246C4382
:107ED000015D39430155B498915909198871B4A8C5
:107EE000007822F0A1FC00280BD0F4488059339E82
:107EF00080190021379C319B11296FD02DF0F6FCA1
:107F0000FAE72D9F3878ED4989590A5D0007400E40
:107F100087231340181808553878E84989590919F2
:107F20004A781202C0001F23DB0213401818000A0F
:107F300048702DF00DFA01462F9A11402C9A5202EA
:107F4000914209D1DD49895909194A7BC006C00F00
:107F5000FE23134018184873D84881590819095D41
:107F60002DF017F84A05520F06D1B499D44AD34BD5
:107F7000995401782DF00DF82D9A52789207520FEE
:107F800006230F469F43BA180B0A4370090C8170F1
:107F90000270B4A8C178C94FBA19BB591B195971DD
:107FA000B95909192E9B0B71516800780D54B59879
:107FB000B9590A19095D53781B02591893781B04A3
:107FC000C918C006800BBF4B19400818010C9170EE
:107FD000000A50702C9F379C339E319B08346D1CD7
:107FE000113648E72D68B4AA04232DF070FD00284F
:107FF00001D000F07BFCB498B34940189B21890064
:10800000AE4A50509D208000002414523398001F27
:1080100001D100F06BFCAD494968691AAC4A914244
:1080200001D900F063FC80083799091DC2B232986B
:108030001BF0D2FEA5480078002801D100F056FCC4
:108040001FF020FAA148047000F050FCE46800978B
:108050002F98019030463299379A339BA04700F011
:1080600045FC24343794B498944F9A4978547A183C
:10807000B4A833904079411E8841029210770C22B7
:108080002F92209C204621992CF05AF800206070F5
:10809000E070E0802990A0808F4D2846319E3146C7
:1080A00023F0FCFE2C90294632468C4B8C4FB8476F
:1080B0002A9B19785A781C46120251182BF0C8FFD7
:1080C0002C9F384629463246259B854DA847217B63
:1080D00031402BF099FF032338467F493246804DCB
:1080E000A847217B89072BF007FE207B25990840B4
:1080F000400823F009FD0423384677490C463246F0
:10810000A8473399C97D2BF07FFF052338462146C8
:108110003246A847BA992BF077FF06233846214606
:108120003246A8472A9C217B4907C90F2BF06CFFD8
:108130000723384668493246A847217B0907C90FFB
:108140002BF062FF257B67485C4C205C69001023A4
:1081500019402E93EF22024088185840614960541C
:10816000082338465C4932465D4CA047E906C90FF2
:108170002BF04AFF0923384657493246A047254687
:108180002A99097B8906C90F2BF03EFF0A2338463E
:108190003C4651493246A847339D697E2BF034FF57
:1081A0000B2338464C4932464D4FB8472A99097B34
:1081B00049062BF0A1FD2046474932462F9B484FE8
:1081C000B847A97E2BF020FFA87E47493B4A505074
:1081D0000D232746204640493246414CA0472A9C61
:1081E000217BC9098279C3791B029A18037A407AE4
:1081F0000002C018000480180170207BC00925F01F
:10820000F7FD0E23384634493246354CA047E97E07
:108210002BF0FAFE0F2338462F490D463246A04771
:108220002A9C617B31402BF0EFFE607BC007C00FC2
:1082300025F038F93846294632462E9B284DA84766
:10824000617B89072BF058FD1123384622493246BD
:10825000234DA847BB992BF0D7FE122338461E4961
:1082600032461F4DA8472DF0CFF92BF0F1FE132316
:108270003846194932461A4DA847A17AE27A1202C5
:1082800051182BF0E5FE33980079411E092900D9D9
:1082900019E10A4D43003298379C2146119A26F085
:1082A0009DF9B4A909794A001319002800D1A9E25F
:1082B000309E473600203190AFE2C0462C2E002081
:1082C000FA020000FF1FFC00FF030000544F0020D3
:1082D000FEFFFF7FEC0B000057FC0000FDFF0000DD
:1082E000B54E0300FC080000DC080000B4AA10230F
:1082F00025F0ACFC002800D0F8E2B49825218901D3
:1083000060526018B4A94A888281B59AC281CA882D
:108310000282B69A428249898182B79901840020FB
:10832000014622F069FBE1E20020102803D0B4A945
:108330002DF084FAF9E70120000233903798071DE9
:10834000002001469DAA1278914200D313E500282F
:1083500000D010E59DA840780128379101D0102564
:1083600000E00D25B4AE3298394632462B4625F052
:108370006DFC81218B00E258B17A0B2671435418B1
:10838000617AA27A12025118339A11427ED12C9549
:108390002E902F970934B4AA1D46D37A9B075B0C05
:1083A00031969F2636020E409B19319E2170190A84
:1083B0006170A14F7859917A71434118887A00020F
:1083C0004004800F19D0B4A8C07A01282BD106220E
:1083D00008469A492BF0B4FEB698974F7959B4AA3B
:1083E000937A7343C918030ACB718871B798795986
:1083F000927A72438918087226E0B4AE304624F0AF
:108400001DFFB6987959B27A319B5A438918020AEE
:10841000CA718871B7982CF082FEB07A3189319E8A
:108420001DF0CEF810E0B4AE304624F007FFB79848
:10843000814F2CF074FE7859B17A319E7143401807
:108440007F4A110AC17182717959B4A8827A724344
:1084500089182DF0CFF8339B1A434A72120A8A7298
:108460007959827A7243891800224A727959807A3E
:1084700070430818817A10220A4382728320800098
:108480003958491C39502F9F2E982C9D7F193799A8
:10849000491C694C56E7B4AA64232DF018FB044626
:1084A000F0E09DAA5C232846379925F0CFFB0446CF
:1084B000002800D0E6E00020642800D1CAE0B4A97A
:1084C0002DF0BCF9F8E7329C379D299EA7E10027E3
:1084D000594C329D31462F98002806D0002F04D1E8
:1084E0003398C2B228461BF077FC56482554FDE16C
:1084F000514D2F9C2AF0A4FF00279D979DAA04268A
:1085000032983799334625F0A1FB002805D0A721E2
:10851000C9006F52022C3ED05CE02BF007FF181808
:10852000339B1B1F9BB2834235D130984730102AB2
:10853000EDD81029EBD8002A394600D166E22E96F4
:1085400031973798061D00200125114607468F42B6
:1085500000D354E2002800D051E2B4AA0423329898
:10856000314625F073FB00280FD1B4A94A781523B2
:108570009B01314CE4586419641E227049882E4ACC
:10858000D25853195155090A59707F1C9DA9097871
:10859000ED1C361DDBE72AF053FF00249D949DAAB5
:1085A0000427329837993B4625F050FB00280ED11E
:1085B00031942BF0BBFE1B183398001F84B2309807
:1085C00047309C4202D1102A00D898E1319CA72163
:1085D000C9006C52002800D088E100240425164907
:1085E0001948085C844210D2184808584119897803
:1085F000032907D1405D22F017F9002802D0E0B22C
:1086000028F074FB641C0835E9E71148085800217C
:10861000082902D02DF06AF9FAE70020802800D15D
:1086200064E10549094A89580A18095C2CF074F874
:1086300000220A700830F1E72C2E0020409703003A
:10864000FFFF0000B40400003905000044050000ED
:108650003C050000B4A89DA95C222BF071FD0C988C
:1086600000781E9B597BF8220A40072101405018D0
:10867000587330984730CB900020C1439974090A51
:10868000D9741875002C00D030E1B4A83790007868
:10869000012132910840F94FF94D795DFE220A40DF
:1086A000101878559DAC042220461799F54EB04716
:1086B0001D9821462AF0ECF80920C001381808243A
:1086C00016992246B0473798007802210140785D1C
:1086D000FD220240501878558920800038183390C8
:1086E0001599224625463194B04733464320C000B1
:1086F0003A182E92B5981026F041B92189007C18BD
:108700002F942C917850FF20DF497854379948787E
:1087100090774888DF4978521E9C207D9075912083
:10872000C000381814992A4698471A980078D749F3
:1087300078541C9D284613993246D24B9847D3480B
:10874000385C2874D248329B3B541B9812993246AD
:108750001E46CC4B98472CF0CDFC199800782F9DE5
:10876000E8732078A8733798007880092E990875E7
:10877000607B8107C90F6973F64BF9584007C00F3A
:10878000C003F20391434018F8502B200001381821
:108790000C221899EE4B9847607B5121C9007A5AF8
:1087A000C007000E80239A4310187852CB981FF010
:1087B00069FFA07CE17C0902081827F07BF8607B48
:1087C00031990840C00825F013FB6D88DA498D42C5
:1087D00007D02C98385A884203D0DF49785C304360
:1087E00002E0DD49785CB04378540822339C20468F
:1087F000D2492AF0E5FE002878D0CF48854275D0CE
:108800009BAA6FE00298C1711018C0880026CA4A5E
:10881000904202D1481ECA496854329C1D46B4A8F1
:10882000319900291FD0807900281CD00A281AD835
:10883000430020462946109A25F0D0FEB4A9897934
:108840004A005519002802D0309E47360BE00298A6
:1088500041771018808B0026B74A904203D1481EFA
:10886000B049B84A8854B4A8002E01D0FFF71DF9CA
:10887000C079002801D1FFF718F9042801D9FFF7C2
:1088800014F961214901A74A52184300204629469C
:1088900025F0A4FE002801D0FFF707F9B4A8C0799D
:1088A000A049A94A885489184200895AA24A91428B
:1088B00001D0FFF7FAF8401E9A49A34A8854FFF7FF
:1088C000F4F8A549785C379A9043319C7854082293
:1088D00020469A492AF074FE002807D0964885421F
:1088E00004D09CAA284621461AF064FF3699491CF8
:1088F0003598401C35908B4D8D4CFEF776FD102938
:10890000319C00D963E6002A214630D03798041DF7
:1089100000200125114606462F978E4222D20028BC
:1089200020D1B4AA04233298214625F08FF90028DB
:1089300012D1B4A94A78339215239B01794AD258AF
:108940005219521E339F17702F9F4988754AD2586B
:1089500053195155090A5970761C9DA90978ED1CC7
:10896000241DDAE700286F4D319C00D02FE6B59426
:10897000B49488003799254644189DA840788542CC
:1089800070D2E119B4AA0823329825F05FF90028C3
:108990006AD1B598634B6D4E9959CA19C855000AEA
:1089A0005070B4A881799A59D2199170C0799959A7
:1089B000C919C8706D1C0837DFE7002007213A4647
:1089C000229B5B78984200D307E6931F1C785B7864
:1089D000544D5E4EAD596D18ED1E6B702C70514D9F
:1089E000137807241C40AB595B185B1E1C7013786E
:1089F000DB08AC596354401C0831D21DE0E7002865
:108A0000484D2F9C319F2E9E00D080E53546B5976E
:108A1000B49788003799401831903E469DA8407819
:108A2000864223D231984119B4AA0823329825F0FE
:108A30000DF900281ED1B5983A4B444C19594A19E2
:108A40004855000A5070B4A8C17907220A40195944
:108A500049198A70C079C00819594919C870761C1B
:108A60000835DBE70020B5E52E4DAFE500202D4DA4
:108A70002F9C4FE52B4D2F9C49E5C0462C2E002006
:108A80007904000041410300FA0200006B0200007B
:108A90006A020000760200002078002803D01EF051
:108AA000F1FC00202070002422482C5028188480DB
:108AB0002698483001D114F0EBFE1C4828580028B5
:108AC00010D1204629F042FACD2000012C542B98D9
:108AD000400128181821C166006E401C02D10120F7
:108AE0001F996850104AA85C04210143A9547FB023
:108AF0005CB0F0BD30994731316038A912F0BAFA54
:108B0000002803D02BF094FEFEF7B6FB03CE2B9A81
:108B10005201AA1810663078CD231B01E854D166A3
:108B2000FEF7AAFB2C2E0020D10C0000CC0C00007C
:108B3000544F0020DC0C0000FFFF000048970300AA
:108B4000F30B0000090C00001E0C0000440500009F
:108B5000414103001405000014070000F0B59DB06A
:108B600014460A460746001D01210B918903214046
:108B70000023089100290E931793149710901192D7
:108B80002AD103252902407800021691884243D158
:108B9000D94EE0020CD5307C002809D0801E42421C
:108BA000424100203074F06816991EF055FD119A6C
:108BB00001201590600300D461E30F94BC6B307FFB
:108BC00000284ED0002C4CD0217802297ED83120AC
:108BD00020700C2070774FE30F94F648044614344D
:108BE000002666766674E67606748671C661E6745B
:108BF000796BBD6B002D0D9111D06888C1064E0FA9
:108C00000D9900290DD1002E17D1032189020840AA
:108C100013D10121002615E0179D01F01AF8002953
:108C20000BD0087A022808D2002100280AD1002D92
:108C300008D068880005800F04D02CF077FA022550
:108C400001F04FF8179129F01FFD18902CF081FDCD
:108C50000020002D5ED010990978012925D1F969ED
:108C600025E0707F012800D008E3002C00D105E347
:108C7000D74800686188CA07024600D062680B4680
:108C80002B40012B03D1831A5B0F00D1C3E27B6B16
:108C90001B7A002B00D196E202232370CE06760FBA
:108CA00000D1BEE2C34E7377B9E2C94909686A8848
:108CB000D3070B4600D06B68970702D4CF1A7F0FFB
:108CC00022D0002E0DD0022211461FE0717F06290E
:108CD00056D8022800D1C5E2032800D0CCE23926BC
:108CE000C1E22D895B19B34D6B61BA4DF3352A4052
:108CF000551EAA41A27300220192179A002A149FBE
:108D000000D1D5E00B9908E00C218622149F2A702F
:108D1000A84A517701460B980190F86A0E910EF01F
:108D2000CDF82C201099085C7F2852D07E280CD1D9
:108D3000A9487021415C7E2935D15C30417DC08AD3
:108D40000004090209187E312EE0A449496800296F
:108D500030D00A68002A2DD00306A14DAB4229DC91
:108D60007D252D06AB4201D100F0C8FF0125ED079E
:108D7000AB4201D000F0DAFF08794A79C98816E0E1
:108D8000CA1F022A00D976E2964A128A520701D5F2
:108D900000F0D4FC0929119A00D06DE2032800D01C
:108DA0006AE2392014E79049C8B20A0A090C8F4BCD
:108DB000994206D12CF0BAF910460221179100F021
:108DC000ACFC12021018844A5C321082518225F0E9
:108DD00057FE844E864D28F069FFF86B00281BD0A3
:108DE0008449854AD268F260002242707F238370F2
:108DF0000578ED071BD180254D607D49CA868A879D
:108E0000CA870A87328072804A87C3708260C260D4
:108E10000261828235461FE0764880214160002051
:108E2000E886A887E88728873080354618E0C2782A
:108E30007F2A00D180226B4D4A6001896C4AD1861D
:108E4000418991878189D187C1891187818A298048
:108E5000018A6980418A51870078022101404808CF
:108E6000544948710198002805D03846189924F0D3
:108E70001FFD0F9C33E038461C3019A96CC86CC12B
:108E80004C4841691991A07B189C621A530F05D177
:108E9000002803D186200F9C524D1DE0574B9A426B
:108EA00000D8214600280F9C4E4D11D1032210E01E
:108EB000CA1A591A524B994200D31946530F00D17E
:108EC0005142490A03290B9900D226E704211FE7E2
:108ED000022219A815F0FAFF0621364A5177102808
:108EE0000D990BD3109A11780002081810801046C3
:108EF00002211791119A44E6186D0020002900D133
:108F000016E1FF20060200201790394AD084087A23
:108F100005905086887A002812D03A480168426845
:108F200027230124234DEC540F9C29856A852D4D60
:108F300031407F23194332401A4301600D9942604A
:108F400015960120029000020390284640301390AD
:108F5000284648300A902C480990179802460C90F1
:108F6000069005988242079200D1D7E0182050431E
:108F70002A460D18288B0C9956183084688B7084FB
:108F8000286969697062B1622F7F7906880F0002D3
:108F9000FA0080231340C018BA0020231340C018E1
:108FA000072427407A1E032A37D8920002A39A5832
:108FB0009746C046186D0020C98F0000CD8F000075
:108FC0000D90000013900000042220E014221EE007
:108FD000002102400F0F000098690020B0670020B8
:108FE000FFFFFF7D402009407F00FFFFFFFF0000E3
:108FF000002009401C320840E06D0020FFFFFF1FE9
:10900000FFFFFF7F1C210840042209405422104327
:1090100003E006221043029A06920029069900D521
:109020000299002F00D00691B085686A0028149F2D
:10903000109862D12A6A002A43D01368402B5CD86A
:1090400004920C321020C01A1290EE4F48370024C0
:1090500019460A9D2046169383421CD91646083E9F
:1090600018911029159901D3FC4903E0129B1B1894
:10907000FF31D94036880E402B46083B1E801388AE
:109080000B402B80641C1030921CAD1C18991039B9
:10909000BF1C169BE0E7F04D049A042C07D238461B
:1090A0000838002101803980641CBF1CF5E71432A8
:1090B0000998149F0F9C002B0ED002CA02C05B1EA1
:1090C000F9E7E0430F9CE44D002805D013990918F7
:1090D00000220A81801CF7E70C9810300C90079A48
:1090E000521C0A9810300A9003980999091809919E
:1090F0001398103013900D9933E702460088917849
:1091000009044018DE490840412149020143118009
:10911000000C9070022017900F9C0D99C87A2321A3
:10912000D84A50540028119A079B05D0D64806E02B
:109130000020179006900BE003208002F538D349F9
:109140008886059883423CD101200699014006910A
:10915000CF48D049072202600A6820231343102217
:1091600093430B60026BC74C22800D9E002E00D1F2
:10917000C4E2C94DC94A643A152313602A46383AF5
:109180000B9DAB021360C64AD369092116910B43AC
:10919000D3610560BF490A6803239A430A60816A64
:1091A00000224261BF48457361801892A260304638
:1091B0001EF0B0FCB548408C6179002909D0BA484E
:1091C0000DE01098DDE40B059B0F00D164E58220D3
:1091D00022E0C008C043B5490143B548084006999C
:1091E0000029AD4D01D1014604E01699490208431A
:1091F0001821014328680843286023F067FC019880
:109200000028A04C0D9800D178E2407A002800D1C7
:1092100060E2A8485FE2862020700C207077119AE7
:109220002CE02389D218974E726133461433964C42
:10923000F33421404C1EA1419973811A101A9E4AA1
:10924000904200D310464A0F00D1484216998842F6
:10925000119A0F9C00D37AE20520707797481599F0
:1092600001630CE0352624F0F9FA26700C20854EB7
:10927000707700200E90119A002030770F9C6006C6
:1092800008D51798159908431790B07F012801D188
:109290000220B077E00305D5786B002802D01EF0DD
:1092A00039FC119AB07F61020CD500280AD0252123
:1092B00001227254119A717F002903D102207F4943
:1092C0000863B07F717F04290CD102280AD170692C
:1092D0007B4940181699159A1EF0BEF9002820D136
:1092E0000B251FE0002702291FD102281DD10F9452
:1092F0001498806B344646684188694A1368143470
:10930000002767738A05920F00D101222273CC07D0
:1093100061D11E460F9C5B4846610646159F119A17
:1093200002E00525119A0027757715980105A0051B
:109330000B9102D5307C012806D00A420AD0614840
:109340000068C0B27F2805D0707F032802D124F0C6
:1093500085FA02E0002F00D1D0E01498856B69886F
:10936000032028703C48008A002811D02120315C5D
:10937000002907D0484B1968012212059143196052
:1093800000213154122028700C207077119AB5E01A
:10939000C806400F042801D10027AAE00F94494ACB
:1093A0001468E3B221227F2B2ED1364EB65C002EFC
:1093B000344E29D13046143001224273706905229F
:1093C00012028018890500D58CE0334B19680B9A7E
:1093D0001143196087E0169C1B199B1B5B0F0F9CA8
:1093E00076D0052000025043374941180027304607
:1093F0003A461EF031F923494E610E460028119A73
:1094000092D192E74020094061B218917F3B5C42C3
:109410005C4121490B68012731463E05B3431E4E8E
:10942000336000268E541899EB578B4200DD374687
:10943000264AD2886E883606760FB242159A00D830
:109440002246401E06280F9C0E4E9BD8800004A486
:1094500020580F9C8746C04640200940FFFF00006F
:10946000F39400007D940000559D0000859300005A
:1094700085930000859300005D9D0000174638E04D
:10948000FF00FF00186D00200F0F000000200940B2
:10949000A0110840B4100840440008401C210840B6
:1094A000002102402C680020B191000001810000E1
:1094B0003181000002280000FFFFFF7F00100840FC
:1094C00000FDFFFF1C32084000FEFFFFA420094002
:1094D0002940012900D01EE7862101700C25119A30
:1094E000FB4E21E770610F9C002716993A461EF04B
:1094F000B3F82120305C0028119A23D0100706D53C
:109500000120F0773046143000210176C1765006F4
:10951000149F44D5F64B1868402188431860707F2B
:1095200009283CD1F3488088C10707D1C10621D45E
:10953000B96B0007400F2CD015202DE0B86B14211B
:1095400001702AE0002F00D01CE77169304614300A
:10955000027B521E0273120600D1E2E005200002D7
:109560000E180022304616991EF076F8DF48466144
:10957000DE4E0BE72321715C002905D02421715CAC
:10958000002901D00A2009E0B96B800603D54320E9
:1095900002E0802000E0102008700C20707790041A
:1095A0000ED5D34B18680121490388431860707F9A
:1095B000C01F012804D8B86B102101700C207077EF
:1095C000CD4801210D91C90318914D1C2A421AD092
:1095D000C08800210C91B177717F072917D0052928
:1095E00023D1706931461431897B2AF049FD032863
:1095F00049D128F05BFB0620707700200C900D907D
:1096000015980E905DE000200C900D90B2E00D9941
:1096100011404BD13179032902D122F077FB014669
:10962000109A1078090240183AE0083902290CD83B
:10963000FC280AD1B179002907D0B86B3921017013
:109640000C2070770020B071DEE72521715C0029C5
:1096500008D0072806D1A949097F490702D41598DF
:109660000C9087E0139525463179022403290C9E3E
:1096700071D11146189A114028D107286AD10220C9
:1096800020F01EFD24E0B96B08700C2171770146B3
:1096900031390022092916D8109A117800020818C9
:1096A0001080022017990143179107E0B86B102131
:1096B00001700C207077032000BF00BF00200C90C9
:1096C0000D90119A56E00C920D92FAE722F01EFBD3
:1096D000014640E08A4888498885189ACA848548A6
:1096E00002802BF09FFA022000BF00BF85481D2199
:1096F00001630120010529617C4CA077109B18882B
:109700009978090440188049084003210A0202435D
:109710001A80000C987018462171119A0F9CFFF75F
:1097200030FA052272772A89891871616988C9041B
:10973000C90F817301207349086327E60328119A32
:1097400000D099E56F4815990163B17194E5042043
:10975000707794E51021179820431790109A10788D
:10976000090240181080032000BF00BF119A0D9617
:109770002C46139D6548001D044245D02D245B48AE
:10978000065D002E40D0594BFF2E0BD1D87F401ED6
:10979000012818D81E205B4908632E200321195484
:1097A000D9772FE0D87F01280DD113952C255F5D47
:1097B0009869002F0CD100280AD00188822906D888
:1097C000491D8F0804E02E20022119541AE00027B9
:1097D000B74210D300280ED04D49096B89088E423C
:1097E00000D881E21E20474908632E2003213F4B09
:1097F0001954D97703E02E2004213C4B19545F55AE
:10980000149F139D002018550E980028374E00D144
:10981000B9E013953A4BBC6B3846032727700725F0
:109820003B490D60406B002810D061880A05920FFB
:10983000119A09D0407A0028184600D035482E49A0
:1098400088850120B07704E08904F3D5981C2A4963
:109850008885E668002E09D03088401D81082C4894
:10986000006B8008814208D9842000E083202070AA
:109870000C201E4E7077149F85E0304625F026F9A7
:10988000608841050ED41E49891E084244D0608973
:109890001949C8842320154E305C0028149F4FD0EE
:1098A00001204EE0B0783188021D8A4201D90021A2
:1098B00001E080198179089D60890F4AD0840B4EA0
:1098C00032461432D37B0120002B03D0030202E086
:1098D000186D00203B02149F5B18064C238009235F
:1098E00073779174189C413434E0C046186D0020A1
:1098F00044000840A420094000200940E06D0020F9
:109900000208000000100840FF00FF00FCFF0100FB
:10991000A0110840022800000020FC49C884FC492E
:109920000880149F796B0029FA4E05D0618889045C
:1099300002D4F949139108257577139C089D09E015
:1099400005200002089D189CF149088009207077C5
:109950004134002024217054002D06D1F86A159955
:1099600028F0E0FB252000213154EC490C61086807
:10997000204308602BF056F9022000BF00BF1C20D6
:10998000E7490863119A01200E90000210400F90E1
:1099900003D19006800F00D1C9E0786B002800D178
:1099A000C5E01046DF49CA6A10210A9108401290AA
:1099B000042A00D2B3E0FD48C468FD49086980006C
:1099C000169BFC3318931840CB689B00FA49651826
:1099D000EB18844200DB1B1A186883B2581D054639
:1099E000D1490D40954200D993E01393B268002607
:1099F000002A1CD0137A012B01D1D38903E0012363
:109A000013720023D360EC185789BC421AD9002B7B
:109A1000149F0CD0022313721368002B07D05C89AB
:109A2000A54204D801241C720024DC601E46964224
:109A300005D00822179911431791DE498E60002E38
:109A400001D166E01646DB49CA7F002A07D0032A07
:109A500005D02F22D7498D54DA4AD2680A86800869
:109A6000F289B4181034D849CA68D205530DD549C3
:109A7000CA680327BA43D318DA495B182746002877
:109A800003D002CB02C7401EF9E75019CE4909693D
:109A90008900189A1140411A00DB0846C9490C3167
:109AA00029F00EFC1598CA494873F0894019F081D5
:109AB0000425149F786B1EF02DF8BE4E707F0A2887
:109AC00016D115200F9900290ED0139903290BD315
:109AD000A17809198A792623F35C9A4204D108797E
:109AE000C0060A9800D54320B96B08700C20707727
:109AF000179828431790B348C26A1298002803D1D8
:109B0000F07F032800D053E70020F0772F21705416
:109B10004EE78520A74E30710120B1490863707966
:109B2000002803D0F86BA5492CF03AFA119A0920C5
:109B3000400202420DD0786B00280AD00020F07756
:109B40002F2170547079002803D0F86B9B492CF0BA
:109B500027FA707F0C281ED1FF2000021099098877
:109B600001401698814216D10E9AD004179D0543E4
:109B7000964B1968120591431960B96B4A88920493
:109B80000CD5B27F0978002A17D0317194480E990C
:109B900001630B2020E00C98179D26E07A6B002AC9
:109BA000EFD0B07F002812D02520315C00200029A2
:109BB00012D002218A4A11630EE0109B1A78090222
:109BC00051181980801C179D0543002004E028F0DF
:109BD0006DF800200E990D9170777079002803D0F0
