:1041000000900020B56503005D7503005D75030038
:104110005D7503005D7503005D7503005D7503004B
:104120005D7503005D7503005D75030093EA020091
:104130005D7503005D75030091130300A544030042
:104140005D7503005D7503005D7503005D7503001B
:104150005D7503005D7503005D7503005D7503000B
:104160005D7503005D7503005D7503005D750300FB
:104170005D7503005D7503005D7503005D750300EB
:0C4180005D7503005D7503005D750300B4
:10419000F0B5FFB086B00646202125F0EDFD0446BF
:1041A000471C1BA801250570207818901596701ED5
:1041B000F64BD42119915958C0B2A42216925043FB
:1041C0001A90081832F0B5FAE075607AA17A0902FF
:1041D0000E18EF48185CC00737D02FF09BFB002863
:1041E0001BD0607DC007C00D2FD11F2E28D9E948F4
:1041F0003018112804D829468140E748014224D1CB
:1042000030463138092804D829468140E348014224
:104210001BD11BA80021017036E032F0B1FE0AD09C
:1042200030462138142810D829468140F7480142E9
:104230000BD08D214BE3607DC007C00D05D1EFE7AA
:104240002846B040F9490842D1D030B200281BD4EA
:1042500001235120C000CD4D1490295A002049055A
:1042600000D419E132463C3A91B20B291C4619465A
:1042700000D913E1EE480240EE48D0400123184037
:104280000E24D4401C4009E1EB483018322800D9F4
:104290007DE2800001A108588746C04631490000F0
:1042A000676A0000676A0000676A0000676A0000CA
:1042B000676A0000676A0000676A0000676A0000BA
:1042C000676A0000676A00009549000069430000C2
:1042D00069430000676A0000676A0000676A0000BF
:1042E000676A0000676A0000676A0000676A00008A
:1042F000676A000069430000676A0000676A00009F
:10430000676A0000676A0000676A0000AB49000046
:1043100069430000D948000069430000676A000053
:1043200069430000676A000021480000214800003E
:10433000676A0000676A000069430000676A00005E
:10434000676A0000676A0000694300006943000073
:1043500069430000E34900000B4A00006943000084
:1043600069430000694300008848199940581A9928
:10437000411832F014FC012901D802F074FBAF4A55
:10438000B218272A00D935E2920001A39A5897461D
:10439000554A0000554A0000554A0000676A00006F
:1043A000676A0000676A0000676A0000676A0000C9
:1043B000676A0000676A0000676A0000554A0000EB
:1043C000676A0000676A0000676A0000676A0000A9
:1043D000676A0000554A0000554A0000554A00002F
:1043E000554A0000676A0000554A0000676A0000ED
:1043F000676A0000554A0000676A0000676A0000AB
:1044000031440000676A0000676A0000676A0000C4
:104410005756000071560000554A0000554A0000EA
:10442000554A0000554A0000554A0000DF5600007A
:104430002024159D284633F095F8014653A833F003
:1044400063F97DA8002606805048199940581A99AA
:10445000401832F035FB0A7B18924F7B002F0ED1AB
:104460000C310079801E8D1CC4B22846214626F0EE
:1044700029FB8F27002801D102F0C2F8159D3E21AB
:1044800033F072F8044618993E2E01D102F008FC70
:104490000020A055761CF7E71C461946CA4AAB5CBB
:1044A00002252B405A425A410028084600D11046A6
:1044B000002803D0002C0ED18420FEE1062E01D866
:1044C0007B2000E07220C043062E00D9F5E10122D6
:1044D000544000D0F1E184203246203A272A179137
:1044E00000D98BE0930001A2D2589746A145000065
:1044F000FB4A0000F94A0000BB480000BB4800002E
:10450000BB480000BB480000BB480000BB4800009F
:10451000BB480000BB480000054B0000BB48000042
:10452000BB480000BB480000BB480000BB4800007F
:10453000994B0000F14B00008D4C0000AD4D000088
:10454000BB480000BB480000BB480000BD4E000057
:10455000ED4E0000BB480000BB480000554F000076
:10456000BB480000BB480000BB480000BB4800003F
:10457000BB480000F14F0000715000008351000063
:10458000D351000013520000855200002C2E002051
:10459000FC0800000080FFFF7F0003008303000091
:1045A0008A4D1998285832F003F9102801D201F0E9
:1045B00014FC8A79CB791B029A188F183C460C346C
:1045C000A17B4A0011461031814201D901F005FC5E
:1045D00026460F36B25C52005118814201D901F0D3
:1045E000FCFBE07A002803D0F12801D201F0D9FFCA
:1045F000822115982BF0BAFF02F031FA062E00D96D
:1046000022E1B00002A108588746C0460304180002
:10461000A3520000475300004146000041460000FD
:10462000DD53000095540000435500007F002BE04F
:10463000FF0F0000F10F0000EB7FFFFFE07FFFFFA7
:10464000624D199C28591A9BC01832F021FA01D8E2
:1046500001F0C3FB32F016F9139031460D312AA850
:1046600033F0BEF80F362021159C2046169125F018
:1046700083FB0746401C1890199828581A9940182F
:104680000079C01EC1B2304626F01CFA1A900028EC
:104690000BD1189932F0E3FB53A926F0C5FC002892
:1046A00001D101F09DFB159C484D3E78042133F06B
:1046B000EDF8074613983870B9208300E85A2AA904
:1046C0000988884201D000F07AFF00200246787005
:1046D0001899087A497A09020818032801D101F0CB
:1046E000FBFA0228154601D001F002FB129317983D
:1046F000800217900D21159825F0FAFA05463448E6
:1047000032490C1802221392284621461994314B43
:104710009847A078A870E81C2F492C4A5118139C80
:1047200022462C4B98472B4B199840796871A81D4D
:104730002A4A264989182246984728460830284997
:10474000224A51182246234B9847224B28460A30CA
:1047500024491E4A5118224698471998007B28730D
:104760001A4A1498105A179908420DD11B4B1E482B
:10477000105C800602D51A981C3005D01298115A88
:10478000D25A15982FF086FC184D01F0B1FA18484E
:104790003018062801D902F066F9800001A10858F6
:1047A0008746C046C1470000C1470000414A00009B
:1047B000454A0000614A00004148000041480000AD
:1047C00015982CF07DFF41E1140700002C2E0020ED
:1047D000E40700000D590300E7070000EA070000A6
:1047E000EC070000EE070000160500000280000044
:1047F0000080FFFFFC4AB218152A01D902F033F9F4
:10480000012393406F24234200D023E1042AF74D73
:104810001A9B00D132E1152A00D194E002F023F96D
:10482000F24831F072FD0B2901D202F01CF932F08E
:10483000F9F8927D0B328A4200D8A0E502F013F914
:1048400015982EF0C1FE01E1152E36D1E7491998D1
:10485000085831F075FF46182021159C20461A9102
:1048600025F08AFA054600781990307B18900D36AD
:1048700053AF0222384633F0D1F8FD48FB49085ABD
:1048800039880140398001D100F008FD042132F05F
:10489000FDFF1899017000214170801C53A932F06E
:1048A0009FFF6878A97809020A181A981999014097
:1048B0004B09F048214601F0DBFFB978FA78120283
:1048C0005118ED4A914201D902F0CDF8C1B21598C4
:1048D0002CF039FF02F0C3F8E44831F016FD052949
:1048E00001D202F0C0F832F09DF8137C002B00D109
:1048F000B0E00C3200270524002B01D101F06FFB42
:1049000027460C378F4201D902F0ADF81719FF7A0C
:10491000032F05D0012F01D002F0A5F80E3400E0DE
:1049200015348C4201D902F09EF85B1E2F46E3E756
:10493000CE48199940581A99401832F008FB0328BC
:1049400001D802F090F832F087FDC84931F09EFCA2
:10495000042A01D202F087F832F004F88A7852066D
:10496000C24B05D54278807800028018C34A98521D
:104970000878F921C900595C884201D002F073F827
:10498000BF48BA490858002801D102F06CF81599BF
:1049900001F035FFB548199940581A99401832F07E
:1049A000D6FA012856D802F05EF8B0481999405856
:1049B0001A9931F0DEFF427B842A4BD0002A01D0C5
:1049C00002F051F832F0EBF8052901D202F04BF871
:1049D0000C30007916224243501D88423AD902F029
:1049E00042F8A248199940581A99401832F0AFFA83
:1049F00002282FD0032801D202F035F801D102F0AD
:104A000032F8C00726D102F02EF89848199940587C
:104A10001A99401832F03CF81CD0032901D202F058
:104A200022F88279C3791B029A1880180C30801CF6
:104A3000891EC9B226F046F800280BD002F013F800
:104A4000112100E00221159827F0C8FE002801D1AD
:104A500002F009F81BA915980FF00EF901F0FFFFFD
:104A600015982EF0B1FD002801D101F0FCFF7F4D1B
:104A7000199828581A9BC11832F091F8C01832F0D2
:104A8000E0F88418207C491F0023814201D001F006
:104A9000E8FF0028159E1CD0082801D201F0E1FF94
:104AA0000C34E17A4A0016460836864201D901F0F4
:104AB000D8FF21460C318D5C6F00F6198642159E99
:104AC00001D001F0CEFF20460D302CF00BFD2573F8
:104AD000664D892000012A58002A06D069493046CF
:104AE0009047002801D101F05AFD304622F01AF813
:104AF0004342434101F0B5FF0021159811F0D2FA6D
:104B000001F0ADFF2024159E304632F02BFD054606
:104B1000C0782979090208185749884201D901F05B
:104B20009BFF28780007800F01D001F095FF68787F
:104B3000A9780902081818904C48199940581A99F0
:104B400031F017FF027B1A920A79497909028A1813
:104B50008027022A01D201F080FE0C30411C501E39
:104B6000C2B203202AF060FA002801D101F075FEDC
:104B700053A92BF0F7F8002801D001F06EFE53A8DE
:104B80000678471C002E01D101F065FE38462BF057
:104B900011FF761E0837F5E73448199940581A99DD
:104BA000401832F0CFF9012901D801F016F931F09F
:104BB0007BFF20211598189125F0DEF801781691D9
:104BC00045788678207B1A9032F0ACFB617B199196
:104BD000884201D800F091FD32F0A4FB1999401AE7
:104BE000C4B200F08BFDC0460080FFFF2C2E0020D9
:104BF0002024159D284632F0B5FC1C4931F046FBB7
:104C0000012A01D802F05CF8421C32F06EF91A4B0E
:104C10009A4201D901F0E1F806780C22324001D025
:104C200001F0DBF84278807800028018189032F0AA
:104C3000DFF809180F7B0D3153A832F087FE0521EC
:104C4000159D32F091FC0770842141700748199935
:104C500040581A99401832F075F9C91E32F066FAB8
:104C600026407309084801F095FCC0462C2E002010
:104C7000EC07000015800000F7FF0000760200003E
:104C8000C40700000480000032800000ED4819993C
:104C900040581A99441832F005F9012801D801F05A
:104CA0009CF8A579E67920211598129125F064F8F1
:104CB00031F0A9FFE44A914201D901F08EF802785F
:104CC0000C21114001D001F088F8119231024919EC
:104CD00061184F7BDD4BDB4AD25CD41B0025BA4206
:104CE00000D22C460E7B032C00D30324401C1090D2
:104CF0001520139060430F90411D32F05FFD067048
:104D00002A464570CF49D14BC95C8170C770047188
:104D1000451DE01914901346F8B21499814201D848
:104D200000F06CFD169317921897A721C900C54A89
:104D30005718F968C6008819C4795D20C000111899
:104D4000082232F055FEB86803216143405C2872A6
:104D5000B868401841788078A8726972F86880193C
:104D60008079E87203280DD00128189F169B18D16E
:104D7000B448B7494058801901794079687329735C
:104D80000E230EE028460C30AE4CB14FE159891984
:104D9000097926F00BF9E059801940792875139BA1
:104DA000189FED18179AD2187F1CB5E7A54C199FCC
:104DB000E0591A9E80198179C2791202511845185A
:104DC00020211598169124F0D7FF02460078149000
:104DD0001895294615460D3153A8092230F096FD45
:104DE000E059801932F0B3F80A2801D200F0F5FF3B
:104DF0006F1CB878F978090208189649884201D3DF
:104E000000F0EBFFA87BE97B0902081831F0DEFA1D
:104E1000002801D000F0E1FF5D20C000201853A958
:104E200032F08CFC0028179905D08B4953A832F03A
:104E300085FC414241411A91A87BE97B09020C188B
:104E4000687D1990844953A8082216462FF0FEFE6B
:104E5000139020462EF088FB044645424541002829
:104E6000189A01D101F02FFC7B4953A832F066FC5F
:104E7000002811D0794953A832F060FC00280BD0EB
:104E800053A87DA931F08AFD002805D17DA80078BE
:104E900000212AAA22F0F6FC611E204688416142C8
:104EA00061411A9E3140002C01D07B22D443189AD4
:104EB000012901D100F091FF01F00FFC002553956D
:104EC0006048199940581A99401831F082FD32F023
:104ED000C3FA1890387B1690787CFE2800D172E3D4
:104EE000FF28179E00D072E309226EE30620C44318
:104EF00054481999405831F023FC451832F0ACFA67
:104F000002462B7B687BA61D002802D00B2800D808
:104F100065E31598002801D101F0A1FD501C8178AE
:104F2000C27812025118484A914201D900F055FF47
:104F300001784078000244182A2115981D4624F073
:104F40001BFF2B4600212A2901D100F098FD32F0E9
:104F500001F9F8E72027159E304632F035FB03466D
:104F6000384D1998285831F023FC012202281046A8
:104F700018931A9201D201F047F9081D31F06DFC27
:104F8000374BEA540D310078401EC4B21E20224631
:104F90002AF04AF8002801D100F07DFD41788A1CF2
:104FA0000021A2420B4601D301F01DF982782D4D5C
:104FB00024494A5551000B1D641E0021A3420B4693
:104FC00001D301F010F9169727491E4B5C18C71C36
:104FD0000026D0B2864201D301F0FFF80422204619
:104FE00032F016FD3F1D761C1648425D241DF0E789
:104FF0002021159E32F002FD31F005FE124A914249
:1050000001D901F029FD0178890601D401F024FDC0
:1050100041788078000244180A48199940581A9932
:1050200040188179C279120251184018057B32F07C
:10503000E7F905708D2141700C4831462246179BD7
:1050400001F016FC2C2E0020F7FF000039050000AF
:1050500044050000F8FF000060B1030058B10300F0
:1050600004090000090900000C090000428000004A
:105070002021159E3046169124F07EFE044641788C
:105080008278FB48FB4B1B580127F80218400AD1D5
:10509000631C9E78DB781B029B19F74EB342159E6A
:1050A00001D301F0D9FC120251181891F149199A53
:1050B00089581A9A89188A79CB791B029A188A1802
:1050C000137B002806D1189800287ED1607DC00788
:1050D000C00D7AD0139414930C32541C0879401EDE
:1050E000C6B22AAA204631462FF0DEFBD6211A90FE
:1050F0000028129114D12AA81990018839404842F9
:10510000484129F0BBFF199F38882840400829F002
:1051100063FB388804210140880827F06DFE0021D8
:10512000119153AA204631462FF0CFFB1990002849
:1051300004D1539824F04EFA002012907DAA204604
:1051400031462FF075FA0746002801D100F028FDFE
:1051500078427841199A514251411A9A002A179B74
:105160001A46139C00D00A46002A194600D101466F
:10517000D6201090012901D100F019FD802600F001
:1051800019FD2024159E304632F0ECF931F03BFD3C
:10519000B94A914201D301F05FFC41788278120252
:1051A00051181891B34F199979581A9A8A1831F0F1
:1051B0004BFC0D7BB14BFB5C1B0701D500F01BFFCB
:1051C000189B002B01D100F010FF8D213046FFF716
:1051D0007FFB32F041F931F016FDA94A914201D925
:1051E00001F03DFC00781890A24C199EA0591A9924
:1051F00031F0BFFB0D300979491EC9B200252A469E
:1052000023F048F8002801D100F048FC802301F089
:105210009BFA2021159C32F0F5FB31F0F4FC964A04
:1052200091423BD2411C0A78497809028918914A77
:1052300034D19249515C090703D4407DC007C00DA9
:105240002CD0199810581A994018017942791202F5
:1052500052188024022A11D331F006FE41180D3174
:10526000501EC2B2042029F0DFFE002806D053A948
:105270002AF078FD002801D101F01CFB1598214689
:10528000FFF726FB2021159C32F0BCFB417880788B
:10529000000245187A48854200D87AE1204601F09C
:1052A000DCFB78493EA801807249199808581A9980
:1052B000401831F047FE0A2901D800F08EFD31F088
:1052C00062FA16900D31704C2AAF0A223846A04778
:1052D0007DA808221A923946A0472024159E304600
:1052E00032F040F9014653AD284619942246664BE8
:1052F0009847287817900C213046149123F046FCEB
:1053000005465D20C0005B490C46081839461A9ACC
:105310002FF09CFC002801D100F018FC2AA846A917
:105320002FF0A0FA002801D000F019FC4698007870
:1053300006210140042901D000F011FC2AA82FF019
:10534000E7F800F006FC4B4D199EA8591A9FC019AA
:1053500031F0FDFD042801D800F03FFD4B494A4CD7
:105360002AA80822A047A859C01931F00CFA1790B2
:105370000D3146AD04222846A0472024159E304614
:1053800032F0F0F8014653AF38461A9422463E4CAC
:10539000A047387819903EAF022238462946A047E8
:1053A0000C21304623F0F2FB0546B920800031493C
:1053B000085A3F88B84200D035E246A88678022EC7
:1053C00001D200F0AEFC199F5D20C00029490918E8
:1053D0002AA832F095F98021159E39E225491998BD
:1053E00008581A9940180179427912025118032974
:1053F00001D800F0F2FC31F053FA0D3053902AAD91
:1054000053A9284630F0C8FF539804782021159FEF
:105410003846199124F0B0FC0178179131F00CFC5A
:1054200018900521384623F0B1FB07460670002688
:105430000671B92080000F49085A2988884200D097
:105440001CE2002C01D100F073FE1148094A105CE7
:10545000412149015118002801D100F057FC04C92D
:1054600013789C4200D03246401E1646F3E7C046F1
:10547000140500002C2E0020F8FF00001505000088
:10548000F7FF0000FFFF00000D59030058B10300B3
:1054900034080000FB49199808581A99401831F04F
:1054A000F7FA01D800F099FC31F06DF918900D3140
:1054B000F54B2AAD022628463246984720241598F7
:1054C00032F050F8014653AF38461A942246FC4C4D
:1054D000A047387819907DAF384629463246A04714
:1054E000B9208000F5490E5A38882D88864200D0B0
:1054F000CCE18127AE4200D0C9E1F24DEF4C605DB6
:10550000002801D101F048F8401DC1B232F056F92F
:105510001899017000274770801C314630F018FE42
:10552000615D0170412149016118401C1A9CE34AE8
:10553000525D974200D3B7E104C91278C2557F1C6F
:10554000F5E72021159E30460E9124F015FC411CF4
:10555000189100780D900020D84B052803D02AA977
:1055600031F0A8FDF9E71998185831F021F907280A
:1055700001D201F071FA8A79CB791B029A188F183F
:10558000797C831F4A00511C8B4200D2A6E1002186
:10559000A5E1CA48199940581A99401831F084FA7F
:1055A0000079401E277B0D3431F0FCFD0028189552
:1055B00000D18EE21C3000D189E3282088E38020CE
:1055C0007870002594E30722179E354623E30628CA
:1055D00000D20125062800D21CE306221BE3169206
:1055E00018938200931CB549199C09591A9C0919F2
:1055F0000C79497909020C19A34200D9EDE3294637
:105600000E318F5CFF2F00D1131DFE2F01D103231C
:105610001343A34200D9E0E38A18541CFE2F01D0A3
:1056200000F0CDFF0128189B169A00D071E4257870
:1056300053A831F0A7FF539E30462AF075F8002892
:1056400000D1CAE3700100D1C7E33046294624F0F7
:105650001BFC01F0E2F90622D7431A9A801831F0B8
:10566000F0FA8218537B922B00D171E3B81D70E3DE
:105670002021159E32F0C2F90178890604D531F057
:10568000DBFA01D100F0BCFE9120C0008B49081864
:1056900032F0C0F804468C48844201D101F0DCF9B4
:1056A00020462FF04DFD014653AD2C2232F0A0F9DB
:1056B000288DC00501D401F0CFF953AD284618302C
:1056C0002AA931F0E9FF5D980821C943F839014062
:1056D00029852846214621F0E3FE01F0BDF91A9AFA
:1056E000801831F0AEFA851800244F941C946A7B20
:1056F000002A00D066E3104665E300243002032C44
:1057000000D303244019149016206043411D32F049
:1057100055F807461A98387000257D7031F002FE62
:105720002B46B870199AFA703C717E1D1799C807FC
:1057300059D0200657D0E3208500604840590078B2
:105740000021C007F3D0D8B2904249D317938920E3
:1057500080005A490918082231F034FF30460830D9
:10576000564949598A7953A927F040FD534B53981C
:105770003074000A7074B07CFC210140B174595936
:1057800009784907890F8C2202408818B07459594A
:1057900049784907490E0918B17458590278F3201D
:1057A0000840510707D404210843B0745859417B7D
:1057B0000120084007E0B0745959497BC907490FD7
:1057C0000143B1740020F074585900784006000F6E
:1057D00030755859C0787075641E1636199A179B23
:1057E0005B1C0021A3E71A9838701898169901409D
:1057F0004B0936481599149A01F03AF8D0B20F992E
:10580000814207D9401A2D4930F040FD1018087127
:10581000000A4871109931F07CFB129811990140EF
:105820004B092B486FE27DA938462FF02CF8002851
:1058300006D17D98007806210140042900D1BCE5FD
:1058400018980007800F01D001F006F9199F8121F7
:105850001A9C179828706970A81C2AA931F050FF6B
:105860000A353EA9022232F0C3F853A84178807865
:105870000002421827407B0916488EE1802078708C
:1058800000F09DFC2C2E00200D59030080271A9C4F
:10589000052131F093FF189901704770801C29464B
:1058A00030F056FC0021017053A841788078000246
:1058B0004218199820404309074824E22C2E002062
:1058C0000D59030034080000FFFF00003180000084
:1058D00033800000018000000580000001213C466B
:1058E0001234A35C0625ED43AA1A10185A00904200
:1058F000179800D30846012801D101F0ADF80C3704
:1059000038780990791C53ADA81C022631F060FE4E
:10591000F91C281D31F05CFE7F79AF717E00A05D1F
:10592000E8710546189908780890487807908878B3
:105930000B90C8780A90E8194006010E159824F0DB
:105940001BFA3A46002F1697139004D021462EF0EA
:10595000A3FC169A0446002D2F46FA4D06D0611C72
:10596000139880193A462EF097FC169A1897B9208A
:1059700080000590285A53A949880C91884205D087
:10598000F1480C99814201D800F0AFFCEF482C5C43
:1059900053A8808811901398801912900020064611
:1059A00006901A9015980F94A64201D100F0A2FC1F
:1059B000B1006B18412149015D586B78A978090243
:1059C000C918119B994202D0FA498B4254D11096C2
:1059D000A87919900023184619998B4221D2C10742
:1059E0001FD1149359006E1808360024139F944257
:1059F00014D2C10712D1317873781B0259183B8831
:105A0000994208D12A781A98C1B22AA82DF086F9AD
:105A1000169A1A901798641CBF1CE8E7149B5B1C2D
:105A2000DAE7E9791491002614998E4221D2C10750
:105A30001FD10027129C18998F4218D2C10716D186
:105A400019997118490069180B7A497A0902C9181D
:105A50002388994208D12A781A98C1B22AA82DF031
:105A60005DF9169A1A9017987F1CA41CE3E7761C20
:105A7000DAE715980F9C109E761CCD4D94E7711EA9
:105A80008E41F10141700370C484282101224254E7
:105A9000159800F0F6FF00210B46A4E3C6482058F5
:105AA000817A8623022901D900F04EFEC34AA25C06
:105AB000CA40D10701D100F047FEC149BC4A515A42
:105AC0000022490701D500F038FE179D134600F06B
:105AD0003BFE21202146324629F0A6FA0646002048
:105AE0001790002E00D1F5E3B11C7DAC08252046AF
:105AF00031F08EFD0A3646A8314631F089FD02218B
:105B0000204627F045F9002801D100F098FC064610
:105B100005462835687800020024000513D40120CA
:105B2000C00217907DA831F075FE01462820325C36
:105B30006B781B029A18179B1A433254100A68702C
:105B4000304621F0ADFC159D00F07CFCB9208000B2
:105B5000205A3EA908809749884200D05FE11898F2
:105B60000007800F01D000F077FF179F812416985F
:105B700028706C70A81C7DA931F0C2FD0A353EA9C1
:105B8000022231F035FF53A8417880780002421894
:105B9000199807407B090120C003314600F068FED8
:105BA0007DA800882BF04AF800201090139C31F05B
:105BB00055FE00261A98454245412478022131F0CD
:105BC000FDFD1499017046701998002800D16D1CD4
:105BD000002F159E00D16D1C002D01D100F00BFC93
:105BE000022131F0F5FE00210170690041700121B0
:105BF00031F0EEFE002800D1FDE305701A98002870
:105C000000D169E31998002800D1E2E3002F00D009
:105C1000F1E3EBE307226648199940581A994018B6
:105C2000017940790002431800209A42314600D899
:105C300001469A4200D906461A913C460C340D376B
:105C40002E40012E1392129307D1A01D149053A839
:105C5000042231F0DDFE539800E0149718994F1C90
:105C60000621CD43199029F05FFDAD1D002E2AD0ED
:105C70006279FE2A1799159E00D1014601291998CB
:105C800001D000F0D0FE1F21CC060646A6431AD054
:105C90001897B9218B004649CB18197C59188F7B6E
:105CA000C10E8F4201D000F0C5FDFF2A01D100F0E6
:105CB000ADFDFE2A01D000F0C1FD1499097824F051
:105CC000E3F800F0B6FD1A9A159E00F0ADFE29200B
:105CD000C443159D0026B5E32C4602251598294698
:105CE00024F006F8E549611831F092FCE448451CBF
:105CF000B81C2AA931F074FD189931F00AF91698E8
:105D000006407309A8B2159900F0B2FD002E00D02C
:105D100011E2002C03D0FF2C01D000F0B5FD822051
:105D2000ADE52AA9384625F07FF9002800D143E3E4
:105D30000020159E082800D182E52AA931F09EFA9C
:105D4000F8E7C0462C2E0020F7FF000034080000C2
:105D5000F81C002B72D00025011D00D1FEE20028A6
:105D600000D09EE0002D01D100F085FD28462830AE
:105D70002826A95D407800024018C10501D500F031
:105D800086FD2946183153AC102231F0CFFDA85DB5
:105D90008006400F0022032100AB17C3049220A805
:105DA0001CA9012317F060F8159C014D00F0F6FEC8
:105DB0002C2E0020FFFF00003C09000034090000E9
:105DC00004050000E0438E1E0E35002A03D1F1B217
:105DD000284624F077FE002872D0159800F03DFE8A
:105DE00053A831F0C5FB002801D1FEF75CFC024648
:105DF00028322823C15C567836027618310501D541
:105E0000FEF751FC0121CC029E499F4D695C26435F
:105E1000C654330A537021F043FBFEF744FC2AA812
:105E2000007A022800D2B1E2189814990840082894
:105E300001D100F011FE179F802498E60C32951CCA
:105E4000881E31F0BBF900282BD190498E48445868
:105E500001201A902946324629F0E6F80546407896
:105E6000401CC0B228281CD3002D1AD04C34A91CC9
:105E700020A81990082631F0ABFB0A3520222046D5
:105E8000294618922FF042FD9120C4007E48001947
:105E90001790199932462EF0D9FE002801D100F052
:105EA00086FE7A4C784D295900221598E02A02D0B6
:105EB00031F04CF9FAE72A59FF21517000F0CDFD7D
:105EC000F2B2222029461A9229F0AEF8002884D096
:105ED0000746811C7DA819900826324618966C4BFF
:105EE000984739460A3146A83246694B98473946A1
:105EF00012314FA804263246654B98473946163171
:105F00001CA83246624EB0471A373EA83946189A46
:105F1000B04702261998314626F03AFF002800D1F2
:105F20005BE707462C942B942A942AA8199017967D
:105F300006460836222029461A9A29F075F8189044
:105F40007DA908221A92199D2846514B98471CA9F1
:105F50000422169230464E4B98471798287322AE6B
:105F60004FA93046169A4A4B9847083753AD10222E
:105F700028463946464B984722982EF027FD22AEF8
:105F80000096162328461999189A2AF05BFD3EA917
:105F900030461A9A2EF05AFE002800D01DE77DA840
:105FA00031F038FC4F993B4A374EB35800011B186B
:105FB0000D0EDD710D0C9D710D0A5D711971B158D9
:105FC0000818C17A0906344A521C0A43110EC172DC
:105FD000324834543248214631F016FDFDE6FA07C6
:105FE00001D0FEF7CCF900F03EFD437DDB07DB0D71
:105FF00001D1FFF7EAF80C314F78402F01D900F0BA
:106000002BFD30F0D1FD921EBA4201D200F024FDEA
:106010001A94891C0078199053AC204631F0E6FCA4
:1060200031F0EEF90570002646702046002F00D1B1
:1060300049E104460578282029462FF0DFFC29385D
:1060400009286BD8800001A10858874675600000B8
:10605000A5600000B5600000C56000001D61000083
:106060001D610000D76000001D6100001D6100007F
:10607000EB60000015982EF0ADF84FE0F10700003E
:106080000280FFFFB50400002C2E00203C09000018
:106090000D590300E4040000FFFFFF072A0500007C
:1060A000DD6103002A2131F017FC002836D01721CA
:1060B000490104E02B2131F00FFC8D218900ED4ACC
:1060C000511828E02C2131F007FC23210901E94A6D
:1060D0005118042220E0B9208000E64A115AE6480F
:1060E000125A15982DF0D6FF18E0E248E349415CBA
:1060F00001200840490700D5801C2AA90880DD49F5
:10610000149A895CC90702D0001D2AA9088032218F
:1061100031F0E2FB2AA902222FF0F8FB2A2DD54903
:1061200002D1172040010E522046601C7F1E7DE7E1
:10613000D348D0490E18B079F179081840000830DA
:1061400000257D7016973871C1B2159823F0D0FDE7
:106150000746082231F062FCB079B871F079FC1D75
:106160001A97F87153A9087037460837B0798542F5
:1061700007D20222204631F04BFC6D1CBF1CA41C30
:10618000F4E70446169FE1B2C0B2F27910188842D3
:106190000DD9E8B240001A9A101808304900711859
:1061A000083131F01DFB6D1C641CB079EBE71A99C6
:1061B000887940000818C01D53A931F0C7FB159C11
:1061C000199D189EB81C2AA931F00AFB179828407F
:1061D0004309AC48214632464AE338780121014060
:1061E000179B159E169FA848A24A105C4242424146
:1061F00013424DD1002B4BD0002901D0042000E0E8
:1062000001209C4D1A9A189B16979C496C18A272F3
:1062100059789A7812025118E18019788906C90FC5
:106220006172E072002020730627304631F0CCF90D
:10623000217B964AAA1830F06DF91F22D2060B4630
:10624000934301700A0C8270090A4170190EC170E3
:10625000E17A41718E482C5C1A9804405F20C0009E
:10626000285C45424541002C00D1179D159E3046C3
:1062700031F0AAF9002C169F0AD0002D08D04079E1
:10628000012805D18348002231462DF017FBE6E3B3
:10629000189A5078917809020D18147831F0B0F8F6
:1062A0007D49744A525C521CD3B2FF2B00D10022AC
:1062B000704B5A540270802141703C40630977480A
:1062C00031462A46D4E21A98199901404B0974487C
:1062D0001599CCE2D624B3E032213046119A2DF044
:1062E00001FF002800D086E08CE48020069000208A
:1062F0001A9015981A99002907D10A9909020B9A40
:106300008918684A914200D9A7E307990902089AB7
:106310008D181A99491D22F039FC064661480C9ADD
:10632000824205D953480599405A7DA9088001E069
:106330007DA90A80B01C31F053FA099830701A9A7E
:106340003271701D2AA92FF0E1FA069870700E982C
:106350000D9901404B0954481599B2E70421159C49
:1063600031F050FB002101805049424B5958897847
:1063700001220A40827003D04D49595C2DF01CF86F
:106380004C48A5214A0031F037FB68E3179F0024F1
:10639000012801D0FFF7EBFB012131F019FBE321CC
:1063A0008900344A5158097807220A40511F4A424D
:1063B0004A410270FFF7DBFB199F012E1A9C00D0A7
:1063C00020E20121159E31F003FB00210170FFF74F
:1063D00040FA781E87412C213046129A2DF082FE19
:1063E0000028179800D13846002804D12B213046C8
:1063F000109A2DF077FE1698044063092E4835E276
:106400001C48199940581A99401830F04DFB0E3429
:106410000079801EC5B22046294624F053FB00288F
:1064200000D019E32D20214631F032FA002800D1A6
:1064300012E3811C2AA831F02FF9FFF725F98624F1
:10644000159D179E022131F08FF8077044702006C9
:1064500000D09DE017967DA8022631462EF06AF8FE
:1064600013900020034B0D2828D02AA930F022FEDB
:10647000F9E7C0462C2E0020EA070000FC080000C7
:10648000F307000004800000090900000C09000067
:106490000C05000039E90200440700003C800000C0
:1064A00044800000F7FF0000068000003C09000067
:1064B000FA0200001D430200438000005D20C0007E
:1064C00019181691F94C1F462AAD08221492284635
:1064D000A047F74978580C463B4613990F01C0195D
:1064E000817BC27B1202511812912C912E73491C90
:1064F0008173090AC1731859C1193EAE042213925F
:106500003046EA4CA0471799083153AD102228466F
:10651000A0473E982EF05AFAFB48FA494058C11954
:10652000C05D2FF007FD3E90129822902221159D0C
:1065300028462CF0B9F904461699149F3A46F04EB5
:10654000B0472046083046A93A46B04720461030AA
:106550003EA9139F3A46B0472046143022A93A4636
:10656000B04718340020082802D030F093FDFAE735
:10657000E54E1998305830F0E3F842180E32009486
:1065800053A82AA916232AF05DFAE520C000355445
:10659000DE48002329466AE13546FFF778F90123F2
:1065A0005FE2DB4829462D5C002D00D111E2D9487D
:1065B000085C002800D16BE28521FEF71AF8FF2F56
:1065C00000D112E2052F189B169A01D9FEF7A1FC03
:1065D000012801D0FEF79DFC267853A830F0D2FFA9
:1065E00053991798009015983A4633461FF006FFC6
:1065F000169A189B0646002801D0FEF78AFC2EE268
:106600007DAA284621462DF031FD1F20294622462D
:1066100028F00AFD002801D1FDF730FF4178032959
:1066200001D2FDF72BFF81782AAA1170C178517031
:10663000017991704079D0703821159827F070FC5D
:106640001790B148199940581A99401830F038FA03
:1066500046312020224628F0E7FC002801D1FDF732
:106660000DFF16904078032801D2FDF707FF179819
:10667000801C169DA91C31F0B3F828791799087170
:10668000687948716978C91E032242439142159D79
:1066900001D0FDF7F4FE16998E1D179D09350027D0
:1066A000092F00D9D7E2C0B2874200D3D3E2E81E57
:1066B000022231F0B3F9B07828707F1C1798407926
:1066C0006D1DF61CECE790489349405C000700D52F
:1066D00038E100200446179D1A9E0C32002E17D078
:1066E0008E49894D695C890701D4FFF776FB164610
:1066F000002800D05BE153A8007AC00988496A5C91
:10670000FE231340181868548648159929544EE101
:10671000164617957720C1007B4B5A5C7520C00048
:1067200018180023042B00D122E101259D401542B9
:1067300000D11FE15B1C001DF4E7C07AFF28179D04
:10674000134601D18B2300256F4880591A994018B0
:1067500030F0A4F9077B0221159C20461A911E46B1
:1067600022F014FA07702F464670002D0ED06E48A6
:1067700065490858867AC77A002120462CF094F89B
:10678000067047702F46801C2EF09EFD1D2131F0B3
:1067900039F9054600201D2802D030F0A7FCFAE7A1
:1067A0000020687028701A98E8736048433080268B
:1067B000EE72A872287C042101432974189880067F
:1067C0000DD45B485049095C53A82CF0F5FD287C9A
:1067D0003043287453986875000AA87508E0524839
:1067E0004949085830F0A9FB287C0121014329744C
:1067F0001599002F02D04F48434A11544E4829F0B2
:1068000023F92CE10021159EFFF723F82AAD284635
:106810002EF0A4FC2A98204080192A901498411C3C
:106820007DAE30F0BFFD781C3288C0B2294624F01E
:10683000C9F905461A9A159E189FF5E0052A159E76
:10684000189F00D9EEE000201399129B994200D9BD
:106850006BE104466AE10027159E2D7830F0D0FDEB
:106860001A990170477025406B0934483146189ACF
:1068700027F0B6F9F3E02C48234D2858C07AFF28BA
:1068800000D101E1032000E18320FEF7F8FF80063C
:10689000400F25491C4D69588A7A002A00D141E1F0
:1068A000C97AFF2900D16CE103216BE10D59030086
:1068B000E404000053A80678002E01D1FEF7DEFCA8
:1068C00053A8451C0620C043801D1A903746002F50
:1068D00000D13CE15D20C0000B49081830F079FD83
:1068E000002801D1FEF7CAFC0822284614492EF0E0
:1068F000ADF9002801D000201A907F1E0835E6E788
:106900000D590300E40400002C2E002047800000F5
:10691000380800005E080000FC080000D5070000F1
:10692000B9030000250700003C0900000280FFFFBA
:10693000FA02000026070000C54D01002B80000070
:1069400058B103001998C007C10D53A8002900D001
:10695000BFE61399002900D1BBE68057002800D577
:10696000B7E601201A99484001D1FEF77DFAB0E65A
:106970008A241CE0179B002B19D02A43F04B5A5451
:106980003178C17039787A78120251180180159ED9
:106990008670092131F032F8044653AD082230F0F8
:1069A000DFFD287AC0092072E648314627E7022138
:1069B000159D30F0D9FD31780170447038787978C0
:1069C00009020A181698149901404B09DE48294615
:1069D0004EE7159C0C54DD48085C42224243DC48DB
:1069E00031F00AF830F0B6FE39E026460C352AA818
:1069F00030F0C8FD00246878844205D253A82AA943
:106A000030F0C0FD641CF6E7711C7DAE30F0CAFCAE
:106A10006878328853A924F0D5F80646189B169A50
:106A2000FEF777FA00251A9AB878F978090208185B
:106A3000C84988420ED8002A0CD1387879780902E2
:106A40000C182A2130F0DAFF00212A2911D030F069
:106A500081FBFAE7002E02D0304621F007FD1BA88B
:106A60000378002B02D1159821F000FD7FB006B00D
:106A7000F0BD691E8D41E901417016990170C48411
:106A8000304627F005FBEAE70220159C00217BE059
:106A9000AF48FE2100221A921AF0A2F9681E199935
:106AA000A74A5158C0B2169A42432FF054FF287E8D
:106AB000697E09020818217B627B12025118884204
:106AC00004D0A54A904201D0914229D114950C35A9
:106AD0002A460F32A87B4100501816901992A37BCA
:106AE00058001890301817901698401C1690525C59
:106AF000009300201699334623F0A4FD1695AA7B37
:106B00001798431C1898305C00900120199923F0C5
:106B100099FD92488A4A105C9149515C01435CD1CD
:106B2000862479E00021159C2EE0012414990B782D
:106B30000090304619991FF061FC0546002800D0EE
:106B40001794002D179A00D06EE72E466CE71A981E
:106B5000002801D0FEF792FB53A8441C814D002E63
:106B600076D00822204629462EF070F8002805D05D
:106B700020462CF079FA204629F01CFF761E0834B6
:106B8000EDE70221159CF84D0123002200AE07C657
:106B90000392049320A81CA916F066F9F44828581B
:106BA00002214170FE482C54FE48214627E6EE485B
:106BB000EF494658B078C0073DD120A8FF212DF0FD
:106BC000B9FCEA49884201D1FFF76BF92EF0B8FA17
:106BD0000546E548E64946582EE00D3714990D3133
:106BE000F348E14E3018022530F012FD1698C07AB5
:106BF000F0497054432040013018394630F008FD08
:106C0000ED483018E17A817715998176EB482FF0BD
:106C100087FF002856D08A241598214629F0A6FC23
:106C2000D14DE14EA85D214629F0A0FC1A99A95545
:106C3000DE48295413E700257078012801D0FFF7BA
:106C400030F9CC481899415C002946D1199146E0A9
:106C50000024FEF713FBC44D199EA8591A9FC019B2
:106C600030F070F9091B891E30F060FA0621159882
:106C700023F03EF8A859C0198179C279120251183F
:106C800045182C460C34284644302AA930F07AFCAA
:106C90007D98482168544835000A68700027189983
:106CA000677021702024159D284630F05BFC53A9A5
:106CB00030F0A0FE28461FF035FF002800D1CEE6B8
:106CC0002846CAE600241598214629F04FFCA6481C
:106CD000B549405C2146FDF78DFCA7481990B81DC9
:106CE000012901D0FFF738F8B17A00270229169759
:106CF00007D0012901D0FFF72FF8102018901A981B
:106D0000169032464C3231468C313EA81A920AF027
:106D100017FC0C3699489A493A46083224D0924AD0
:106D2000D3191A5C5B5C7F1E9A42F5D09A421BD243
:106D30005D20C0008C49091814961A9E1CE0C046BC
:106D40002C2E0020951C0200348000003508000025
:106D500009470300F7FF0000FFFF00005C08000088
:106D60008208000058B103005D20C0007E49081869
:106D7000179009191A981490824B2AAF08243846A4
:106D8000224698473846083020221A9214997D4BA3
:106D9000984738462830179922467A4CA0473846FB
:106DA000303031461A9E3246A047234653AC3EA9A6
:106DB000204632461E46984720462030502239460B
:106DC000B0477034204619991A9AB047169800288F
:106DD0001CD053A8902122AC224623F072FF4EA86B
:106DE000012101704FA8102230F0C0FB00201028B4
:106DF00000D1A3E04FA9095C5C224A407DAB1A5444
:106E000036224A4053A90A54401CF0E753A8902167
:106E100022AA199226F0C4FD4EA81A9001270770E5
:106E20005A497DA8024658C958C20421417000241D
:106E30007E9429F057F8064655481A9930F0D6FD49
:106E40002DF0E4FB1A96366853AF402138462FF0F8
:106E500043FE38461999189A30F038FA4A480268C1
:106E600037462037384621469047002856D153AC44
:106E7000484920462FF075FA1A98006840222146AA
:106E80002BF032FF002849D13146283120223046EC
:106E900030F01CFA53A840492FF063FA3A480268D0
:106EA000002138469047002838D11A98006853A925
:106EB00040222BF019FF002830D11A98006834497D
:106EC00001222BF011FF002828D11A98066853A937
:106ED00030462AF093FF002820D12B480268304624
:106EE000203000219047002818D130462830202437
:106EF000314630F009FCA5204000B63030621A98C7
:106F0000006853A922462BF0EFFE002806D11A98FC
:106F100000681D498A682030204990472CF052FDB6
:106F20001E4946AC202230F001FD1A9800682EF070
:106F300043F81CA8102230F019FB11E053AC204696
:106F400010304EA930F002FD7DAE324610321121D4
:106F5000204623F0B6FE20211CAA304623F0B1FEC5
:106F60000020FEF7F9FEC0462C2E0020FFFF000097
:106F70003C090000C46A002044700020EF020000B9
:106F80008F0400000D5903007800000F00B10300CA
:106F9000484900205C5C5C5C6A6A6A6AC8490020F7
:106FA00027070000E1E80200380800005E08000042
:106FB0003A0800003C0800004408000021DB020001
:106FC000F0B5FFB0DCB0B4A82A90B4AEB4AB9DAFBE
:106FD000B4AC38A8DB4DDC496A5CDC49695C52071B
:106FE00002D40A0700D5ACE0490701D401F081FDC5
:106FF0002A9915312A913146903122912636194627
:1070000015312891591D27910E33249339464E315D
:107010000E9139464D310D913C3721464E311E912E
:1070200021464D3119913C341A9403213491C90100
:107030004018339000202C2805D0291833229201C3
:1070400030F04CF8F7E74720C14363202B908000D5
:10705000379030914731332080011F90369129506D
:1070600000203799814203D038A930F023F8F8E79F
:107070000F970496339836990160B5482F180F2062
:107080003590002632963146022E3CD0F4B20025CF
:10709000B4AA0C232046294628F086FC411C22D0A5
:1070A000002823D1B4A99DAA204628F055FC01460A
:1070B000483101D000280FD19DA800880E2810D893
:1070C000798801220A437A8038803599884215D21E
:1070D00029463296359012E00F20388030982530BE
:1070E00004E00F2038802EF0B1FF36987A880546EC
:1070F00001218A437A8020462CF0D6F92946761C55
:107100003F1D904DC0E7359E0F2E38D090482C186B
:107110000025329F022D2ED020880F280ED0AF429E
:107120000CD0B0420AD00F20208060880121884313
:107130006080E8B22CF0B8F9309947316D1C241DFD
:10714000E8E733208001012129500024E0B2012822
:1071500003D81CF007F8641CF8E7F0481821295000
:10716000CD20000100212954774AA85C0621014363
:10717000A95401F0B9FC0E2E00D03099714D269122
:1071800073482E1800273697022F30D030880F28EA
:1071900002D17F1C361DF7E7FCB238A9204613F058
:1071A00053FF014638310FD0411C13D0002814D1B1
:1071B000339B03CB2B9A5201AA1810661878CD2363
:1071C0001B01E854D166E4E70120B8403699014339
:1071D0003691DEE72EF03AFFDBE770880121884325
:1071E00070800F20308020462CF05EF9D1E700201F
:1071F0001024202800D198E00C22424338A9891895
:107200004968C74B194204D038AB9A181289002A32
:1072100002D1401C0C34ECE7461C880F38A93246DA
:10722000BF4F1F2A08D80B593B4202D09B0F9842F0
:1072300004D1521C0C31F4E7014602E002282FD1A0
:107240000221339E369AD4B22246C240D00715D0CE
:10725000C8B2022810D232682B9B5B01EB181A6669
:10726000CD2214012955800018186421405A0E2897
:1072700046D118F023FB45E03698C4B2CD2000017A
:107280002A5C012108469043C440E2074DD08200A9
:10729000AA18A44BD45A8C43D4522CF005F944E0DC
:1072A00001461F2E1AD838A800599D4A104212D004
:1072B000870FC8B2B8420ED081006918244A8A18D4
:1072C00053880125AB431F4D53800F22204BCA52D8
:1072D0002CF0EAF83946761C0C34E2E73698C4B252
:1072E000C8B22246C240D207339EB1D10021379A9C
:1072F0008A4201D101F000FC38AA2FF023FFF6E703
:1073000016F090FB00203799814203D038A92FF066
:10731000D1FEF8E7309847303060285D38A913F087
:1073200093FE002801D02EF091FE0749685C0222EE
:1073300025921043685400207B4C08280AD02FF077
:10734000A9FEFAE72C2E0020D10C000079040000E1
:10735000C40C0000B4A8401C2D90B4A809302190A2
:107360009DA85B300C90B4A80146083117910146E6
:107370000C311691014614311591014624311491B6
:1073800001462C31139101463D3112914F30189036
:107390009DA8014608310A9101460C310991014628
:1073A0001431089101462431079101462C31069190
:1073B00001463D3105914F300B90B4A8801C0390DD
:1073C00000215A4828181D90594828181C905948DF
:1073D00028181B905848281823905848281820909F
:1073E000574828181190574828181090359120298F
:1073F00001D101F053FB0C203691484338A90D18F8
:1074000069680B46464A1340379301D101F070FA80
:1074100038AA121812893392002A01D101F068FAB1
:107420008A0F32929200484B9A18484BD75A0E2F27
:1074300001D901F05DFA01223192BA404F231B02BB
:107440001A4201D101F054FA38AA101840892F903D
:107450003D483F4A815086183398B0807F20359C44
:107460002E9004401C2C00D914E13198A0403949D9
:10747000084200D10EE1344837494158002906D06E
:10748000369880B28847002801D101F031FA601E99
:107490001E2800D99EE1800001A108588746C046F9
:1074A0005D750000A376000081770000D5770000AD
:1074B000D577000005780000C3780000D57700007C
:1074C000DB780000E5780000EB780000017900002F
:1074D000D577000011790000E1790000D577000030
:1074E000D5770000D5770000857A0000D5770000B9
:1074F0009B7A0000D5770000D5770000D577000093
:10750000D5770000D5770000B77A0000BD7A00007B
:10751000D5770000D5770000D77A0000CC0C0000AA
:10752000FFFFFF3FC60C0000185000207C04000045
:107530003702000092040000E40C00002A0C000056
:10754000F40B00000A0C00002C2E0020C40C0000DC
:10755000DC0C000001460018BC0C00002F98042829
:1075600001D100F09AFF0328329D01D100F09BFF6A
:10757000022801D001F0BCF99DAC5C2620463146C2
:107580002FF0AAFA284637992246334627F0CEFC38
:10759000002801D001F0ACF99DA8329000780121BB
:1075A00037910840F74FF84EB95DFE220A40101897
:1075B000B8559BAC042220460A99F44EB0471D985A
:1075C00021462CF04FFC0920C001381808250999E4
:1075D0002A46B047329C207802210140EA4BF85CF1
:1075E000FD2202405018F85489208000381831904C
:1075F00008992A46B04733469E981026F041B92193
:1076000089007A1833922F917850FF20E0497854FE
:107610006078E04978546088DF4978529120C00052
:10762000381807992A461C4698470F980078DB4976
:1076300078541C9D284606993246A047D748385CA6
:107640002874D748379939541B9805993246A04772
:107650002FF065F90D9800783399C8730E9800786B
:1076600088730D462B20000138180C220B99A04777
:107670006D88CC498D4201D101F025F92F98385AF7
:10768000884201D101F01FF9C749785C379A10434D
:1076900001F01DF9BB4AC54BD05CFD210140D1541E
:1076A000E9E6B4AA18232FF059FE002801D001F012
:1076B0001FF9052005020121284625F001FD0028BB
:1076C0004AD004460126102329463246B84FB8470F
:1076D0002EF0FDF9B4A908222F46339525460C4615
:1076E00037912EF013F90023284639463246B04F21
:1076F000B847617A2C468279C3791B029A18037ABB
:10770000407A0002C0180004801801701123284636
:10771000339F394635463246A54EB047B7992DF0CE
:107720009DFBA44BB047B6992DF098FBA24BB047F8
:10773000379E71892EF072F80720430320463946A0
:107740002A469B4DA847F17D2EF038F8F07D0028A1
:1077500002D0204621F042FB2FF08FFE002801D1FD
:1077600001F0C6F820210122944B2EF0ABFF2EF041
:10777000AEF9B4A9CA890280497B817001F0B8F8DA
:107780000020804D8E4969580A78904200D3B4E1B8
:107790004A788B781B029A18CB7809792FF0E1FB95
:1077A00082008A58917ED37E1B025918137F547F22
:1077B0002402E3181B0459180AD0537E309A183259
:1077C0005A43002A04D000230B70491C521CF8E7CE
:1077D000401CD7E7C92000016A490C1800256948F8
:1077E00078494058854201D301F082F821683698E3
:1077F00086B230468847002801D000F029FC6D1C75
:107800001434ECE7B4AA18232FF0A8FD002801D007
:1078100001F06EF82FF06EFA0023064621462A4644
:10782000634FB847B4992DF0B1FF2FF0A7FC2B465A
:10783000B847B5992DF0AAFFB598FA21379148437A
:1078400029F068FA02233046339621462A46B84783
:10785000B6992DF0E3FFB4AF38895B4948435B49E3
:1078600040182FF0FCFD45214901464A50502CF0AC
:10787000D5F803232FF082FC4D4EB04779892DF0C7
:10788000CDFF7889379948432AF0FEF90423339EC7
:107890002FF074FC464FB847B7992DF077FF0523BA
:1078A000304621462A46B847B8992DF06FFF062387
:1078B000304621462A46B847B9992DF0AFFF01F06E
:1078C00017F828682E900020414C2F9E042800D1E4
:1078D000C8E19DA92FF0EEFBF8E72B98400129495C
:1078E0000B58EEE027483B49EAE0002332983799ED
:1078F000042B00D139E29DAC0022E2545B1CF7E777
:107900000020042800D152E29DA92FF0D3FBF8E714
:107910002F98012800D067E3B4AA08232FF01EFD9A
:10792000002801D000F0E4FFB4982B4940189B21B7
:107930008900144A50509D208100002050523399F4
:10794000C9080901814201D100F0D2FFB59A224B4A
:10795000D2180C4D214EAB591C181A54130EE3705B
:10796000130CA370120A6270AA59121800235373E1
:107970001373AA591218D37A10241C43D4721030EE
:10798000E0E7C0462C2E0020790400000D590300CA
:10799000FA02000036020000760200006B020000CE
:1079A0006A020000FFFF000014070000D10C000075
:1079B000C566030001E0000002E00000FEEF0000E9
:1079C000AC090000B80C000090D00300FF3B0000A1
:1079D00018500020640C0000FF030000E4040000C5
:1079E0000822239830F01AF82F9C022CF54D01D173
:1079F00000F0D3FD012C01D100F07EFD002C01D060
:107A000000F076FFB4A898212FF066F833989828F4
:107A100001D000F06FFDB4AA98232FF09FFC00283E
:107A200001D000F065FF22980378082B01D900F0FF
:107A30005FFF22984078102801D900F059FFA72154
:107A4000C900F64A53545118487000200121039A86
:107A5000049F984201D300F0B2FF531E1B781524F7
:107A6000A401EE4E35596D186D1E2B7053781578A4
:107A70003459661865547370401C229B1B78C91CCE
:107A8000121DE6E700233298379C042B00D19BE1BE
:107A9000B4A90022CA545B1CF7E7B4AA2423329885
:107AA000379C214627F080FF002800D1DBE228F038
:107AB00080F900F01DFFD948D94901E0D748D949DC
:107AC0004358002B01D100F013FF32983799339AB5
:107AD000984700F00DFF2F98002801D000F008FF14
:107AE0000023CE4C32983799102B01D100F000FCC6
:107AF000B4AD0022EA545B1CF6E71821339829F054
:107B000083FE2F9000212E912F98814201D100F009
:107B1000EFFE3191B4AA18232FF020FC002800D0EA
:107B20009AE0C14828580178401CB4AA5278339290
:107B300000252A4691421CD0077844782402E41993
:107B40008778C6783602F619360434196759BC7E30
:107B5000FE7E360234193E7F7B7F1B029B191B047D
:107B60001B1903D03B78339CA34204D0521C2D1D1B
:107B7000E0E70B4600E013468A42A84D64D2017844
:107B80004278120251188278C0782FF0FEF99900DD
:107B90004058817EC27E12025118027F437F1B0231
:107BA0009A1812045318417E3020484318180022B6
:107BB000914206D01C7AE40702D0521C3033F7E71A
:107BC00018468A4240D2017A01220A430272B4AABC
:107BD000117801705378437053884380B59B0371CB
:107BE000279E337874782402E318C380B378F4783E
:107BF0002402E318C385537A037252890282002952
:107C00000BD1B7994182249B19785A7812025118E6
:107C10009A78DB782EF0B9FF4161B4A9498A02460F
:107C200028320185B9999170289A2FF00FF8818533
:107C30001C21242903D0FF224254491CF9E727F0D4
:107C40009BFA2E98401C2E902E98002802D01EF0F1
:107C5000DFF801E000202E903199379818303790E6
:107C6000491C51E79DAA042332983799299327F09C
:107C70005DF90746002803D19D9868496B4A8854EE
:107C80002AF014FB65486A4946521C21002E3191A6
:107C900000D030213398001F002E01D02C223192C9
:107CA000379A161D29F0B0FD05462E986060002415
:107CB000204629462AF045FF5E490870339529463B
:107CC00020F064FF224631462E90544C329D33986A
:107CD000824201D300F001FC002F00D0FDE3379277
:107CE000B4AA28460E461CF01DFE0746002837D1D0
:107CF0002C97B4A82CF0FAFB4F496258299B349971
:107D00000840010151180D7A4F7A3F027D198F7A90
:107D1000CC7A2402E419240467193D46474C2540D7
:107D2000002B04D0002D05D0401C5B1EE7E7002D82
:107D300000D0CEE308313246404B1A401F23DB0609
:107D40001F40BB180A70140C8C70120A4A701A0E6D
:107D5000CA702E990870491C2E91304C329D2C9F70
:107D600031983118379A521CB1E79DAA042327F0A5
:107D7000DDF80028294C00D1D8E29120C000241859
:107D8000082220462E492CF061FF002801D100F086
:107D9000AFFD2CF0EBFE002801D000F0A9FD002182
:107DA0000122B4AB204611F091FE00F0A1FD0023AA
:107DB0003298379D082B45D0B4A90022CA545B1CC9
:107DC000F8E7C0462C2E0020B4AA0423214627F051
:107DD000EBFD002801D000F08BFD241DB4A8017834
:107DE000192086010D4A91550B20C001151800205D
:107DF0000746C9B28F4201D300F07AFD002801D0B6
:107E000000F076FD0C23329821462A4627F0CCFD5F
:107E10007F1C0C340149895D0C35EAE72C2E0020CB
:107E2000680C00006C0C0000AC090000B2040000FB
:107E3000B604000018500020E4040000FFFFFF0714
:107E400060B103009DAA04242946234627F06EF85A
:107E5000002801D000F04CFD01279DA840780228A1
:107E6000259800D32046349909022F91390229918F
:107E700044190026334635462C979DA80078854244
:107E800001D300F035FD002B01D000F031FDB4AA84
:107E900008233298214627F049F803462D980078A8
:107EA0000106490F052900D19AE0012909D12D9930
:107EB0004978090208182F9908402999884200D169
:107EC0008EE0319333963794E3208600FC4A905934
:107ED00011246C43015D39430155B4989159091936
:107EE0008871B4A8007823F00DFD00280BD0F44869
:107EF0008059339E80190021379C319B11296FD006
:107F00002FF028F9FAE72D9F3878ED4989590A5D55
:107F10000007400E87231340181808553878E849A1
:107F2000895909194A781202C0001F23DB02134045
:107F30001818000A48702FF023F801462F9A1140B4
:107F40002C9A5202914209D1DD49895909194A7B7B
:107F5000C006C00FFE23134018184873D848815933
:107F60000819095D2EF01DFC4A05520F06D1B4997F
:107F7000D44AD34B995401782EF013FC2D9A5278A1
:107F80009207520F06230F469F43BA180B0A4370FD
:107F9000090C81700270B4A8C178C94FBA19BB59D5
:107FA0001B195971B95909192E9B0B715168007829
:107FB0000D54B598B9590A19095D53781B0259181F
:107FC00093781B04C918C006800BBF4B19400818D2
:107FD000010C9170000A50702C9F379C339E319B8E
:107FE00008346D1C113648E72D68B4AA04232FF01D
:107FF000B5F9002801D000F07BFCB498B3494018D3
:108000009B218900AE4A50509D20800000241452CC
:108010003398001F01D100F06BFCAD494968691A23
:10802000AC4A914201D900F063FC80083799091DE0
:10803000C2B232981CF02EFBA5480078002801D16E
:1080400000F056FC20F012FAA148047000F050FC39
:10805000E46800972F98019030463299379A339B05
:10806000A04700F045FC24343794B498944F9A49C3
:1080700078547A18B4A833904079411E884102920E
:1080800010770C222F92209C204621992DF03EFC47
:1080900000206070E070E0802990A0808F4D28461D
:1080A000319E314625F00CF82C90294632468C4BF7
:1080B0008C4FB8472A9B19785A781C4612025118DF
:1080C0002DF0ACFB2C9F384629463246259B854D2A
:1080D000A847217B31402DF071FB032338467F49AF
:1080E0003246804DA847217B89072DF0C8F9207BB7
:1080F00025990840400824F07FFE0423384677493C
:108100000C463246A8473399C97D2DF057FB05230D
:10811000384621463246A847BA992DF04FFB062330
:10812000384621463246A8472A9C217B4907C90F79
:108130002DF044FB0723384668493246A847217B87
:108140000907C90F2DF03AFB257B67485C4C205C82
:108150006900102319402E93EF22024088185840DE
:1081600061496054082338465C4932465D4CA0475B
:10817000E906C90F2DF022FB09233846574932463C
:10818000A04725462A99097B8906C90F2DF016FBC1
:108190000A2338463C4651493246A847339D697EFA
:1081A0002DF00CFB0B2338464C4932464D4FB84757
:1081B0002A99097B49062DF062F920464749324643
:1081C0002F9B484FB847A97E2DF0F8FAA87E474963
:1081D0003B4A50500D232746204640493246414CE9
:1081E000A0472A9C217BC9098279C3791B029A186E
:1081F000037A407A0002C018000480180170207BC6
:10820000C00926F03BFF0E23384634493246354C30
:10821000A047E97E2DF0D2FA0F2338462F490D46AC
:108220003246A0472A9C617B31402DF0C7FA607B23
:10823000C007C00F26F0D0FA3846294632462E9B9A
:10824000284DA847617B89072DF019F9112338467D
:1082500022493246234DA847BB992DF0AFFA12238D
:1082600038461E4932461F4DA8472EF0D0FD2DF04E
:10827000D5FA13233846194932461A4DA847A17A30
:10828000E27A120251182DF0C9FA33980079411E92
:10829000092900D919E10A4D43003298379C21463B
:1082A000119A27F081FBB4A909794A001319002813
:1082B00000D1A9E2309E473600203190AFE2C0469F
:1082C0002C2E0020FA020000FF1FFC00FF0300001C
:1082D00018500020FEFFFF7FEC0B000057FC000051
:1082E000FDFF0000C5660300FC080000DC0800007C
:1082F000B4AA102326F01AFE002800D0F8E2B498A1
:108300002521890160526018B4A94A888281B59AF2
:10831000C281CA880282B69A428249898182B7990B
:1083200001840020014623F0D5FBE1E20020102863
:1083300003D0B4A92EF0BEFEF9E70120000233906D
:108340003798071D002001469DAA1278914200D35C
:1083500013E5002800D010E59DA84078012837914A
:1083600001D0102500E00D25B4AE329839463246D2
:108370002B4626F0DBFD81218B00E258B17A0B26DB
:1083800071435418617AA27A12025118339A114239
:108390007ED12C952E902F970934B4AA1D46D37AFE
:1083A0009B075B0C31969F2636020E409B19319E2F
:1083B0002170190A6170A14F7859917A714341185F
:1083C000887A00024004800F19D0B4A8C07A01282E
:1083D0002BD1062208469A492DF098FAB698974F65
:1083E0007959B4AA937A7343C918030ACB71887177
:1083F000B7987959927A72438918087226E0B4AE18
:10840000304626F089F8B6987959B27A319B5A43AA
:108410008918020ACA718871B7982EF072FAB07A78
:108420003189319E1DF0D0FE10E0B4AE304626F00A
:1084300073F8B798814F2EF064FA7859B17A319E6B
:10844000714340187F4A110AC17182717959B4A8E9
:10845000827A724389182EF0C6FC339B1A434A7203
:10846000120A8A727959827A7243891800224A72F2
:108470007959807A70430818817A10220A438272EF
:10848000832080003958491C39502F9F2E982C9DED
:108490007F193799491C694C56E7B4AA64232EF01A
:1084A0005DFF0446F0E09DAA5C232846379926F03C
:1084B0003DFD0446002800D0E6E00020642800D1FD
:1084C000CAE0B4A92EF0F6FDF8E7329C379D299E4C
:1084D000A7E10027594C329D31462F98002806D03D
:1084E000002F04D13398C2B228461CF0D3F8564866
:1084F0002554FDE1514D2F9C2CF0E8FA00279D9763
:108500009DAA042632983799334626F00FFD00289D
:1085100005D0A721C9006F52022C3ED05CE02DF09F
:108520008DFB1818339B1B1F9BB2834235D13098AB
:108530004730102AEDD81029EBD8002A394600D14F
:1085400066E22E9631973798061D002001251146C8
:1085500007468F4200D354E2002800D051E2B4AA6B
:1085600004233298314626F0E1FC00280FD1B4A94B
:108570004A7815239B01314CE4586419641E22701B
:1085800049882E4AD25853195155090A59707F1CEF
:108590009DA90978ED1C361DDBE72CF097FA002425
:1085A0009D949DAA0427329837993B4626F0BEFC3D
:1085B00000280ED131942DF041FB1B183398001F79
:1085C00084B2309847309C4202D1102A00D898E1FA
:1085D000319CA721C9006C52002800D088E10024FA
:1085E000042516491948085C844210D218480858D6
:1085F00041198978032907D1405D23F083F90028C8
:1086000002D0E0B229F034FE641C0835E9E71148D5
:1086100008580021082902D02EF09CFDFAE700201E
:10862000802800D164E10549094A89580A18095C83
:108630002DF076FC00220A700830F1E72C2E002085
:1086400058B10300FFFF0000B4040000390500002A
:10865000440500003C050000B4A89DA95C222DF053
:1086600055F90C9800781E9B597BF8220A40072187
:1086700001405018587330984730CB900020C143C8
:108680009974090AD9741875002C00D030E1B4A887
:1086900037900078012132910840F94FF94D795D0A
:1086A000FE220A40101878559DAC042220461799E6
:1086B000F54EB0471D9821462BF0D4FB0920C00190
:1086C0003818082416992246B047379800780221B6
:1086D0000140785DFD2202405018785589208000C5
:1086E000381833901599224625463194B0473346C1
:1086F0004320C0003A182E92B5981026F041B921B7
:1087000089007C182F942C917850FF20DF497854F1
:108710003799487890774888DF4978521E9C207DA9
:1087200090759120C000381814992A4698471A98D5
:108730000078D74978541C9D284613993246D24B6D
:108740009847D348385C2874D248329B3B541B98D6
:10875000129932461E46CC4B98472EF0E0F81998F5
:1087600000782F9DE8732078A873379800788009E7
:108770002E990875607B8107C90F6973F64BF9580C
:108780004007C00FC003F20391434018F8502B205C
:10879000000138180C221899EE4B9847607B512144
:1087A000C9007A5AC007000E80239A4310187852E5
:1087B000CB9820F00FFFA07CE17C0902081828F07C
:1087C0003DFA607B31990840C00826F057FC6D885F
:1087D000DA498D4207D02C98385A884203D0DF49B5
:1087E000785C304302E0DD49785CB043785408227D
:1087F000339C2046D2492CF029FA002878D0CF4863
:10880000854275D09BAA6FE00298C1711018C0888C
:108810000026CA4A904202D1481ECA496854329C76
:108820001D46B4A8319900291FD0807900281CD09A
:108830000A281AD8430020462946109A27F0B4F88F
:10884000B4A989794A005519002802D0309E4736CC
:108850000BE0029841771018808B0026B74A9042AF
:1088600003D1481EB049B84A8854B4A8002E01D09C
:10887000FFF71DF9C079002801D1FFF718F9042886
:1088800001D9FFF714F961214901A74A52184300A1
:108890002046294627F088F8002801D0FFF707F97D
:1088A000B4A8C079A049A94A885489184200895AB5
:1088B000A24A914201D0FFF7FAF8401E9A49A34A12
:1088C0008854FFF7F4F8A549785C379A9043319CB7
:1088D0007854082220469A492CF0B8F9002807D08D
:1088E0009648854204D09CAA284621461BF052FB9C
:1088F0003699491C3598401C35908B4D8D4CFEF7B0
:1089000076FD1029319C00D963E6002A214630D03B
:108910003798041D00200125114606462F978E42E8
:1089200022D2002820D1B4AA04233298214626F06E
:10893000FDFA002812D1B4A94A78339215239B017D
:10894000794AD2585219521E339F17702F9F498867
:10895000754AD25853195155090A5970761C9DA968
:108960000978ED1C241DDAE700286F4D319C00D0FA
:108970002FE6B594B49488003799254644189DA8ED
:108980004078854270D2E119B4AA0823329826F0C3
:10899000CDFA00286AD1B598634B6D4E9959CA1922
:1089A000C855000A5070B4A881799A59D2199170AB
:1089B000C0799959C919C8706D1C0837DFE70020C4
:1089C00007213A46229B5B78984200D307E6931F23
:1089D0001C785B78544D5E4EAD596D18ED1E6B7072
:1089E0002C70514D137807241C40AB595B185B1E4B
:1089F0001C701378DB08AC596354401C0831D21D3D
:108A0000E0E70028484D2F9C319F2E9E00D080E546
:108A10003546B597B49788003799401831903E464F
:108A20009DA84078864223D231984119B4AA0823E0
:108A3000329826F07BFA00281ED1B5983A4B444C68
:108A400019594A194855000A5070B4A8C17907222B
:108A50000A40195949198A70C079C0081959491929
:108A6000C870761C0835DBE70020B5E52E4DAFE574
:108A700000202D4D2F9C4FE52B4D2F9C49E5C046E6
:108A80002C2E0020790400000D590300FA0200008A
:108A90006B0200006A0200007602000020780028C5
:108AA00003D01FF0E3FC00202070002422482C504B
:108AB000281884802698483001D114F0B3FF1C4850
:108AC0002858002810D120462AF0EEFCCD200001C5
:108AD0002C542B98400128181821C166006E401CA8
:108AE00002D101201F996850104AA85C042101435B
:108AF000A9547FB05CB0F0BD30994731316038A9DE
:108B000012F0A2FA002803D02DF0A0FAFEF7B6FB6F
:108B100003CE2B9A5201AA1810663078CD231B0180
:108B2000E854D166FEF7AAFB2C2E0020D10C0000E1
:108B3000CC0C000018500020DC0C0000FFFF0000EF
:108B400060B10300F30B0000090C00001E0C0000D4
:108B5000440500000D59030014050000140700002F
:108B6000F0B5C7B0E94E0025358008200F90B070F1
:108B70006620032112913154AA20355230464730E5
:108B8000E349E44F0E242246B84746200794345464
:108B900030466E30E0490D242246B8476D200690DD
:108BA0003454F01DDD4906242246B847B4713046DE
:108BB0002730DB490F242246B84726200A94345434
:108BC000E843A42170503146A4318880AC36D548A2
:108BD000F06104200890F060D348D44A854203D065
:108BE000002151556D1CF9E70020D14B142804D009
:108BF000191800220A75401CF8E70020CD4ACE4B18
:108C000011466E31814203D000211954401CF7E710
:108C1000CA48D423C54CE0502046D430C84E314613
:108C20005831C160C7490A464C326F20C0000C90D1
:108C300022503031C448215031465C31C348215064
:108C4000314660318F200D90000111902150A721F5
:108C5000C9006118BE4A2032BE4C6D364E608A6033
:108C6000CC60BD4E314620310022BC4CAF48802A3A
:108C70000BD00759BD18B9540F0EEF700F0CAF7021
:108C80000F0A6F700832491CF1E7B549AF22D200D4
:108C9000A64810928150B349B34AC263A84A6432CD
:108CA00006C0B24F39463031B14A08388150B14917
:108CB000812292000E9281503146413141220B9225
:108CC000D20013928150E321890042183546553570
:108CD000303614914650A84E55609660A74AA84970
:108CE0004250A8494750C358A74E002E04D0002236
:108CF0001A705B1C761CF8E7E0218C4809914358F8
:108D000000260B9F042E03D000229A55761CF9E70B
:108D100086480C9940580023192B03D00022C254D6
:108D20005B1CF9E781488849405800231B2B03D07E
:108D30000022C2545B1CF9E77C4884494058002358
:108D4000042B03D00022C2545B1CF9E77748119929
:108D500040580023042B03D00022C2545B1CF9E7C7
:108D600000200346102B24D070490A59DD00561903
:108D7000575D71780902C919B778F6783602F61985
:108D800036047618171800220021082A02D0B95498
:108D9000521CF9E73170654909594A194E55310E8F
:108DA000D170310C9170310A51705B1C08300B9FEF
:108DB000D8E776485D4908580022109B082A02D05F
:108DC0002EF06CF9FAE71520800158490858002266
:108DD000302A02D02EF062F9FAE75448C058002237
:108DE000482A02D02EF05AF9FAE7504800680022CB
:108DF000EC2A02D02EF052F9FAE7654C4B48C06BD2
:108E00002346002B04D000210170401C5B1CF8E7B6
:108E1000464840680022042A02D02EF03FF9FAE7C3
:108E20004248534940580022402A02D02EF036F9D9
:108E3000FAE73E480E9940580022DC2A02D02EF074
:108E40002DF9FAE73948139940580022142A02D024
:108E50002EF024F9FAE7392000013449085800229D
:108E6000142A02D02EF01AF9FAE730481499405823
:108E70000021112902D02EF06DF9FAE7E5208000DB
:108E80002A49085821462031002902D02EF014F832
:108E9000FAE726483B4940580021302902D02EF0FD
:108EA00059F9FAE72148364940580021E02902D013
:108EB0002EF050F9FAE7012236481C4D2A54364C60
:108EC0002220215C0029049200D081E22254E06D2E
:108ED000002800D0FEE700251895179516952F4815
:108EE0002F4916AB2A4627F021FCE065114E1636B5
:108EF000304629F0DDFB1190002800D12EE2119FB1
:108F0000AE424FD0002078556D1CF9E70840002094
:108F1000A4B003000D590300C1B0030077B10300F2
:108F200094B00300BEBE4023240D00002C2E002070
:108F3000406B00204A020000503B002050500020AF
:108F4000B86B0020CC6E0020E8080000EC080000A0
:108F50004470002048690020606E00204405000035
:108F60009470002098630020F8600020A46C00201A
:108F7000E40400006465002058620020846400203E
:108F80003C0900005C06000058EFFFFF3C050000B4
:108F9000A0FEFFFF0C0D0000C46A0020F44E00206C
:108FA00081E70200F64C852040001490F54E300415
:108FB0005DD0149826F028FA2DF0F6FF1CF00AF880
:108FC0002046F1491EF046FEF04D0498286000212D
:108FD000EF482646044613910160EE486060202168
:108FE000ED482DF079FD9820A062E76234463046C6
:108FF000294621F0E3FE0746102803D8E34825F070
:1090000073FD07464421E54E705C401E7054A16D0F
:10901000B26C914201D10021B164000619D1E0483F
:109020002CF0BCFA4525705D002806D1DD4A2E32B1
:10903000DD48DE4900BF00BF705D401E7055000670
:1090400007D1304654302DF08DFA304668302DF07F
:1090500089FA149826F0B0F92DF0A1FF102F02D153
:10906000119F139EA3E7139EF643119F9FE7D048DD
:109070004078002800D06CE1CE480025056501212C
:1090800013912BF089FB002800D162E115A8FF277E
:10909000077033A8112101701D214170E8218170F2
:1090A0007421C1706C210171EC214171B021817179
:1090B0000799C1717F210172B721417206998172AE
:1090C000C521C1728E210173022343730C21817368
:1090D000A221C1732846119A102D03D0515D084377
:1090E0006D1CF9E7002800D133E105930025EC431E
:1090F0000297723737A840212DF0EEFC29460795DC
:1091000003942A46982A44D006929200119B9B58B9
:109110005C40002622040C9604D1491C0C910729BE
:1091200000D916E19749491C8C4203D26E1C072EC8
:1091300000D90EE198B237AD29461C462BF02EFF20
:10914000200C29462BF02AFF079DAD1D1498F53001
:10915000854218D9002108460D46202813D037AA89
:10916000125A3B465C339A4200D9F2E037AA125AAF
:10917000BA4203D90029139900D0EAE037AA0023A4
:109180001352801CE9E70795069A521C35460C9944
:10919000B8E716AD4C2128462DF09EFC299515A860
:1091A0002A9024F04DFD2998014649314922059B1A
:1091B00083540026066401274F700421039A23F08C
:1091C000B7FE29AD002800D035460028059800D00C
:1091D000BFE013972FAA107033A830901026319655
:1091E000119F2B97149C26342D942E9637A82C90E3
:1091F0002BA928460DF018FD002808D013204101A6
:1092000038462DF069FC28682DF0FFFEA1E0149689
:109210001326300138182B9037A810302C902BA92A
:109220002FAA28460DF000FD04467101614E384614
:109230002DF052FC28682DF0E8FE002C00D088E0CC
:1092400024F0FEFC2120C00002993154301835462C
:109250005C3575650446B0650B98870000200C905E
:10926000F05529F0D9FCF15D002902D02AF07EFCEE
:109270006FE03A46139F0692B7542AF077FC2E46C9
:1092800030364C2130462DF027FCEE6728467C30E6
:1092900007904460D52047490F5404213046039A73
:1092A00023F046FE002801D00C9907910999414A04
:1092B000079B5350002804D000203E49069A88544A
:1092C00047E0E4203B4A059911541046E4304560DC
:1092D000149981600027D7676F62AF62EF62D7652C
:1092E000176657669766F42020211150FC200399D9
:1092F00011500298063013991154384639463A46AF
:1093000018F0FCFE002812D009982A4C205800685A
:109310002CF0F7FC656D2E4690362DF015FD2F6272
:109320006F62AF62EF62F7600698275411E037AEC4
:10933000002130460A4618F0E1FE2BF0ADFD05464F
:10934000202130462EF05CFA002D02D104981849F5
:10935000487011982DF01EF90B9F154CA07800282D
:1093600004D16078012801D10498A07029F054FC40
:10937000114D74216A5C002A20D00026049C20E054
:1093800020200940FFFF000074B003007C2009404A
:1093900080200940A591010088200940486A0020EA
:1093A000CE0700004A02000004AF0300AFAB030089
:1093B000C46A0020C4430020C8690020049C6C5487
:1093C000FD4E2AF0D3FBEE612120FC490C54FC4DEC
:1093D0002CF0DEFCFB4AA85C08990843A8542AF04C
:1093E000F1FA0998285800210D9B042902D02DF08C
:1093F000B1FEFAE71F201390C406D800F04D0C9080
:109400002E18301D2BF0AAFE706811942040EE49F2
:1094100040187060707802211491084370708B209E
:1094200080000290129929544020E84929520020D6
:10943000FF230A210246E24D20281ED0EE6B76184B
:10944000761E3370EB5DFF2B0DD0EE6B0B277B434D
:10945000F3189B7A7354EB6B0B9EAE5D7E430B9FB0
:109460009B190A3301E0EB6B5B181870E855401C40
:10947000561C0B3113463246DEE70020D44F342809
:1094800003D016A92DF016FEF9E7D2481690D2485F
:109490001890D2481990D2481A90D2481B902B208D
:1094A0000001C74D29182A5A20231343139A9343C6
:1094B0002B5210201390488037AE2EF073FA379855
:1094C00011990840C049084337905720C000281818
:1094D000042531462EF09CF83320C34E411C03D2A4
:1094E00000213154401EF9E700203870082804D0CC
:1094F000391863222DF0F2FDF8E72BF077FB90216D
:10950000785488278D2F07D00021049829F019FB63
:10951000AF49C8557F1CF5E720F050FA2BF076F8DC
:1095200085204000F530F0622AF04CFA9B20800044
:109530000027A7490F5425F0A5FC7F207071432018
:10954000C000AA499E4E315230181499C170129928
:10955000017185605121CC00315B0B220A439F21B0
:1095600089007752A24977548766A249A24B735269
:1095700013998A4313943253A049102F05D0904A6F
:10958000D219002353547F1CF7E79D499D4B0022BD
:109590008B4FFA549C4BFA54139C3B5BB925AD009E
:1095A0008A4E7E537D196E80FF260896EE73874E95
:1095B000AE810E9DAB433B53944B129CFC54552300
:1095C000DC000F9B0E943B55AB239B00904DFD5050
:1095D000904D7B5D049C23437B558F4B1C2A05D00B
:1095E000774DAD180026EE54521CF7E78B4B002246
:1095F000734DEA548A4BEA528A4BEA548A4B129CC6
:10960000202A05D06E4DAD180026EE54521CF7E707
:10961000864A00256A4B9D540727FA019E5A091D68
:1096200031409952F3218E00995B802291439953E6
:1096300066498183172149015D527D494B225A5465
:10964000447526F0D5FE29F047FF5D49885B049CF0
:10965000A04388530E4677482946774A0DF076F99D
:10966000D1200001311814220992CA603454534A9F
:1096700050691432486054731BF0B4FE0C99705456
:109680000D9B109C089E4E4A4F2F09D01059C15D6A
:109690001940C1551059C019401E06700837F3E72C
:1096A000129C2A2D07D046484019CD21C90000221E
:1096B00042546D1CF5E700206049332803D0404A2E
:1096C0002DF0F5FBF9E705273802992149003C4EBA
:1096D00031525B48345453200001692131505948BC
:1096E000315023F021FB752000010A2131545648E6
:1096F00000253554554835545548315C149A11436A
:10970000315420F03FF82AF005F9002804D05148E0
:1097100003213154504831505048301807741E21ED
:10972000C1814F49725CFE2307931A4072548269CB
:10973000002A4C4C02D01520002190474A483C2179
:109740001F4F395449483E184948089939544948E7
:109750003818052110912DF0BFF909200590B0753A
:109760000498C002B08244483D54E8430F38434A4D
:109770004349002809D013181B8A114E3618771850
:1097800073541B0A7B70801CF3E70D4840183D4959
:109790000B9F089E092D06D04A5D0023437002707E
:1097A0006D1C801CF6E70020374970286ED0044AF3
:1097B0002DF07DFBF9E7C04640B10300406B00206F
:1097C0002C2E00207904000000F8FF07FFFF0000A6
:1097D000503B0020F1E701002DAC01007DB30200F9
:1097E0000128030051EC0100306C0020093D00000D
:1097F0007E020000860200000F0300003702000016
:10980000FBFD0000470200006A020000A602000003
:1098100084D00000340900008A020000A702000082
:10982000760200002E020000BD020000DD020000F2
:10983000DE020000AD5803004A020000920600005C
:109840002E05000034050000380800005E08000006
:10985000D5070000D8080000DC08000078090000E7
:10986000A5090000A0FEFFFF35080000E407000086
:1098700036080000F30700003408000090AC030035
:109880000B0800000CB1030052070000F034F1484F
:10989000002C04D0F04909190E54E41DF8E7EE48F5
:1098A000EE4940580021E02902D02DF053FCFAE7A0
:1098B000E94AEA4810584670E948115C149B19437C
:1098C00011540020282806D0E349091825229201C6
:1098D0002DF004FCF6E7E3490020DF4A5050E24A4D
:1098E000142804D0DC4909182DF0F8FBF8E7DA4D0C
:1098F000AB5AA8180169DD4C1C40DD4BC360DD4B41
:10990000E318AB52DC4B139EAA5BDC4C1440AC5307
:10991000DB4AAA5C002A049A00D0109A1940D94B5D
:10992000CD4CE35C032B00D1921C0723CA4CD64DCF
:109930006355D64BE254D64A89180161D5482018A0
:10994000D549002902D02DF0B7FAFAE72BF04EF9ED
:10995000D249C14A50540020D149082803D0BE4AF8
:109960002DF0A5FAF9E72BF041F90028BA4E01D005
:10997000CC497054CC4800240694079D29462EF00B
:1099800043F8CA4829462EF03FF82BF02FF9C84972
:10999000705437ACC74920460F9D2DF039FE5D202D
:1099A000C000301821462DF033FE1BF06BF916ADC8
:1099B00028462BF0D3FB169811990840BE4908435E
:1099C0001690BE4C305D07990840305502981499A6
:1099D0003154BB48301829462AF044FA0121B948CD
:1099E0003154139AB05A109149030143B1520E9861
:1099F0000F993154B44806990D463154305DF72122
:109A000001403155B1483018129A521E07D0011D3D
:109A1000406800280846F8D1AD48683008608E4894
:109A2000AA494058002808D1A94968318A4CA74E54
:109A3000A151A8482DF074F8A0590078039016A8F9
:109A400014300F90844C0398854200D173E1069541
:109A5000A148205C04281BD89C4961584A788B781F
:109A60001B029A18CB7809792DF07BFA069A92009E
:109A700089584A7D8B7D1B029A18CB7D097E2DF07B
:109A800070FA421C944BE254800020187A018150F5
:109A90008E4820584178827812025118C278007995
:109AA0002DF073FA069989004558F9482158002984
:109AB00001D0287888476E1C00210D950C96287CD3
:109AC000814200D334E1307C0B46717C09020818D6
:109AD000B17CF27C2DF04AFA0A9C0E935C4301198A
:109AE000CA7A0B7B1B029A184B7B897B2DF039FAC3
:109AF00008D08847307C717C09020818B17CF27C60
:109B00002DF034FA00192DF01DFA2DF09AF81204F8
:109B1000571800D106E10D990A780C9B19785B78EB
:109B20001B0259180023302B04D016AC0025E55435
:109B30005B1CF8E716AB00251D705A70027844785C
:109B40002402A2185A80027A1A71998505211F9160
:109B500009991C2903D016AA5554491CF9E7801C01
:109B60001390002F00D1DDE01495F87840073FD521
:109B70002DF006FA16A9C88038797A7912021018E1
:109B8000C885BC7820462AF065FD00280FD0203C0F
:109B9000E0B20D2802D8BF49085C00E000200F9910
:109BA000002804D000220A70401E491CF8E716ADB8
:109BB0006878129023F094FE29790029109E00D035
:109BC0000E462E7169881191324626F0BBFAEC8858
:109BD000ED8D21462A4622F073FB002808D000951F
