:1041000000900020514E03003F5D03003F5D03001F
:104110003F5D03003F5D03003F5D03003F5D030023
:104120003F5D03003F5D03003F5D0300F38102003C
:104130003F5D03003F5D030081FF0200A12E0300ED
:104140003F5D03003F5D03003F5D03003F5D0300F3
:104150003F5D03003F5D03003F5D03003F5D0300E3
:104160003F5D03003F5D03003F5D03003F5D0300D3
:104170003F5D03003F5D03003F5D03003F5D0300C3
:0C4180003F5D03003F5D03003F5D030056
:10419000F0B5FFB086B00646202124F001FE0446AB
:1041A000471C1BA801250570207818901596701ED5
:1041B000F64BD42119915958C0B2A42216925043FB
:1041C0001A90081830F009FFE075607AA17A0902A8
:1041D0000E18EF48185CC00737D02EF00DF90028F4
:1041E0001BD0607DC007C00D2FD11F2E28D9E948F4
:1041F0003018112804D829468140E748014224D1CB
:1042000030463138092804D829468140E348014224
:104210001BD11BA80021017036E031F0E1F80AD073
:1042200030462138142810D829468140F7480142E9
:104230000BD08D214BE3607DC007C00D05D1EFE7AA
:104240002846B040F9490842D1D030B200281BD4EA
:1042500001235120C000CD4D1490295A002049055A
:1042600000D419E132463C3A91B20B291C4619465A
:1042700000D913E1EE480240EE48D0400123184037
:104280000E24D4401C4009E1EB483018322800D9F4
:104290007DE2800001A108588746C04631490000F0
:1042A000676A0000676A0000676A0000676A0000CA
:1042B000676A0000676A0000676A0000676A0000BA
:1042C000676A0000676A00009549000069430000C2
:1042D00069430000676A0000676A0000676A0000BF
:1042E000676A0000676A0000676A0000676A00008A
:1042F000676A000069430000676A0000676A00009F
:10430000676A0000676A0000676A0000AB49000046
:1043100069430000D948000069430000676A000053
:1043200069430000676A000021480000214800003E
:10433000676A0000676A000069430000676A00005E
:10434000676A0000676A0000694300006943000073
:1043500069430000E34900000B4A00006943000084
:1043600069430000694300008848199940581A9928
:10437000411831F03FF8012901D802F074FBAF4A2F
:10438000B218272A00D935E2920001A39A5897461D
:10439000554A0000554A0000554A0000676A00006F
:1043A000676A0000676A0000676A0000676A0000C9
:1043B000676A0000676A0000676A0000554A0000EB
:1043C000676A0000676A0000676A0000676A0000A9
:1043D000676A0000554A0000554A0000554A00002F
:1043E000554A0000676A0000554A0000676A0000ED
:1043F000676A0000554A0000676A0000676A0000AB
:1044000031440000676A0000676A0000676A0000C4
:104410005756000071560000554A0000554A0000EA
:10442000554A0000554A0000554A0000DF5600007A
:104430002024159D284631F086FC014653A831F012
:104440004FFD7DA8002606805048199940581A99BA
:10445000401830F065FF0A7B18924F7B002F0ED179
:104460000C310079801E8D1CC4B22846214625F0EF
:10447000FDFA8F27002801D102F0C2F8159D3E21D8
:1044800031F06EFC044618993E2E01D102F007FC73
:104490000020A055761CF7E71C461946CA4AAB5CBB
:1044A00002252B405A425A410028084600D11046A6
:1044B000002803D0002C0ED18420FEE1062E01D866
:1044C0007B2000E07220C043062E00D9F5E10122D6
:1044D000544000D0F1E184203246203A272A179137
:1044E00000D98BE0930001A2D2589746A145000065
:1044F000FB4A0000F94A0000BB480000BB4800002E
:10450000BB480000BB480000BB480000BB4800009F
:10451000BB480000BB480000054B0000BB48000042
:10452000BB480000BB480000BB480000BB4800007F
:10453000994B0000F14B00008D4C0000AD4D000088
:10454000BB480000BB480000BB480000BD4E000057
:10455000EB4E0000BB480000BB480000534F00007A
:10456000BB480000BB480000BB480000BB4800003F
:10457000BB480000EF4F0000715000008351000065
:10458000D351000013520000855200002C2E002051
:10459000FC0800000080FFFF7F0003008303000091
:1045A0008A4D1998285830F01FFD102801D201F0CB
:1045B00014FC8A79CB791B029A188F183C460C346C
:1045C000A17B4A0011461031814201D901F005FC5E
:1045D00026460F36B25C52005118814201D901F0D3
:1045E000FCFBE07A002803D0F12801D201F0D9FFCA
:1045F000822115982AF0CAFD02F031FA062E00D960
:1046000022E1B00002A108588746C0460304180002
:10461000A3520000475300004146000041460000FD
:10462000DD53000095540000435500007F002BE04F
:10463000FF0F0000F10F0000EB7FFFFFE07FFFFFA7
:10464000624D199C28591A9BC01830F051FE01D8B0
:1046500001F0C3FB30F080FD139031460D312AA8E4
:1046600031F0CEFC0F362021159C2046169124F007
:1046700097FB0746401C1890199828581A9940181B
:104680000079C01EC1B2304625F0F0F91A9000281A
:104690000BD1189931F014F853A925F05BFC0028D0
:1046A00001D101F09DFB159C484D3E78042131F06D
:1046B000DBFC074613983870B9208300E85A2AA912
:1046C0000988884201D000F07AFF00200246787005
:1046D0001899087A497A09020818032801D101F0CB
:1046E000FBFA0228154601D001F002FB129317983D
:1046F000800217900D21159824F02EFE05463448AF
:1047000032490C1802221392284621461994314B43
:104710009847A078A870E81C2F492C4A5118139C80
:1047200022462C4B98472B4B199840796871A81D4D
:104730002A4A264989182246984728460830284997
:10474000224A51182246234B9847224B28460A30CA
:1047500024491E4A5118224698471998007B28730D
:104760001A4A1498105A179908420DD11B4B1E482B
:10477000105C800602D51A981C3005D01298115A88
:10478000D25A15982EF0BCF9184D01F0B1FA18481C
:104790003018062801D902F066F9800001A10858F6
:1047A0008746C046C1470000C1470000414A00009B
:1047B000454A0000614A00004148000041480000AD
:1047C00015982BF075FD41E1140700002C2E0020F8
:1047D000E4070000C9410300E7070000EA07000002
:1047E000EC070000EE070000160500000280000044
:1047F0000080FFFFFC4AB218152A01D902F033F9F4
:10480000012393406F24234200D023E1042AF74D73
:104810001A9B00D132E1152A00D194E002F023F96D
:10482000F24830F07BF90B2901D202F01CF930F08C
:104830002FFD927D0B328A4200D8A0E502F013F9D9
:1048400015982DF033FC01E1152E36D1E749199862
:10485000085830F0ADFB46182021159C20461A91CF
:1048600024F09EFA054600781990307B18900D369A
:1048700053AF0222384631F0ADFCFD48FB49085ADF
:1048800039880140398001D100F008FD042131F060
:10489000EBFB1899017000214170801C53A931F085
:1048A000AFFB6878A97809020A181A98199901408B
:1048B0004B09F048214601F0DBFFB978FA78120283
:1048C0005118ED4A914201D902F0CDF8C1B21598C4
:1048D0002BF031FD02F0C3F8E44830F01FF9052950
:1048E00001D202F0C0F830F0D3FC137C002B00D1D1
:1048F000B0E00C3200270524002B01D101F06FFB42
:1049000027460C378F4201D902F0ADF81719FF7A0C
:10491000032F05D0012F01D002F0A5F80E3400E0DE
:1049200015348C4201D902F09EF85B1E2F46E3E756
:10493000CE48199940581A99401830F02FFF032893
:1049400001D802F090F831F07EF9C84930F0D4F87F
:10495000042A01D202F087F830F052FC8A7852061D
:10496000C24B05D54278807800028018C34A98521D
:104970000878F921C900595C884201D002F073F827
:10498000BF48BA490858002801D102F06CF81599BF
:1049900001F035FFB548199940581A99401830F080
:1049A000FDFE012856D802F05EF8B048199940582B
:1049B0001A9930F01EFC427B842A4BD0002A01D089
:1049C00002F051F830F016FD052901D202F04BF843
:1049D0000C30007916224243501D88423AD902F029
:1049E00042F8A248199940581A99401830F0D6FE5A
:1049F00002282FD0032801D202F035F801D102F0AD
:104A000032F8C00726D102F02EF89848199940587C
:104A10001A99401830F06CFC1CD0032901D202F026
:104A200022F88279C3791B029A1880180C30801CF6
:104A3000891EC9B225F01AF800280BD002F013F82D
:104A4000112100E00221159827F03AF9002801D140
:104A500002F009F81BA915980FF05CFC01F0FFFFAC
:104A600015982DF023FB002801D101F0FCFF7F4DAC
:104A7000199828581A9BC11830F0BCFCC01830F0A7
:104A8000F3FC8418207C491F0023814201D001F0EF
:104A9000E8FF0028159E1CD0082801D201F0E1FF94
:104AA0000C34E17A4A0016460836864201D901F0F4
:104AB000D8FF21460C318D5C6F00F6198642159E99
:104AC00001D001F0CEFF20460D302BF003FB257303
:104AD000664D892000012A58002A06D069493046CF
:104AE0009047002801D101F05AFD304621F006FA26
:104AF0004342434101F0B5FF0021159811F0C0FA7F
:104B000001F0ADFF2024159E304631F01CF905461A
:104B1000C0782979090208185749884201D901F05B
:104B20009BFF28780007800F01D001F095FF68787F
:104B3000A9780902081818904C48199940581A99F0
:104B400030F057FB027B1A920A79497909028A18D8
:104B50008027022A01D201F080FE0C30411C501E39
:104B6000C2B2032029F05CF9002801D101F075FEE2
:104B700053A929F053FF002801D001F06EFE53A87D
:104B80000678471C002E01D101F065FE38462AF058
:104B900069FD761E0837F5E73448199940581A9987
:104BA000401830F0E7FD012901D801F016F930F086
:104BB000ABFB20211598189124F0F2F8017816919A
:104BC00045788678207B1A9030F0A0FF617B1991A0
:104BD000884201D800F091FD30F098FF1999401AF1
:104BE000C4B200F08BFDC0460080FFFF2C2E0020D9
:104BF0002024159D284631F0A6F81C492FF07CFF93
:104C0000012A01D802F05BF8421C30F0A9FD1A4BD2
:104C10009A4201D901F0E1F806780C22324001D025
:104C200001F0DBF84278807800028018189030F0AC
:104C30009CFD09180F7B0D3153A831F057FA05215F
:104C4000159D31F08DF8077084214170074819993E
:104C500040581A99401830F08DFDC91E30F06AFE98
:104C600026407309084801F095FCC0462C2E002010
:104C7000EC07000015800000F7FF0000760200003E
:104C8000C40700000480000032800000ED4819993C
:104C900040581A99441830F02CFD012801D801F031
:104CA0009CF8A579E67920211598129124F078F8DE
:104CB00030F0DFFBE44A914201D901F08EF802782E
:104CC0000C21114001D001F088F8119231024919EC
:104CD00061184F7BDD4BDB4AD25CD41B0025BA4206
:104CE00000D22C460E7B032C00D30324401C1090D2
:104CF0001520139060430F90411D31F055F9067057
:104D00002A464570CF49D14BC95C8170C770047188
:104D1000451DE01914901346F8B21499814201D848
:104D200000F06CFD169317921897A721C900C54A89
:104D30005718F968C6008819C4795D20C000111899
:104D4000082231F037FAB86803216143405C2872C9
:104D5000B868401841788078A8726972F86880193C
:104D60008079E87203280DD00128189F169B18D16E
:104D7000B448B7494058801901794079687329735C
:104D80000E230EE028460C30AE4CB14FE159891984
:104D9000097925F0A1F8E059801940792875139B0D
:104DA000189FED18179AD2187F1CB5E7A54C199FCC
:104DB000E0591A9E80198179C2791202511845185A
:104DC00020211598169123F0EBFF024600781490ED
:104DD0001895294615460D3153A809222FF0F4F9EC
:104DE000E059801930F0DAFC0A2801D200F0F5FF12
:104DF0006F1CB878F978090208189649884201D3DF
:104E000000F0EBFFA87BE97B090208182FF014FFE4
:104E1000002801D000F0E1FF5D20C000201853A958
:104E200031F078F80028179905D08B4953A831F054
:104E300071F8414241411A91A87BE97B09020C18A3
:104E4000687D1990844953A8082216462EF0FCFB71
:104E5000139020462DF0FAF80446454245410028BB
:104E6000189A01D101F02FFC7B4953A831F052F878
:104E7000002811D0794953A831F04CF800280BD004
:104E800053A87DA930F0D2F9002805D17DA800787B
:104E900000212AAA21F032FE611E2046884161428B
:104EA00061411A9E3140002C01D07B22D443189AD4
:104EB000012901D100F091FF01F00FFC002553956D
:104EC00060481999405830F073F8471830F0BBFE2D
:104ED0001890387B1690787CFE2800D173E3FF2869
:104EE000179E00D073E309226FE30620C4435548A0
:104EF0001999405830F05CF8451830F0A4FE02468D
:104F00002B7B687BA61D002802D00B2800D866E307
:104F10001598002801D101F0A2FD501C8178C278BB
:104F200012025118484A914201D900F056FF017807
:104F30004078000244182A2115981D4623F030FFBE
:104F40002B4600212A2901D100F099FD30F016FDF1
:104F5000F8E72027159E304630F02AFF0346394DEA
:104F60001998285830F040F801220228104618936A
:104F70001A9201D201F048F9081D30F0D8F8384BE8
:104F8000EA540D310078401EC4B21E20224628F09B
:104F900047FF002801D100F07EFD41788A1C0021E6
:104FA000A2420B4601D301F01EF982782D4D25490E
:104FB0004A5551000B1D641E0021A3420B4601D32C
:104FC00001F011F9169728491E4B5C18C71C0026E2
:104FD000D0B2864201D301F000F90422204631F01C
:104FE000F5F83F1D761C1748425D241DF0E720218F
:104FF000159E31F0E1F830F03CFA134A914201D9A4
:1050000001F02AFD0178890601D401F025FD4178DF
:105010008078000244180B48199940581A99401892
:105020008179C279120251184018057B30F0DCFDFD
:1050300005708D2141700D4831462246179B01F0C5
:1050400017FCC0462C2E0020F7FF00003905000099
:1050500044050000F8FF00000898030000980300D2
:1050600004090000090900000C090000428000004A
:105070002021159E3046169123F092FE0446417879
:105080008278FB48FB4B1B580127F80218400AD1D5
:10509000631C9E78DB781B029B19F74EB342159E6A
:1050A00001D301F0D9FC120251181891F149199A53
:1050B00089581A9A89188A79CB791B029A188A1802
:1050C000137B002806D1189800287ED1607DC00788
:1050D000C00D7AD0139414930C32541C0879401EDE
:1050E000C6B22AAA204631462EF0DCF8D6211A9004
:1050F0000028129114D12AA81990018839404842F9
:10510000484128F0B7FE199F38882840400828F009
:105110000BFA388804210140880826F035FD00216B
:10512000119153AA204631462EF0CDF8199000284F
:1051300004D1539823F0E6FA002012907DAA20466D
:1051400031462DF073FF0746002801D100F028FDFD
:1051500078427841199A514251411A9A002A179B74
:105160001A46139C00D00A46002A194600D101466F
:10517000D6201090012901D100F019FD802600F001
:1051800019FD2024159E304630F0DDFD30F071F918
:10519000B94A914201D301F05FFC41788278120252
:1051A00051181891B34F199979581A9A8A1830F0F2
:1051B00087F80D7BB14BFB5C1B0701D500F01BFF93
:1051C000189B002B01D100F010FF8D213046FFF716
:1051D0007FFB30F038FD30F04CF9A94A914201D9FB
:1051E00001F03DFC00781890A24C199EA0591A9924
:1051F0002FF0FFFF0D300979491EC9B200252A465C
:1052000022F0E4F8002801D100F048FC802301F0EE
:105210009BFA2021159C30F0C9FF30F02AF9964AFC
:1052200091423BD2411C0A78497809028918914A77
:1052300034D19249515C090703D4407DC007C00DA9
:105240002CD0199810581A994018017942791202F5
:1052500052188024022A11D330F05FFA41180D3120
:10526000501EC2B2042028F0DBFD002806D053A94E
:1052700029F0D4FB002801D101F01CFB1598214630
:10528000FFF726FB2021159C30F090FF41788078B5
:10529000000245187A48854200D87AE1204601F09C
:1052A000DCFB78493EA801807249199808581A9980
:1052B000401830F05FFA0A2901D800F08EFD2FF077
:1052C000A8FE16900D31704C2AAF0A223846A0472E
:1052D0007DA808221A923946A0472024159E304600
:1052E00030F031FD014653AD284619942246664BF5
:1052F0009847287817900C213046149122F0E0FC52
:1053000005465D20C0005B490C46081839461A9ACC
:105310002EF09AF9002801D100F018FC2AA846A91D
:105320002DF09EFF002801D000F019FC469800786F
:1053300006210140042901D000F011FC2AA82DF01B
:10534000E5FD00F006FC4B4D199EA8591A9FC019A7
:1053500030F024FA042801D800F03FFD4B494A4CB4
:105360002AA80822A047A859C0192FF052FE17906A
:105370000D3146AD04222846A0472024159E304614
:1053800030F0E1FC014653AF38461A9422463E4CB9
:10539000A047387819903EAF022238462946A047E8
:1053A0000C21304622F08CFC0546B92080003149A2
:1053B000085A3F88B84200D035E246A88678022EC7
:1053C00001D200F0AEFC199F5D20C00029490918E8
:1053D0002AA830F081FD8021159E39E225491998CF
:1053E00008581A9940180179427912025118032974
:1053F00001D800F0F2FC2FF0A8FE0D3053902AAD3A
:1054000053A928462FF0FEFB539804782021159FBE
:105410003846199123F0C4FC0178179130F01AF83E
:1054200018900521384622F04BFC074606700026EE
:105430000671B92080000F49085A2988884200D097
:105440001CE2002C01D100F073FE1148094A105CE7
:10545000412149015118002801D100F057FC04C92D
:1054600013789C4200D03246401E1646F3E7C046F1
:10547000140500002C2E0020F8FF00001505000088
:10548000F7FF0000FFFF0000C94103000098030080
:1054900034080000FB49199808581A9940182FF051
:1054A00027FF01D800F099FC2FF0B3FD18900D31C3
:1054B000F54B2AAD022628463246984720241598F7
:1054C00030F041FC014653AF38461A942246FC4C5A
:1054D000A047387819907DAF384629463246A04714
:1054E000B9208000F5490E5A38882D88864200D0B0
:1054F000CCE18127AE4200D0C9E1F24DEF4C605DB6
:10550000002801D101F048F8401DC1B230F04CFD37
:105510001899017000274770801C31462FF04EFA11
:10552000615D0170412149016118401C1A9CE34AE8
:10553000525D974200D3B7E104C91278C2557F1C6F
:10554000F5E72021159E30460E9123F029FC411CE1
:10555000189100780D900020D84B052803D02AA977
:1055600030F0B4F9F9E7199818582FF03DFD0728E5
:1055700001D201F071FA8A79CB791B029A188F183F
:10558000797C831F4A00511C8B4200D2A6E1002186
:10559000A5E1CA48199940581A9940182FF0B4FE4D
:1055A0000079401E277B0D3430F018FA002818953A
:1055B00000D18EE21C3000D189E3282088E38020CE
:1055C0007870002594E30722179E354623E30628CA
:1055D00000D20125062800D21CE306221BE3169206
:1055E00018938200931CB549199C09591A9C0919F2
:1055F0000C79497909020C19A34200D9EDE3294637
:105600000E318F5CFF2F00D1131DFE2F01D103231C
:105610001343A34200D9E0E38A18541CFE2F01D0A3
:1056200000F0CDFF0128189B169A00D070E4257871
:1056300053A830F0A3FB539E304628F0F9FE002813
:1056400000D1CAE3700100D1C7E33046294623F0F8
:105650002FFC01F0E2F90622D7431A9A80182FF0A6
:1056600003FF8218537B922B00D171E3B81D70E3C6
:105670002021159E30F0A0FD0178890604D52FF079
:10568000E9FE01D100F0BCFE9120C0008B49081852
:1056900030F0AAFC04468C48844201D101F0DCF9C8
:1056A00020462EF005FA014653AD2C2230F082FD43
:1056B000288DC00501D401F0CFF953AD284618302C
:1056C0002AA930F0D3FB5D980821C943F83901407D
:1056D00029852846214621F021F801F0BDF91A9AC2
:1056E00080182FF0C1FE851800244F941C946A7B0B
:1056F000002A00D066E3104665E300243002032C44
:1057000000D303244019149016206043411D30F04B
:105710004BFC07461A98387000257D7030F0F6F97A
:105720002B46B870199AFA703C717E1D1799C807FC
:1057300059D0200657D0E3208500604840590078B2
:105740000021C007F3D0D8B2904249D317938920E3
:1057500080005A490918082230F028FB30460830EA
:10576000564949598A7953A926F0D2FC534B53988C
:105770003074000A7074B07CFC210140B174595936
:1057800009784907890F8C2202408818B07459594A
:1057900049784907490E0918B17458590278F3201D
:1057A0000840510707D404210843B0745859417B7D
:1057B0000120084007E0B0745959497BC907490FD7
:1057C0000143B1740020F074585900784006000F6E
:1057D00030755859C0787075641E1636199A179B23
:1057E0005B1C0021A3E71A9838701898169901409D
:1057F0004B0936481599149A01F03AF8D0B20F992E
:10580000814207D9401A2D492FF076F910180871F6
:10581000000A487110992FF017FF12981199014052
:105820004B092B486FE27DA938462DF02AFD002850
:1058300006D17D98007806210140042900D1BCE5FD
:1058400018980007800F01D001F006F9199F8121F7
:105850001A9C179828706970A81C2AA930F03CFB84
:105860000A353EA9022230F0A5FC53A84178807881
:105870000002421827407B0916488EE1802078708C
:1058800000F09DFC2C2E0020C941030080271A9CAB
:10589000052130F089FB189901704770801C29465A
:1058A0002FF08CF80021017053A841788078000215
:1058B0004218199820404309074824E22C2E002062
:1058C000C941030034080000FFFF000031800000E0
:1058D00033800000018000000580000001213C466B
:1058E0001234A35C0625ED43AA1A10185A00904200
:1058F000179800D30846012801D101F0ADF80C3704
:1059000038780990791C53ADA81C022630F074FA3F
:10591000F91C281D30F070FA7F79AF717E00A05D10
:10592000E8710546189908780890487807908878B3
:105930000B90C8780A90E8194006010E159823F0DC
:105940002FFA3A46002F1697139004D021462DF0D7
:10595000C5F9169A0446002D2F46FA4D06D0611C53
:10596000139880193A462DF0B9F9169A1897B9206C
:1059700080000590285A53A949880C91884205D087
:10598000F1480C99814201D800F0AFFCEF482C5C43
:1059900053A8808811901398801912900020064611
:1059A00006901A9015980F94A64201D100F0A2FC1F
:1059B000B1006B18412149015D586B78A978090243
:1059C000C918119B994202D0FA498B4254D11096C2
:1059D000A87919900023184619998B4221D2C10742
:1059E0001FD1149359006E1808360024139F944257
:1059F00014D2C10712D1317873781B0259183B8831
:105A0000994208D12A781A98C1B22AA82BF0C8FE68
:105A1000169A1A901798641CBF1CE8E7149B5B1C2D
:105A2000DAE7E9791491002614998E4221D2C10750
:105A30001FD10027129C18998F4218D2C10716D186
:105A400019997118490069180B7A497A0902C9181D
:105A50002388994208D12A781A98C1B22AA82BF033
:105A60009FFE169A1A9017987F1CA41CE3E7761CD9
:105A7000DAE715980F9C109E761CCD4D94E7711EA9
:105A80008E41F10141700370C484282101224254E7
:105A9000159800F0F6FF00210B46A4E3C6482058F5
:105AA000817A8623022901D900F04EFEC34AA25C06
:105AB000CA40D10701D100F047FEC149BC4A515A42
:105AC0000022490701D500F038FE179D134600F06B
:105AD0003BFE21202146324628F0A2F9064600204E
:105AE0001790002E00D1F5E3B11C7DAC08252046AF
:105AF00030F086F90A3646A8314630F081F90221A5
:105B0000204626F00DF8002801D100F098FC06464A
:105B100005462835687800020024000513D40120CA
:105B2000C00217907DA830F05FFA01462820325C51
:105B30006B781B029A18179B1A433254100A68702C
:105B4000304620F0EBFD159D00F07CFCB920800074
:105B5000205A3EA908809749884200D05FE11898F2
:105B60000007800F01D000F077FF179F812416985F
:105B700028706C70A81C7DA930F0AEF90A353EA9DA
:105B8000022230F017FB53A84178807800024218B7
:105B9000199807407B090120C003314600F068FED8
:105BA0007DA8008829F0A2FE00201090139C30F000
:105BB00035FA00261A98454245412478022130F0F2
:105BC000F3F91499017046701998002800D16D1CE2
:105BD000002F159E00D16D1C002D01D100F00BFC93
:105BE000022130F0CDFA00210170690041700121DD
:105BF00030F0C6FA002800D1FDE305701A9800289D
:105C000000D169E31998002800D1E2E3002F00D009
:105C1000F1E3EBE307226648199940581A994018B6
:105C2000017940790002431800209A42314600D899
:105C300001469A4200D906461A913C460C340D376B
:105C40002E40012E1392129307D1A01D149053A839
:105C5000042230F0BBFA539800E0149718994F1CB7
:105C60000621CD43199028F0E3FBAD1D002E2AD06C
:105C70006279FE2A1799159E00D1014601291998CB
:105C800001D000F0D0FE1F21CC060646A6431AD054
:105C90001897B9218B004649CB18197C59188F7B6E
:105CA000C10E8F4201D000F0C5FDFF2A01D100F0E6
:105CB000ADFDFE2A01D000F0C1FD1499097823F052
:105CC000F7F800F0B6FD1A9A159E00F0ADFE2920F7
:105CD000C443159D0026B5E32C4602251598294698
:105CE00023F03AFBE549611830F08AF8E448451C96
:105CF000B81C2AA930F084F918992FF0A5FC169841
:105D000006407309A8B2159900F0B2FD002E00D02C
:105D100011E2002C03D0FF2C01D000F0B5FD822051
:105D2000ADE52AA9384624F015F9002800D143E34F
:105D30000020159E082800D182E52AA92FF09EFE9A
:105D4000F8E7C0462C2E0020F7FF000034080000C2
:105D5000F81C002B72D00025011D00D1FEE20028A6
:105D600000D09EE0002D01D100F085FD28462830AE
:105D70002826A95D407800024018C10501D500F031
:105D800086FD2946183153AC102230F0A9F9A85DE0
:105D90008006400F0022032100AB17C3049220A805
:105DA0001CA9012316F086FF159C014D00F0F6FE9C
:105DB0002C2E0020FFFF00003C09000034090000E9
:105DC00004050000E0438E1E0E35002A03D1F1B217
:105DD000284623F04BFE002872D0159800F03DFEB7
:105DE00053A82FF0C1FF002801D1FEF75CFC02464A
:105DF00028322823C15C567836027618310501D541
:105E0000FEF751FC0121CC029E499F4D695C26435F
:105E1000C654330A537020F081FCFEF744FC2AA8D4
:105E2000007A022800D2B1E2189814990840082894
:105E300001D100F011FE179F802498E60C32951CCA
:105E4000881E2FF0D7FD00282BD190498E4844584A
:105E500001201A902946324627F0E2FF0546407895
:105E6000401CC0B228281CD3002D1AD04C34A91CC9
:105E700020A8199008262FF0BFFF0A3520222046BF
:105E8000294617922EF0A0F99120C4007E480019EF
:105E90001890199932462DF0D7FB002801D100F057
:105EA00086FE7A4C784D295900221598E02A02D0B6
:105EB0002FF048FDFAE72A59FF21517000F0CDFD7F
:105EC000F2B2222029461A9227F0AAFF002884D095
:105ED0000746811C7DA819900826324618966C4BFF
:105EE000984739460A3146A83246694B98473946A1
:105EF00012314FA804263246654B98473946163171
:105F00001CA83246624EB0471A373EA83946189A46
:105F1000B04702261998314625F002FE002800D12C
:105F20005BE707462C942B942A942AA8199017967D
:105F300006460836222029461A9A27F071FF189043
:105F40007DA908221A92199D2846514B98471CA9F1
:105F50000422169230464E4B98471798287322AE6B
:105F60004FA93046169A4A4B9847083753AD10222E
:105F700028463946464B984722982DF015FA22AE0E
:105F80000096162328461999189A29F0B3FB3EA9C2
:105F900030461A9A2DF058FB002800D01DE77DA846
:105FA00030F022F84F993B4A374EB35800011B1886
:105FB0000D0EDD710D0C9D710D0A5D711971B158D9
:105FC0000818C17A0906344A521C0A43110EC172DC
:105FD000324834543248214630F0F4F8FDE6FA07EE
:105FE00001D0FEF7CCF900F03EFD437DDB07DB0D71
:105FF00001D1FFF7EAF80C314F78402F01D900F0BA
:106000002BFD2FF006FA921EBA4201D200F024FDB9
:106010001A94891C0078199053AC204630F0C8F8C7
:106020002FF0E2FD0570002646702046002F00D1BB
:1060300049E104460578282029462EF049F92938F7
:1060400009286BD8800001A10858874675600000B8
:10605000A5600000B5600000C56000001D61000083
:106060001D610000D76000001D6100001D6100007F
:10607000EB60000015982CF0CFFD4FE0F107000019
:106080000280FFFFB50400002C2E00203C09000018
:10609000C9410300E4040000FFFFFF072A050000D8
:1060A000494A03002A212FF0E1FF002836D01721AA
:1060B000490104E02B212FF0D9FF8D218900ED4A01
:1060C000511828E02C212FF0D1FF23210901E94AA2
:1060D0005118042220E0B9208000E64A115AE6480F
:1060E000125A15982CF00CFD18E0E248E349415C87
:1060F00001200840490700D5801C2AA90880DD49F5
:10610000149A895CC90702D0001D2AA9088032218F
:106110002FF0ACFF2AA902222EF056F82A2DD549DD
:1061200002D1172040010E522046601C7F1E7DE7E1
:10613000D348D0490E18B079F179081840000830DA
:1061400000257D7016973871C1B2159823F004F9B7
:106150000746082230F03EF8B079B871F079FC1D9E
:106160001A97F87153A9087037460837B0798542F5
:1061700007D20222204630F029F86D1CBF1CA41C57
:10618000F4E70446169FE1B2C0B2F27910188842D3
:106190000DD9E8B240001A9A101808304900711859
:1061A00008312FF02DFF6D1C641CB079EBE71A99B4
:1061B000887940000818C01D53A92FF097FF159C3F
:1061C000199D189EB81C2AA92FF01AFF179828406D
:1061D0004309AC48214632464AE338780121014060
:1061E000179B159E169FA848A24A105C4242424146
:1061F00013424DD1002B4BD0002901D0042000E0E8
:1062000001209C4D1A9A189B16979C496C18A272F3
:1062100059789A7812025118E18019788906C90FC5
:106220006172E07200202073062730462FF0C0FD17
:10623000217B964AAA182EF0C3FD1F22D2060B46D8
:10624000934301700A0C8270090A4170190EC170E3
:10625000E17A41718E482C5C1A9804405F20C0009E
:10626000285C45424541002C00D1179D159E3046C3
:106270002FF09EFD002C169F0AD0002D08D04079EB
:10628000012805D18348002231462CF089F8E6E345
:10629000189A5078917809020D1814782FF0A4FC00
:1062A0007D49744A525C521CD3B2FF2B00D10022AC
:1062B000704B5A540270802141703C40630977480A
:1062C00031462A46D4E21A98199901404B0974487C
:1062D0001599CCE2D624B3E032213046119A2CF045
:1062E00037FC002800D086E08CE480200690002057
:1062F0001A9015981A99002907D10A9909020B9A40
:106300008918684A914200D9A7E307990902089AB7
:106310008D181A99491D21F0D3FC064661480C9A44
:10632000824205D953480599405A7DA9088001E069
:106330007DA90A80B01C2FF063FE099830701A9A6C
:106340003271701D2AA92DF03FFF069870700E98CB
:106350000D9901404B0954481599B2E70421159C49
:106360002FF024FF002101805049424B5958897871
:1063700001220A40827003D04D49595C2BF076FD12
:106380004C48A5214A002FF019FF68E3179F00240D
:10639000012801D0FFF7EBFB01212FF0F1FEE321F3
:1063A0008900344A5158097807220A40511F4A424D
:1063B0004A410270FFF7DBFB199F012E1A9C00D0A7
:1063C00020E20121159E2FF0DBFE00210170FFF776
:1063D00040FA781E87412C213046129A2CF0B8FBE7
:1063E0000028179800D13846002804D12B213046C8
:1063F000109A2CF0ADFB1698044063092E4835E244
:106400001C48199940581A9940182EF07DFF0E34F7
:106410000079801EC5B22046294623F027FB0028BC
:1064200000D019E32D2021462FF010FE002800D1C6
:1064300012E3811C2AA82FF019FDFFF725F9862405
:10644000159D179E02212FF08BFC077044702006CB
:1064500000D09DE017967DA8022631462CF068FDFD
:1064600013900020034B0D2828D02AA92FF02EFAD4
:10647000F9E7C0462C2E0020EA070000FC080000C7
:10648000F307000004800000090900000C09000067
:106490000C05000089D60200440700003C80000083
:1064A00044800000F7FF0000068000003C09000067
:1064B000FA020000213B0200438000005D20C00082
:1064C00019181691F94C1F462AAD08221492284635
:1064D000A047F74978580C463B4613990F01C0195D
:1064E000817BC27B1202511812912C912E73491C90
:1064F0008173090AC1731859C1193EAE042213925F
:106500003046EA4CA0471799083153AD102228466F
:10651000A0473E982CF048FFFB48FA494058C11963
:10652000C05D2EF051F93E90129822902221159DC7
:1065300028462AF0FBFE04461699149F3A46F04E70
:10654000B0472046083046A93A46B04720461030AA
:106550003EA9139F3A46B0472046143022A93A4636
:10656000B04718340020082802D02FF08BF9FAE742
:10657000E54E199830582EF01BFD42180E3200944B
:1065800053A82AA9162329F0B5F8E520C0003554F0
:10659000DE48002329466AE13546FFF778F90123F2
:1065A0005FE2DB4829462D5C002D00D111E2D9487D
:1065B000085C002800D16BE28521FEF71AF8FF2F56
:1065C00000D112E2052F189B169A01D9FEF7A0FC04
:1065D000012801D0FEF79CFC267853A82FF0CEFBB3
:1065E00053991798009015983A4633461FF0F4F8DF
:1065F000169A189B0646002801D0FEF789FC2EE269
:106600007DAA284621462CF067FA1F2029462246FB
:1066100027F006FC002801D1FDF730FF417803295F
:1066200001D2FDF72BFF81782AAA1170C178517031
:10663000017991704079D0703821159826F09CFB33
:106640001790B148199940581A9940182EF068FED1
:1066500046312020224627F0E3FB002801D1FDF738
:106660000DFF16904078032801D2FDF707FF179819
:10667000801C169DA91C2FF0C3FC2879179908715E
:10668000687948716978C91E032242439142159D79
:1066900001D0FDF7F4FE16998E1D179D09350027D0
:1066A000092F00D9D6E2C0B2874200D3D2E2E81E59
:1066B00002222FF08FFDB07828707F1C1798407948
:1066C0006D1DF61CECE790489349405C000700D52F
:1066D00038E100200446179D1A9E0C32002E17D078
:1066E0008E49894D695C890701D4FFF776FB164610
:1066F000002800D05BE153A8007AC00988496A5C91
:10670000FE231340181868548648159929544EE101
:10671000164617957720C1007B4B5A5C7520C00048
:1067200018180023042B00D122E101259D401542B9
:1067300000D11FE15B1C001DF4E7C07AFF28179D04
:10674000134601D18B2300256F4880591A994018B0
:106750002EF0D4FD077B0221159C20461A911E467F
:1067600021F0AEFA07702F464670002D0ED06E480D
:1067700065490858867AC77A002120462AF0D6FD56
:10678000067047702F46801C2DF056FA1D212FF001
:106790000DFD054600201D2802D02FF09FF8FAE7D6
:1067A0000020687028701A98E8736048433080268B
:1067B000EE72A872287C042101432974189880067F
:1067C0000DD45B485049095C53A82BF04FFB287C43
:1067D0003043287453986875000AA87508E0524839
:1067E000494908582EF03FFF287C012101432974B4
:1067F0001599002F02D04F48434A11544E4827F0B4
:106800007FFF2CE10021159EFFF723F82AAD2846D3
:106810002DF05CF92A98204080192A901498411C88
:106820007DAE2FF0B2F9781C3288C0B2294623F031
:106830009DF905461A9A159E189FF5E0052A159EA2
:10684000189F00D9EEE000201399129B994200D9BD
:106850006BE104466AE10027159E2D782FF0C4F9FC
:106860001A990170477025406B0934483146189ACF
:1068700026F0E2F8F3E02C48234D2858C07AFF2890
:1068800000D101E1032000E18320FEF7F8FF80063C
:10689000400F25491C4D69588A7A002A00D141E1F0
:1068A000C97AFF2900D16CE103216BE1C9410300E2
:1068B000E404000053A80678002E01D1FEF7DEFCA8
:1068C00053A8451C0620C043801D1A903746002F50
:1068D00000D13CE15D20C0000B4908182FF078F989
:1068E000002801D1FEF7CAFC0822284614492CF0E2
:1068F000ABFE002801D000201A907F1E0835E6E785
:10690000C9410300E40400002C2E00204780000051
:10691000380800005E080000FC080000D5070000F1
:10692000B9030000250700003C0900000280FFFFBA
:10693000FA02000026070000DD5001002B80000055
:10694000009803001998C007C10D53A8002900D072
:10695000BFE61399002900D1BBE68057002800D577
:10696000B7E601201A99484001D1FEF77DFAB0E65A
:106970008A241CE0179B002B19D02A43F04B5A5451
:106980003178C17039787A78120251180180159ED9
:10699000867009212FF010FC044653AD08222FF019
:1069A000D0F9287AC0092072E648314627E702214B
:1069B000159D2FF0D5F931780170447038787978C9
:1069C00009020A181698149901404B09DE48294615
:1069D0004EE7159C0C54DD48085C42224243DC48DB
:1069E0002FF0ECFB2FF098FA39E026460C352AA858
:1069F0002FF0C4F900246878844205D253A82AA94C
:106A00002FF0BCF9641CF6E7711C7DAE2FF0BDF8C9
:106A10006878328853A923F0A9F80646189B169A7D
:106A2000FEF776FA00251A9AB878F978090208185C
:106A3000C84988420ED8002A0CD1387879780902E2
:106A40000C182A212FF0B8FB00212A2911D02EF092
:106A500095FFFAE7002E02D0304620F055FD1BA826
:106A60000378002B02D1159820F04EFD7FB006B0C0
:106A7000F0BD691E8D41E901417016990170C48411
:106A8000304626F05FFAEAE70220159C00217BE001
:106A9000AF48FE2100221A9219F09EFE681E199935
:106AA000A74A5158C0B2169A42432EF094FB287E52
:106AB000697E09020818217B627B12025118884204
:106AC00004D0A54A904201D0914229D114950C35A9
:106AD0002A460F32A87B4100501816901992A37BCA
:106AE00058001890301817901698401C1690525C59
:106AF000009300201699334622F078FD1695AA7B64
:106B00001798431C1898305C00900120199922F0C6
:106B10006DFD92488A4A105C9149515C01435CD1F9
:106B2000862479E00021159C2EE0012414990B782D
:106B30000090304619991EF04FFE0546002800D0FF
:106B40001794002D179A00D06EE72E466CE71A981E
:106B5000002801D0FEF792FB53A8441C814D002E63
:106B600075D00822204629462CF06EFD002805D05D
:106B700020462AF0A1FF204628F074FD761E083436
:106B8000EDE70221159CF74D0123002200AE07C658
:106B90000392049320A81CA916F08CF8F3482858F7
:106BA00002214170FD482C54FD48214627E6ED485E
:106BB000EE494658B078C0073DD120A8FF212CF0FF
:106BC000B7F9E949884201D1FFF76BF92CF070FF62
:106BD0000546E448E54946582EE00D3714990D3135
:106BE000F248E04E301802252FF00AF91698C07AC4
:106BF000EF49705443204001301839462FF000F916
:106C0000EC483018E17A817715998176EA482EF0C0
:106C1000B7FB002855D08A241598214628F0B6FAEB
:106C2000D04DE04EA85D214628F0B0FA1A99A9553A
:106C3000DD48295413E700257078012801D0FFF7BB
:106C400030F9CB48017E002946D1199147E0002454
:106C5000FEF714FBC34D199EA8591A9FC0192EF0B8
:106C600089FD091B891E2EF065FE0621159822F06C
:106C700073FBA859C0198179C279120251184518BD
:106C80002C460C34284644302AA92FF077F87D98FA
:106C9000482168544835000A6870002718996770C1
:106CA00021702024159D28462FF04DF853A92FF070
:106CB0007BFA28461FF022F9002800D1CFE62846AB
:106CC000CBE600241598214628F060FAA548B5497E
:106CD000405C2146FDF78EFCA64850301990B81D47
:106CE000012901D0FFF738F8B17A00270229169759
:106CF00007D0012901D0FFF72FF8102017901A981C
:106D0000169032464C3231468C313EA81A920AF027
:106D10006DFB0C36984899493A46083224D0914A7E
:106D2000D3191A5C5B5C7F1E9A42F5D09A421BD243
:106D30005D20C0008B49091814961A9E1CE0C046BD
:106D40002C2E00208D160200348000003508000033
:106D500005310300F7FF0000FFFF00005C080000A2
:106D600082080000009803005D20C0007D490818DB
:106D7000189009191A981490814B2AAF08243846A4
:106D8000224698473846083020221A9214997C4BA4
:106D900098473846283018992246794CA0473846FB
:106DA000303031461A9E3246A047234653AC3EA9A6
:106DB000204632461E46984720462030502239460B
:106DC000B0477034204619991A9AB047169800288F
:106DD0001CD053A8902122AC224622F007FF4EA8D7
:106DE000012101704FA810222EF0BCFF00201028B6
:106DF00000D1A2E04FA9095C5C224A407DAB1A5445
:106E000036224A4053A90A54401CF0E753A8902167
:106E100022AA199225F0F0FC4EA81A9001270770BB
:106E200059497DA8024658C958C20421417000241E
:106E30007E9427F0B3FE064654481A992FF0B8F90D
:106E40002CF0E2F81A96366853AF40212FF03CF947
:106E500038461999179A2EF02DFE4A48026837468F
:106E60002037384621469047002856D153AC484930
:106E700020462DF0A3FE1A980068402221462AF0F1
:106E800075FC002849D131462831202230462EF0A9
:106E900011FE53A83F492DF091FE3A4802680021A7
:106EA00038469047002838D11A98006853A94022E4
:106EB0002AF05CFC002830D11A980068334901227E
:106EC0002AF054FC002828D11A98066853A93046A5
:106ED00029F010FD002820D12A48026830462030D1
:106EE00000219047002818D1304628302024314610
:106EF0002EF0F6FFA5204000B63030621A980068E8
:106F000053A922462AF032FC002806D11A980068BC
:106F10001C498A682030204990472BF0C5FA1E4949
:106F200046AC20222FF0DCF81A9800682CF026FDE1
:106F30001CA810222EF016FF11E053AC2046103092
:106F40004EA92FF0D3F87DAE3246103211212046E3
:106F500022F04CFE20211CAA304622F047FE0020E1
:106F6000FEF7FAFE2C2E0020FFFF00003C09000077
:106F7000B46800207C6B0020EF0200008F0400004A
:106F8000C94103007800000FB897030010490020A2
:106F90005C5C5C5C6A6A6A6A9049002027070000B2
:106FA00031D60200380800005E0800003A080000F0
:106FB0003C0800004408000079C90200F0B5FFB0A9
:106FC000DCB0B4A82A90B4AEB4AB9DAFB4AC38A8D2
:106FD000DB4DDC496A5CDC49695C520702D40A0774
:106FE00000D5ACE0490701D401F081FD2A991531A3
:106FF0002A91314690312291263619461531289131
:10700000591D27910E33249339464E310E9139463E
:107010004D310D913C3721464E311E9121464D3167
:1070200019913C341A9403213491C90140183390CA
:1070300000202C2805D02918332292012EF042FC82
:10704000F7E74720C14363202B90800037903091B1
:107050004731332080011F90369129500020379905
:10706000814203D038A92EF031FCF8E70F9704963F
:10707000339836990160B5482F180F2035900026B7
:1070800032963146022E3CD0F4B20025B4AA0C232D
:107090002046294627F0E4FA411C22D0002823D1BB
:1070A000B4A99DAA204627F0B3FA0146483101D081
:1070B00000280FD19DA800880E2810D879880122B9
:1070C0000A437A8038803599884215D2294632960B
:1070D000359012E00F2038803098253004E00F20E2
:1070E00038802DF0E9FB36987A88054601218A43DD
:1070F0007A8020462AF04AFF2946761C3F1D904D93
:10710000C0E7359E0F2E38D090482C180025329FAE
:10711000022D2ED020880F280ED0AF420CD0B042C6
:107120000AD00F2020806088012188436080E8B267
:107130002AF02CFF309947316D1C241DE8E73320DD
:107140008001012129500024E0B2012803D81BF05E
:107150000DFC641CF8E7F04818212950CD200001EF
:1071600000212954774AA85C06210143A95401F063
:10717000B9FC0E2E00D03099714D269173482E180F
:1071800000273697022F30D030880F2802D17F1C7D
:10719000361DF7E7FCB238A9204613F069FF014617
:1071A00038310FD0411C13D0002814D1339B03CBAE
:1071B0002B9A5201AA1810661878CD231B01E854A7
:1071C000D166E4E70120B840369901433691DEE705
:1071D0002DF072FBDBE770880121884370800F205F
:1071E000308020462AF0D2FED1E70020102420284B
:1071F00000D198E00C22424338A989184968C74B4E
:10720000194204D038AB9A181289002A02D1401CC6
:107210000C34ECE7461C880F38A93246BF4F1F2AB2
:1072200008D80B593B4202D09B0F984204D1521C04
:107230000C31F4E7014602E002282FD10221339EEF
:10724000369AD4B22246C240D00715D0C8B202281E
:1072500010D232682B9B5B01EB181A66CD22140109
:107260002955800018186421405A0E2846D118F07C
:1072700027F845E03698C4B2CD2000012A5C0121F0
:1072800008469043C440E2074DD08200AA18A44BA0
:10729000D45A8C43D4522AF079FE44E001461F2E82
:1072A0001AD838A800599D4A104212D0870FC8B288
:1072B000B8420ED081006918244A8A1853880125E3
:1072C000AB431F4D53800F22204BCA522AF05EFE63
:1072D0003946761C0C34E2E73698C4B2C8B222466E
:1072E000C240D207339EB1D10021379A8A4201D1E0
:1072F00001F000FC38AA2EF021FBF6E716F0BAFAEE
:1073000000203799814203D038A92EF0DFFAF8E740
:10731000309847303060285D38A913F0A9FE002866
:1073200001D02DF0C9FA0749685C0222259210436A
:10733000685400207B4C08280AD02EF0A3FAFAE704
:107340002C2E0020D10C000079040000C40C000099
:10735000B4A8401C2D90B4A8093021909DA85B30A2
:107360000C90B4A801460831179101460C311691D2
:1073700001461431159101462431149101462C31F6
:10738000139101463D3112914F3018909DA801464E
:1073900008310A9101460C310991014614310891D6
:1073A00001462431079101462C31069101463D31B9
:1073B00005914F300B90B4A8801C039000215A48CF
:1073C00028181D90594828181C90594828181B90B7
:1073D00058482818239058482818209057482818AB
:1073E00011905748281810903591202901D101F0AB
:1073F00053FB0C203691484338A90D1869680B4699
:10740000464A1340379301D101F070FA38AA121896
:1074100012893392002A01D101F068FA8A0F329260
:107420009200484B9A18484BD75A0E2F01D901F0B9
:107430005DFA01223192BA404F231B021A4201D158
:1074400001F054FA38AA101840892F903D483F4A5D
:10745000815086183398B0807F20359C2E90044050
:107460001C2C00D914E13198A0403949084200D1C0
:107470000EE1344837494158002906D0369880B289
:107480008847002801D101F031FA601E1E2800D97A
:107490009EE1800001A108588746C046597500004A
:1074A0009F7600007D770000D1770000D177000043
:1074B00001780000BF780000D1770000D778000085
:1074C000E1780000E7780000FD780000D177000047
:1074D0000D790000DD790000D1770000D177000040
:1074E000D1770000817A0000D1770000977A000000
:1074F000D1770000D1770000D1770000D17700006C
:10750000D1770000B37A0000B97A0000D17700008B
:10751000D1770000D37A0000CC0C0000FFFFFF3FC2
:10752000C60C0000544F00207C040000370200000D
:1075300092040000E40C00002A0C0000F40B000090
:107540000A0C00002C2E0020C40C0000DC0C0000F3
:1075500001460018BC0C00002F98042801D100F04F
:107560009AFF0328329D01D100F09BFF022801D031
:1075700001F0BCF99DAC5C26204631462DF0DCFEC6
:10758000284637992246334626F0A2FB002801D030
:1075900001F0ACF99DA832900078012137910840A4
:1075A000F74FF84EB95DFE220A401018B8559BAC53
:1075B000042220460A99F44EB0471D9821462BF02C
:1075C00087F90920C0013818082509992A46B047CB
:1075D000329C207802210140EA4BF85CFD220240F7
:1075E0005018F854892080003818319008992A469C
:1075F000B04733469E981026F041B92189007A1889
:1076000033922F917850FF20E04978546078E04918
:1076100078546088DF4978529120C0003818079963
:107620002A461C4698470F980078DB4978541C9DE1
:10763000284606993246A047D748385C2874D74870
:10764000379939541B9805993246A0472DF0A0FD73
:107650000D9800783399C8730E98007888730D469A
:107660002B20000138180C220B99A0476D88CC49BB
:107670008D4201D101F025F92F98385A884201D165
:1076800001F01FF9C749785C379A104301F01DF9E2
:10769000BB4AC54BD05CFD210140D154E9E6B4AAF8
:1076A00018232EF05EFA002801D001F01FF9052002
:1076B00005020121284624F031FC00284AD0044666
:1076C0000126102329463246B84FB8472CF053FE06
:1076D000B4A908222F46339525460C4637912CF045
:1076E00073FD0023284639463246B04FB847617AC9
:1076F0002C468279C3791B029A18037A407A0002D9
:10770000C01800048018017011232846339F3946A1
:1077100035463246A54EB047B7992CF09DF8A44B9C
:10772000B047B6992CF098F8A24BB047379E7189B4
:107730002CF0D2FC07204303204639462A469B4DB5
:10774000A847F17D2CF0A4FCF07D002802D0204653
:1077500020F0DEFB2EF066FA002801D101F0C6F819
:1077600020210122944B2DF0F3FB2CF004FEB4A950
:10777000CA890280497B817001F0B8F80020804DF1
:107780008E4969580A78904200D3B4E14A788B78E0
:107790001B029A18CB7809792DF0FBFF82008A58DA
:1077A000917ED37E1B025918137F547F2402E31865
:1077B0001B0459180AD0537E309A18325A43002AB3
:1077C00004D000230B70491C521CF8E7401CD7E77B
:1077D000C92000016A490C180025694878494058B9
:1077E000854201D301F082F82168369886B230468E
:1077F0008847002801D000F029FC6D1C1434ECE708
:10780000B4AA18232EF0ADF9002801D001F06EF8CB
:107810002DF08EFE0023064621462A46634FB847C8
:10782000B4992CF01DFC2EF0ADF82B46B847B59955
:107830002CF016FCB598FA213791484328F0C2F88D
:1078400002233046339621462A46B847B6992CF093
:1078500043FCB4AF38895B4948435B4940182EF07C
:10786000F5F945214901464A50502AF049FE0323C3
:107870002EF088F84D4EB04779892CF02DFC788990
:107880003799484328F0D8FF0423339E2EF07AF826
:10789000464FB847B7992CF0E3FB05233046214605
:1078A0002A46B847B8992CF0DBFB06233046214620
:1078B0002A46B847B9992CF00FFC01F017F8286850
:1078C0002E900020414C2F9E042800D1C8E19DA994
:1078D0002DF0FCFFF8E72B98400129490B58EEE00A
:1078E00027483B49EAE0002332983799042B00D11E
:1078F00039E29DAC0022E2545B1CF7E7002004282B
:1079000000D152E29DA92DF0E1FFF8E72F98012860
:1079100000D067E3B4AA08232EF023F9002801D091
:1079200000F0E4FFB4982B4940189B218900144AC9
:1079300050509D208100002050523399C908090100
:10794000814201D100F0D2FFB59A224BD2180C4DE2
:10795000214EAB591C181A54130EE370130CA3706C
:10796000120A6270AA591218002353731373AA598A
:107970001218D37A10241C43D4721030E0E7C046AA
:107980002C2E002079040000C9410300FA020000F7
:1079900036020000760200006B0200006A0200005E
:1079A000FFFF000014070000D10C0000514F03003E
:1079B00001E0000002E00000FEEF0000AC09000062
:1079C000B80C000090D00300FF3B0000544F002093
:1079D000640C0000FF030000E40400000822239868
:1079E0002EF0F8FB2F9C022CF54D01D100F0D3FDB9
:1079F000012C01D100F07EFD002C01D000F076FFBB
:107A0000B4A898212DF098FC3398982801D000F064
:107A10006FFDB4AA98232EF0A4F8002801D000F03E
:107A200065FF22980378082B01D900F05FFF2298A8
:107A30004078102801D900F059FFA721C900F64A63
:107A400053545118487000200121039A049F984212
:107A500001D300F0B2FF531E1B781524A401EE4E93
:107A600035596D186D1E2B7053781578345966187A
:107A700065547370401C229B1B78C91C121DE6E7DD
:107A800000233298379C042B00D19BE1B4A900223B
:107A9000CA545B1CF7E7B4AA24233298379C2146CA
:107AA00026F0DEFD002800D1DBE222F0DEF800F057
:107AB0001DFFD948D94901E0D748D9494358002B7F
:107AC00001D100F013FF32983799339A984700F0AC
:107AD0000DFF2F98002801D000F008FF0023CE4CA6
:107AE00032983799102B01D100F000FCB4AD002280
:107AF000EA545B1CF6E71821339828F07DFC2F90A0
:107B000000212E912F98814201D100F0EFFE31919A
:107B1000B4AA18232EF025F8002800D09AE0C14816
:107B200028580178401CB4AA5278339200252A467E
:107B300091421CD0077844782402E4198778C678EB
:107B40003602F619360434196759BC7EFE7E3602B9
:107B500034193E7F7B7F1B029B191B041B1903D02A
:107B60003B78339CA34204D0521C2D1DE0E70B460A
:107B700000E013468A42A84D64D20178427812028E
:107B800051188278C0782DF013FE99004058817EFC
:107B9000C27E12025118027F437F1B029A18120400
:107BA0005318417E3020484318180022914206D0D5
:107BB0001C7AE40702D0521C3033F7E718468A4299
:107BC00040D2017A01220A430272B4AA11780170EC
:107BD0005378437053884380B59B0371279E337855
:107BE00074782402E318C380B378F4782402E3188D
:107BF000C385537A03725289028200290BD1B79947
:107C00004182249B19785A78120251189A78DB78AD
:107C10002DF0D8FD4161B4A9498A02462832018578
:107C2000B9999170289A2DF042FC81851C21242954
:107C300003D0FF224254491CF9E726F099F92E9807
:107C4000401C2E902E98002802D01DF013FA01E05F
:107C500000202E903199379818303790491C51E701
:107C60009DAA042332983799299326F031F80746C4
:107C7000002803D19D9868496B4A885429F074F80C
:107C800065486A4946521C21002E319100D03021AE
:107C90003398001F002E01D02C223192379A161DE6
:107CA00028F0AAFB05462E9860600024204629464D
:107CB00029F089FC5E4908703395294620F000F8C8
:107CC000224631462E90544C329D3398824201D345
:107CD00000F001FC002F00D0FDE33792B4AA284643
:107CE0000E461CF0B3F90746002837D12C97B4A8EC
:107CF0002BF0FAF84F496258299B3499084001014A
:107D000051180D7A4F7A3F027D198F7ACC7A24026E
:107D1000E419240467193D46474C2540002B04D044
:107D2000002D05D0401C5B1EE7E7002D00D0CEE300
:107D300008313246404B1A401F23DB061F40BB1858
:107D40000A70140C8C70120A4A701A0ECA702E999E
:107D50000870491C2E91304C329D2C9F319831185F
:107D6000379A521CB1E79DAA042325F0B1FF0028E1
:107D7000294C00D1D8E29120C000241808222046C6
:107D80002E492BF061FC002801D100F0AFFD2BF053
:107D9000EBFB002801D000F0A9FD00210122B4ABCB
:107DA000204611F087FD00F0A1FD00233298379D99
:107DB000082B45D0B4A90022CA545B1CF8E7C04682
:107DC0002C2E0020B4AA0423214626F049FC0028CA
:107DD00001D000F08BFD241DB4A801781920860184
:107DE0000D4A91550B20C001151800200746C9B255
:107DF0008F4201D300F07AFD002801D000F076FD1B
:107E00000C23329821462A4626F02AFC7F1C0C348B
:107E10000149895D0C35EAE72C2E0020680C000032
:107E20006C0C0000AC090000B2040000B6040000B5
:107E3000544F0020E4040000FFFFFF0708980300F0
:107E40009DAA04242946234625F042FF002801D09C
:107E500000F04CFD01279DA840780228259800D30A
:107E60002046349909022F9139022991441900269C
:107E7000334635462C979DA80078854201D300F003
:107E800035FD002B01D000F031FDB4AA0823329853
:107E9000214625F01DFF03462D9800780106490F65
:107EA000052900D19AE0012909D12D9949780902C3
:107EB00008182F9908402999884200D18EE0319303
:107EC00033963794E3208600FC4A905911246C4382
:107ED000015D39430155B498915909198871B4A8C5
:107EE000007822F0E1FC00280BD0F4488059339E42
:107EF00080190021379C319B11296FD02DF03EFD58
:107F0000FAE72D9F3878ED4989590A5D0007400E40
:107F100087231340181808553878E84989590919F2
:107F20004A781202C0001F23DB0213401818000A0F
:107F300048702DF055FA01462F9A11402C9A5202A2
:107F4000914209D1DD49895909194A7BC006C00F00
:107F5000FE23134018184873D84881590819095D41
:107F60002DF065F84A05520F06D1B499D44AD34B87
:107F7000995401782DF05BF82D9A52789207520FA0
:107F800006230F469F43BA180B0A4370090C8170F1
:107F90000270B4A8C178C94FBA19BB591B195971DD
:107FA000B95909192E9B0B71516800780D54B59879
:107FB000B9590A19095D53781B02591893781B04A3
:107FC000C918C006800BBF4B19400818010C9170EE
:107FD000000A50702C9F379C339E319B08346D1CD7
:107FE000113648E72D68B4AA04232DF0BAFD002805
:107FF00001D000F07BFCB498B34940189B21890064
:10800000AE4A50509D208000002414523398001F27
:1080100001D100F06BFCAD494968691AAC4A914244
:1080200001D900F063FC80083799091DC2B232986B
:108030001BF0C4FEA5480078002801D100F056FCD2
:108040001FF062FAA148047000F050FCE468009749
:108050002F98019030463299379A339BA04700F011
:1080600045FC24343794B498944F9A4978547A183C
:10807000B4A833904079411E8841029210770C22B7
:108080002F92209C204621992CF09EF800206070B1
:10809000E070E0802990A0808F4D2846319E3146C7
:1080A00023F03CFF2C90294632468C4B8C4FB8472E
:1080B0002A9B19785A781C46120251182CF00CF899
:1080C0002C9F384629463246259B854DA847217B63
:1080D00031402BF0DDFF032338467F493246804D87
:1080E000A847217B89072BF04BFE207B2599084070
:1080F000400823F049FD0423384677490C463246B0
:10810000A8473399C97D2BF0C3FF05233846214684
:108110003246A847BA992BF0BBFF062338462146C2
:108120003246A8472A9C217B4907C90F2BF0B0FF94
:108130000723384668493246A847217B0907C90FFB
:108140002BF0A6FF257B67485C4C205C6900102360
:1081500019402E93EF22024088185840614960541C
:10816000082338465C4932465D4CA047E906C90FF2
:108170002BF08EFF0923384657493246A047254643
:108180002A99097B8906C90F2BF082FF0A233846FA
:108190003C4651493246A847339D697E2BF078FF13
:1081A0000B2338464C4932464D4FB8472A99097B34
:1081B00049062BF0E5FD2046474932462F9B484FA4
:1081C000B847A97E2BF064FFA87E47493B4A505030
:1081D0000D232746204640493246414CA0472A9C61
:1081E000217BC9098279C3791B029A18037A407AE4
:1081F0000002C018000480180170207BC00925F01F
:1082000039FE0E23384634493246354CA047E97EC4
:108210002BF03EFF0F2338462F490D463246A0472C
:108220002A9C617B31402BF033FF607BC007C00F7D
:1082300025F07AF93846294632462E9B284DA84724
:10824000617B89072BF09CFD112338462249324679
:10825000234DA847BB992BF01BFF122338461E491C
:1082600032461F4DA8472DF017FA2BF035FF132388
:108270003846194932461A4DA847A17AE27A1202C5
:1082800051182BF029FF33980079411E092900D994
:1082900019E10A4D43003298379C2146119A26F085
:1082A000DFF9B4A909794A001319002800D1A9E21D
:1082B000309E473600203190AFE2C0462C2E002081
:1082C000FA020000FF1FFC00FF030000544F0020D3
:1082D000FEFFFF7FEC0B000057FC0000FDFF0000DD
:1082E000514F0300FC080000DC080000B4AA102372
:1082F00025F0EEFC002800D0F8E2B4982521890191
:1083000060526018B4A94A888281B59AC281CA882D
:108310000282B69A428249898182B79901840020FB
:10832000014622F0A9FBE1E20020102803D0B4A905
:108330002DF0CCFAF9E70120000233903798071DA1
:10834000002001469DAA1278914200D313E500282F
:1083500000D010E59DA840780128379101D0102564
:1083600000E00D25B4AE3298394632462B4625F052
:10837000AFFC81218B00E258B17A0B26714354186F
:10838000617AA27A12025118339A11427ED12C9549
:108390002E902F970934B4AA1D46D37A9B075B0C05
:1083A00031969F2636020E409B19319E2170190A84
:1083B0006170A14F7859917A71434118887A00020F
:1083C0004004800F19D0B4A8C07A01282BD106220E
:1083D00008469A492BF0F8FEB698974F7959B4AAF7
:1083E000937A7343C918030ACB718871B798795986
:1083F000927A72438918087226E0B4AE304624F0AF
:108400005FFFB6987959B27A319B5A438918020AAC
:10841000CA718871B7982CF0D0FEB07A3189319E3C
:108420001DF0C0F810E0B4AE304624F049FFB79814
:10843000814F2CF0C2FE7859B17A319E71434018B9
:108440007F4A110AC17182717959B4A8827A724344
:1084500089182DF017F9339B1A434A72120A8A724F
:108460007959827A7243891800224A727959807A3E
:1084700070430818817A10220A4382728320800098
:108480003958491C39502F9F2E982C9D7F193799A8
:10849000491C694C56E7B4AA64232DF062FB0446DC
:1084A000F0E09DAA5C232846379925F011FC04468C
:1084B000002800D0E6E00020642800D1CAE0B4A97A
:1084C0002DF004FAF8E7329C379D299EA7E100279A
:1084D000594C329D31462F98002806D0002F04D1E8
:1084E0003398C2B228461BF069FC56482554FDE17A
:1084F000514D2F9C2AF0E8FF00279D979DAA042646
:1085000032983799334625F0E3FB002805D0A721A0
:10851000C9006F52022C3ED05CE02BF04BFF1818C4
:10852000339B1B1F9BB2834235D130984730102AB2
:10853000EDD81029EBD8002A394600D166E22E96F4
:1085400031973798061D00200125114607468F42B6
:1085500000D354E2002800D051E2B4AA0423329898
:10856000314625F0B5FB00280FD1B4A94A78152370
:108570009B01314CE4586419641E227049882E4ACC
:10858000D25853195155090A59707F1C9DA9097871
:10859000ED1C361DDBE72AF097FF00249D949DAA71
:1085A0000427329837993B4625F092FB00280ED1DC
:1085B00031942BF0FFFE1B183398001F84B23098C3
:1085C00047309C4202D1102A00D898E1319CA72163
:1085D000C9006C52002800D088E100240425164907
:1085E0001948085C844210D2184808584119897803
:1085F000032907D1405D22F057F9002802D0E0B2EC
:1086000028F094FB641C0835E9E71148085800215C
:10861000082902D02DF0B2F9FAE70020802800D115
:1086200064E10549094A89580A18095C2CF0B8F830
:1086300000220A700830F1E72C2E00200098030079
:10864000FFFF0000B40400003905000044050000ED
:108650003C050000B4A89DA95C222BF0B5FD0C9848
:1086600000781E9B597BF8220A40072101405018D0
:10867000587330984730CB900020C1439974090A51
:10868000D9741875002C00D030E1B4A83790007868
:10869000012132910840F94FF94D795DFE220A40DF
:1086A000101878559DAC042220461799F54EB04716
:1086B0001D9821462AF00CF90920C0013818082419
:1086C00016992246B0473798007802210140785D1C
:1086D000FD220240501878558920800038183390C8
:1086E0001599224625463194B04733464320C000B1
:1086F0003A182E92B5981026F041B92189007C18BD
:108700002F942C917850FF20DF497854379948787E
:1087100090774888DF4978521E9C207D9075912083
:10872000C000381814992A4698471A980078D749F3
:1087300078541C9D284613993246D24B9847D3480B
:10874000385C2874D248329B3B541B9812993246AD
:108750001E46CC4B98472CF01BFD199800782F9D96
:10876000E8732078A8733798007880092E990875E7
:10877000607B8107C90F6973F64BF9584007C00F3A
:10878000C003F20391434018F8502B200001381821
:108790000C221899EE4B9847607B5121C9007A5AF8
:1087A000C007000E80239A4310187852CB981FF010
:1087B000A9FFA07CE17C0902081827F097F8607BEC
:1087C00031990840C00825F055FB6D88DA498D4283
:1087D00007D02C98385A884203D0DF49785C304360
:1087E00002E0DD49785CB04378540822339C20468F
:1087F000D2492AF029FF002878D0CF48854275D089
:108800009BAA6FE00298C1711018C0880026CA4A5E
:10881000904202D1481ECA496854329C1D46B4A8F1
:10882000319900291FD0807900281CD00A281AD835
:10883000430020462946109A25F012FFB4A98979F1
:108840004A005519002802D0309E47360BE00298A6
:1088500041771018808B0026B74A904203D1481EFA
:10886000B049B84A8854B4A8002E01D0FFF71DF9CA
:10887000C079002801D1FFF718F9042801D9FFF7C2
:1088800014F961214901A74A52184300204629469C
:1088900025F0E6FE002801D0FFF707F9B4A8C0795B
:1088A000A049A94A885489184200895AA24A91428B
:1088B00001D0FFF7FAF8401E9A49A34A8854FFF7FF
:1088C000F4F8A549785C379A9043319C7854082293
:1088D00020469A492AF0B8FE002807D096488542DB
:1088E00004D09CAA284621461AF056FF3699491C06
:1088F0003598401C35908B4D8D4CFEF776FD102938
:10890000319C00D963E6002A214630D03798041DF7
:1089100000200125114606462F978E4222D20028BC
:1089200020D1B4AA04233298214625F0D1F9002899
:1089300012D1B4A94A78339215239B01794AD258AF
:108940005219521E339F17702F9F4988754AD2586B
:1089500053195155090A5970761C9DA90978ED1CC7
:10896000241DDAE700286F4D319C00D02FE6B59426
:10897000B49488003799254644189DA840788542CC
:1089800070D2E119B4AA0823329825F0A1F9002881
:108990006AD1B598634B6D4E9959CA19C855000AEA
:1089A0005070B4A881799A59D2199170C0799959A7
:1089B000C919C8706D1C0837DFE7002007213A4647
:1089C000229B5B78984200D307E6931F1C785B7864
:1089D000544D5E4EAD596D18ED1E6B702C70514D9F
:1089E000137807241C40AB595B185B1E1C7013786E
:1089F000DB08AC596354401C0831D21DE0E7002865
:108A0000484D2F9C319F2E9E00D080E53546B5976E
:108A1000B49788003799401831903E469DA8407819
:108A2000864223D231984119B4AA0823329825F0FE
:108A30004FF900281ED1B5983A4B444C19594A19A0
:108A40004855000A5070B4A8C17907220A40195944
:108A500049198A70C079C00819594919C870761C1B
:108A60000835DBE70020B5E52E4DAFE500202D4DA4
:108A70002F9C4FE52B4D2F9C49E5C0462C2E002006
:108A800079040000C9410300FA0200006B020000F3
:108A90006A020000760200002078002803D01EF051
:108AA00033FD00202070002422482C502818848098
:108AB0002698483001D114F0DDFE1C4828580028C3
:108AC00010D1204629F062FACD2000012C542B98B9
:108AD000400128181821C166006E401C02D10120F7
:108AE0001F996850104AA85C04210143A9547FB023
:108AF0005CB0F0BD30994731316038A912F0B8FA56
:108B0000002803D02BF0D8FEFEF7B6FB03CE2B9A3D
:108B10005201AA1810663078CD231B01E854D166A3
:108B2000FEF7AAFB2C2E0020D10C0000CC0C00007C
:108B3000544F0020DC0C0000FFFF000008980300E9
:108B4000F30B0000090C00001E0C0000440500009F
:108B5000C94103001405000014070000F0B5C9B0B6
:108B6000E64D00242C8008201190A87056202C542B
:108B70006E202C524620102113912954284647304C
:108B8000DF49E04EB0475D210D200691685428462C
:108B90005E30DD49B04711200A9000018D21890126
:108BA00029520620A871E81DD849B04726200F2178
:108BB0000D91295428462730D549B0478C20D549F6
:108BC000295004200B90E867D348D44A844203D04C
:108BD00000211155641CF9E70020D14A142803D064
:108BE00000211154401CF9E70020CE4ACE4B11461B
:108BF0006E31814203D000211954401CF7E7CB4865
:108C0000D421C64C0C9160502046D430C84B194634
:108C10004831C160C7490A4634326F20C0000E9007
:108C200022501831C448215019464C31C3482150B4
:108C3000194650318F20109000010F902150A7212C
:108C4000C9006118BE4EBF4A1C465D344C608E6040
:108C5000CA60BD4F394610310022BC4C802A0CD06E
:108C6000AE480559A818A9540D0EC5700D0C857095
:108C70000D0A45700832491CF0E7B548AF21C9001C
:108C8000A64B16915850B348B349D963A8495431FB
:108C900003C3B248B249083B5850B2488121890009
:108CA00012915850384631304121CA0014929850E0
:108CB000E320850058193A464532203715955F5113
:108CC000A94D42608560A948A94A98501846303697
:108CD000A84A9E500C9A9B58A74E002E05D0002003
:108CE00018708E485B1C761CF7E7E0220C928358C4
:108CF0000026042E04D0002098558848761CF8E7FA
:108D00000E9A80580023192B03D00022C2545B1CFA
:108D1000F9E78248884A805800231B2B03D00022A1
:108D2000C2545B1CF9E77D48844A80580023042B19
:108D300003D00022C2545B1CF9E778480F9A805890
:108D40000023042B03D00022C2545B1CF9E70791D7
:108D500000200346102B23D070490A59DD00561914
:108D6000575D71780902C919B778F6783602F61995
:108D700036047618171800220021082A02D0B954A8
:108D8000521CF9E73170654909594A194E55310E9F
:108D9000D170310C9170310A51705B1C0830D9E7E9
:108DA00076485E4908580022082A02D02CF072FD4D
:108DB000FAE715208001594908580022302A02D0CC
:108DC0002CF068FDFAE75548169940580022482AC9
:108DD00002D02CF05FFDFAE7504800680022EC2A30
:108DE00002D02CF057FDFAE7654C4C48C06B234687
:108DF000002B04D000210170401C5B1CF8E74748A1
:108E000040680022042A02D02CF044FDFAE74348CF
:108E1000534940580022402A02D02CF03BFDFAE78B
:108E20003E48129940580022DC2A02D02CF032FD34
:108E3000FAE73A48149940580022142A02D02CF03C
:108E400029FDFAE739200E90000134490858002224
:108E5000142A02D02CF01EFDFAE73048159940582C
:108E60000021112902D02CF089FDFAE7E5208000CD
:108E70002A49085821462031002902D02CF048FC0C
:108E8000FAE726483B4940580021302902D02CF00F
:108E900075FDFAE72148364940580021E02902D003
:108EA0002CF06CFDFAE7012636481C4C2654364857
:108EB000807E0028059600D051E233498E76C86C3A
:108EC000002800D0FEE70D4600241A941994189447
:108ED0002E482F4918AB224626F038FAE864114D87
:108EE0001635284628F026F9002800D11EE2A542B2
:108EF00050D000210155641CF9E7C046784200209B
:108F000030970300E14B0300929703001F98030082
:108F100074970300BEBE4023240D00002C2E0020B9
:108F2000A86900204A020000503B0020884F002022
:108F3000306900207C6B0020E8080000EC0800008D
:108F40009C6D0020B8670020206A002044050000C6
:108F5000546E0020D0620020306000209C6E002003
:108F6000E40400009C64002090610020BC630020A9
:108F70003C0900005C06000058EFFFFF3C050000C4
:108F8000A0FEFFFF0C0D0000B4680020284E00205A
:108F9000CDDD02001490FB4C85204000159020048C
:108FA00059D0159825F0DCF82CF016FC17F03CFD94
:108FB000F54F3846F5491DF0E9FE3046F44E306075
:108FC0000024F44D2C60F44868602021F3482CF014
:108FD000B3F99820A8621498E8623846314620F028
:108FE00083FE0546102803D8E94824F04FFC0546C7
:108FF0003021EB4F785C401E7854E349896D7A6BE1
:10900000914201D1002179630006059E1AD1E548FD
:109010002AF045FF3126B85D002806D1E24A2E32FB
:10902000E248E34900BF00BFB85D401EB8550006E6
:10903000059E07D1384640302BF0E2FE38465430CA
:109040002BF0DEFE159825F063F82CF0C0FB102DF8
:10905000A5D0E443A3E7D74880790028149F00D027
:1090600061E1D5480024046501210F912AF092F8AE
:10907000002800D157E117A8FF22027035A80A99ED
:1090800001701D214170E82181707421C1706C2133
:109090000171EC214171B02181710E21C1717F21DB
:1090A0000172B72141726D218172C521C1728E2179
:1090B0000173022343730C218173A221C1732046E3
:1090C000102C03D0395D0843641CF9E7002800D157
:1090D00029E103930025EC4301921746723739A822
:1090E00040212CF029F929460895029420462A4669
:1090F000982A49D004929200149B9B58584000240F
:1091000002040A94099404D1491C0991072900D941
:1091100008E19C49491C884204D2681C0A9007282F
:1091200000D9FFE098B239AD29461C462AF018FC58
:10913000200C29462AF014FC089DAD1D1598F53029
:1091400085421AD90894002108460D46202813D0DC
:1091500039AA125A3B465C339A4200D9E2E039AA56
:10916000125ABA4203D900290F9900D0DAE039AA7D
:1091700000231352801CE9E7089C0895049A521CAE
:109180000A9D09992046B3E718AD4C2128462CF0DA
:10919000D3F82B9517A82C9023F07EFC2B98014632
:1091A00049314922039B83540024046401220F9215
:1091B0004A700421029A22F0B7FD2BAD002800D09E
:1091C00025460028149F039800D0ACE031AA107007
:1091D00035A83290139833902D97159926312F91F9
:1091E000309039A82E902DA928460DF003FD0028B7
:1091F00007D0132041012CF067FF28682CF019FBE1
:1092000091E01324200138182D9039A810302E90A9
:109210002DA931AA28460DF0EDFC159061012CF026
:1092200053FF28682CF005FB15980028624C7AD172
:1092300023F032FC2120C00001992154201821463E
:1092400025465C3565651590A0650798840000206B
:109250000A90085528F022FA2246574CA15C0029B2
:1092600002D029F0F5F95EE009920F99A15429F096
:10927000EFF92F4630374C212CF026FFEF67089589
:109280007C3515986860D5200F9921540421384603
:10929000029A22F049FD002800D00A9D0C99464A06
:1092A0005550002804D000204349099A885438E0DA
:1092B000E420414A039911541046E430089B43606E
:1092C000139981600027D7675F629F62DF62D7656D
:1092D000176657669766F42020211150FC200299EA
:1092E0001150019806300F991154384639463A46C4
:1092F00018F0FEFB002801D100F01AFD0C982E4E4C
:10930000305800682BF03DF9756D2C469034677627
:109310002CF074FB2F626F62AF62EF62E760099816
:109320003754059E149F38462BF082FD2149C87999
:10933000002803D18879012800D1CE7128F0AEF938
:109340001E4C6021625C002A01D0002501E06654B9
:109350001B4D29F07DF9A5611A4846731A4C2BF074
:1093600043F91A4AA05C0B990843A05429F09CF8D1
:109370000C9820580021109B042929D02CF0FEFACB
:10938000FAE7C046FFFF0000202009405497030081
:109390007C20094080200940D991010088200940A3
:1093A00038680020CE0700004A020000349603000F
:1093B00063930300B46800208C430020946A00206B
:1093C000F0970300A86900202C2E002079040000EB
:1093D0001F200C90C706D800F74C0A902518281DAE
:1093E0002AF074FB68680F973840F44940186860A9
:1093F000687802211491084368708B208000032153
:109400000490159121544020ED4921520020FF2362
:109410000A210246E84C079F20281DD0E56B6D18F5
:109420006D1E2B70E35DFF2B0CD0E56B0B26734399
:10943000EB189B7A6B54E36BE55D7543059E5B19F6
:109440000A3301E0E36B5B181870E055401C551CB3
:109450000B3113462A46DFE70020342803D018A931
:109460002CF034FAF9E7D7481890D7481A90D74823
:109470001B90D7481C90D7481D902B200001CE4C44
:109480002118225A202313430C9A934323521398F2
:10949000488039AD28462AF019FB39980F990840C1
:1094A000C649084339905720C00020180427294690
:1094B0002CF07EFE6720C84DC84C332803D0002115
:1094C0002954401EF9E700202070082804D02118F4
:1094D00063222CF0F7F9F8E72AF086F8902160541F
:1094E00088248D2C07D00021304628F06CF8BB4929
:1094F0000855641CF5E7852044001FF083FB29F024
:1095000083FD03942046F530286628F0CDFF9B208C
:1095100080000024B1490C5424F086FB7F200E9972
:1095200068544320C000AE49A34D2952281814990D
:10953000C1701599017187605121CF00E95B0B2241
:109540000A439F2189006C52A6496C548466A6493F
:10955000A64B6B5213998A431397EA53A449102CD4
:1095600005D0954A121900235354641CF7E7A14B08
:1095700000223746904EF2549F4BF2541399735A7F
:10958000B924A400D54335513419FF250B95E57353
:109590008B4DA581129CA3437352984B159CF45498
:1095A0005523D900119B0E917354AB239B00944C0F
:1095B000F4509449735C3B437354934B1C2A05D07D
:1095C0007D4CA4180025E554521CF7E78F4B002270
:1095D000794CE2548E4BE2528E4BE2548E4B202A51
:1095E00005D0754CA4180025E554521CF7E78B4AAA
:1095F0000024714FBC540725EA01BB5A8849091D54
:109600001940B952F3218E00B95B80229143B953BE
:109610006B498183172149017C5282494B227A543C
:109620001599417525F0F4FC28F0C8FCB85B059944
:109630008843B8530E467C4821467C4A0DF00EF80C
:10964000D1200001391814220C92CA603E54784A85
:109650001068486056731BF085F90A997854109B7E
:10966000554A169E4F2D11D09059415D19404155D4
:1096700090594019401E0B9901700835F2E74E4889
:109680000019CD21C90000224254641C2A2CF6D1B5
:1096900000206849332803D0474A2CF02FF8F9E717
:1096A0000525280299214900434E315262481599F7
:1096B000315453200001692131506048315022F06B
:1096C000FBF9752000010A2131545D48002434540F
:1096D0005C4834545C48315C149A114331541FF097
:1096E000E9F828F089FE002804D0584803213154B5
:1096F000574831505748301805741E21C1815649CA
:10970000725CFE230A931A4072548269002A02D0C6
:1097100015200021904751483C21274E3154504894
:10972000351850480B9931544F483018052116917F
:109730002BF002FE09200890A8750598C002A882A7
:109740004A483454E0430F38494A4A49002809D06E
:1097500013181B8A184D2D186E186B541B0A737042
:10976000801CF3E7144840184349059E092C06D095
:109770000A5D002343700270641C801CF6E7002021
:109780003E493F4C702803D00B4A2BF0B7FFF9E756
:10979000F0343C480B9B002C04D0074909190B54AA
:1097A000E41DF8E70448384940580021E0296DD00D
:1097B0002CF0E4F8FAE7C0462C2E002000F8FF0752
:1097C000FFFF0000B1E4010055AC010021A302003D
:1097D000BD12030019E90100346D0020503B002048
:1097E000093D00007E020000860200000F03000019
:1097F00037020000470200006A020000A6020000D3
:1098000084D00000340900008A020000A702000092
:10981000760200002E020000BD020000DD02000002
:10982000FBFD0000DE020000814103004A0200004F
:10983000A8690020920600002E05000034050000F3
:10984000380800005E080000D5070000D8080000B6
:10985000DC08000078090000A509000035080000B8
:10986000E407000036080000F30700003408000099
:10987000449403000B080000C49703005207000043
:10988000A0FEFFFFC60700003C090000FC4AFD489F
:1098900010584370FC48115C149B1943115400206C
:1098A000282806D0F6490918252292012CF00AF83A
:1098B000F6E7F6490020F24A5050F54A142804D041
:1098C000EF4909182BF0FEFFF8E7F24FEC4DAB5AC9
:1098D000A8180169F04C1C40C760F04BE318AB526C
:1098E000EF4B139FEA5BEF4C1440EC53EE4AAA5C3B
:1098F000002A324600D0169A1940EC4BE04CE35C4B
:10990000032B00D1921C0723DD4CE94D6355E94B35
:10991000E254E94A89180161E8482018E849002919
:1099200002D02BF0F5FEFAE729F05EFEE549D44AB5
:1099300050540020E449082803D0D14A2BF0DEFE21
:10994000F9E729F051FE0028CD4D01D0DF496854D8
:10995000DF48002409940A9E31462CF033FCDD4890
:1099600031462CF02FFC29F03FFEDB49685439AC1E
:10997000DA492046119E2CF03FFA0698C0002818BC
:1099800021462CF039FA1AF0A5FC18AC20462AF032
:109990009DF818980F990840D14908431890FE4F38
:1099A000E85D0A990840E855049814992954FB4841
:1099B0002818214628F08CFF0121FD482954139ACC
:1099C000A85A129149030143A9520E982E54FB48FC
:1099D00009990E462954E85DF7210140E955F848F8
:1099E0002818159A521E07D0011D40680028084605
:1099F000F8D1EC4858300860E948F149405800284F
:109A000008D1E8495831E64CED4D6151ED482BF055
:109A1000B7FC60590078069018A814301190E04CFB
:109A20000698864200D15DE10996E248205C042850
:109A30001CD8E34961584A788B781B029A18CB7876
:109A400009792BF0A6FE099A920089584A7D8B7DF0
:109A50001B029A18CB7D097E2BF09BFE421CD54B36
:109A6000E25480002018079A52018150D4482058AF
:109A70004178827812025118C27800792BF098FE52
:109A8000099989004558D0482158002901D02878E3
:109A900088476E1C00230F950E96287C834200D3C6
:109AA000EAE0307C717C09020818B17CF27C2BF072
:109AB0007AFE0D9C10935C430119CA7A0B7B1B0242
:109AC0009A184B7B897B2BF064FE08D08847307C4A
:109AD000717C09020818B17CF27C2BF064FE00193D
:109AE0002BF048FE2BF0C0FC1204561800D1BEE04B
:109AF0000F990A780E9B19785B781B02591800237E
:109B0000302B04D018AC0025E5545B1CF8E718ABEB
:109B100000271F705A70027844782402A2185A80D5
:109B2000027A1A719985052121910C991C2903D07B
:109B300018AA5754491CF9E7801C1690002E00D132
:109B400095E0F07840073FD52BF019FE18A9C880A2
:109B50003079727912021018C885B478204629F03D
:109B600077FA00280FD0203CE0B20D2802D89749A0
:109B7000085C00E000201199002804D000220A703F
:109B8000401E491CF8E718AC6078159022F0D4FD0F
:109B900021790029129D00D00D462571618814910C
:109BA0002A4625F02BF9E188E48D1391224621F015
:109BB00059FB002808D00094159814992A46139B45
:109BC0001BF0B8FA002807D07F1C0A3616992BF034
:109BD00077FD8742B2D34AE015981FF0ADF900280F
